:020000040800F2
:10000000002000209524000841240008472400080F
:1000100000000000000000000000000000000000E0
:100020000000000000000000000000004D24000857
:1000300000000000000000005724000861240008B0
:10004000E5240008E5240008E5240008E52400086C
:10005000E5240008E5240008E5240008E52400085C
:10006000E5240008E5240008E5240008E52400084C
:10007000E5240008E524000800000000E52400084D
:1000800000000000E524000800000000000000005F
:10009000E524000800000000E5240008E52400082D
:1000A000E5240008E5240008E52400087124000880
:1000B000E5240008E524000800000000E52400080D
:1000C00010B5064C2378002B07D1054B002B02D02E
:1000D000044800E000BF0123237010BD1C00002075
:1000E00000000000C8590008044B10B5002B03D0D5
:1000F0000349044800E000BF10BDC04600000000F6
:1001000020000020C8590008002243088B4274D305
:1001100003098B425FD3030A8B4244D3030B8B4208
:1001200028D3030C8B420DD3FF22090212BA030C11
:100130008B4202D31212090265D0030B8B4219D3F2
:1001400000E0090AC30B8B4201D3CB03C01A524112
:10015000830B8B4201D38B03C01A5241430B8B425A
:1001600001D34B03C01A5241030B8B4201D30B0343
:10017000C01A5241C30A8B4201D3CB02C01A52416A
:10018000830A8B4201D38B02C01A5241430A8B422D
:1001900001D34B02C01A5241030A8B4201D30B0216
:1001A000C01A5241CDD2C3098B4201D3CB01C01A30
:1001B000524183098B4201D38B01C01A524143093A
:1001C0008B4201D34B01C01A524103098B4201D328
:1001D0000B01C01A5241C3088B4201D3CB00C01A95
:1001E000524183088B4201D38B00C01A524143080D
:1001F0008B4201D34B00C01A5241411A00D2014632
:10020000524110467047FFE701B5002000F006F8A4
:1002100002BDC0460029F7D076E770477047C04658
:10022000844608006146FFE71FB500F0B9F90028D1
:1002300001D40021C8421FBD10B500F045F940426D
:10024000013010BD10B500F0ABF9002801DB002033
:1002500010BD012010BDC04610B500F0A1F9002866
:1002600001DD002010BD012010BDC04610B500F01A
:1002700051F9002801DC002010BD012010BDC0464E
:1002800010B500F047F9002801DA002010BD012068
:1002900010BDC046002B11D1002A0FD1002900D17A
:1002A000002802D00021C943080007B4024802A177
:1002B0004018029003BDC04665FFFFFF03B46846C7
:1002C00001B5029800F034F8019B9E4602B00CBCC8
:1002D0007047C046F0B5CE46474680B50700994600
:1002E0003B0C9C4613041B0C1D000E0061460004D1
:1002F000140C000C45434B4360436143C0182C0C65
:1003000020188C46834203D980235B029846C4445C
:10031000494679437243030C63442D042D0CC918DC
:10032000000440198918C0BCB946B046F0BDC046AB
:10033000F0B557464E464546DE46E0B504000D0092
:100340009246994683B08B4230D82DD049465046CC
:1003500000F0D6F929000600200000F0D1F9331A88
:100360009846203B9B4633D45A46534693404246D8
:100370001F00534693401E00AF423AD8AF4200D10F
:1003800078E05B46A41BBD41002B00DA75E000223B
:1003900000230092019301235A46934001930123C5
:1003A00042469340009328E08242CFD900220023A6
:1003B000009201930C9B002B01D01C605D600098A3
:1003C000019903B0F0BCBB46B246A946A046F0BDB9
:1003D000424620239B1A5246DA40414613004A46C1
:1003E0008A40170042461F43534693401E00AF42C7
:1003F000C4D900220023009201934346002BD9D098
:10040000FB0772081A4346467B080EE0AB4201D157
:10041000A2420CD8A41A9D41012024196D4100214B
:10042000013E24184D41002E06D0AB42EED9013ECC
:1004300024196D41002EF8D1009801995B460019EE
:100440006941002B24DB2B005A464446D3402A0046
:10045000E2401C005B461500002B2ADB26009E4074
:10046000330026004746BE403200801A9941009072
:1004700001919FE7A342BCD883E742462023002195
:100480009B1A0022009101920122DA40019286E734
:10049000424620239B1A2A0046469A402300F340F6
:1004A000444613432A00E2401C005B461500002B23
:1004B000D4DA42462F002023260097409B1ADE40C4
:1004C0003B003343CDE7C04670B5420045024E02C3
:1004D0004C00C30F6D0A0120120E760A240EC90FBC
:1004E000FF2A06D0FF2C03D0A24201D1B54206D08C
:1004F00070BD002DFCD1FF2CFAD1002EF8D18B421B
:1005000006D00120002AF3D12800431E9841EFE7CE
:100510000020EDE770B5420045024E024C00C30FCB
:100520006D0A120E760A240EC80FFF2A1BD0FF2C6C
:100530000ED0002A1BD1002C01D1002E1CD0002D82
:100540000CD083421CD00221581E0840013870BDD7
:10055000002E22D1002AF4D1002DF2D10028F6D1AC
:1005600001204042F3E7002D17D1FF2CF0D0002CE2
:10057000E7D1002EE5D1E6E70020002DE7D0E2E745
:10058000A24205DCEADBB54202D8E7D30020DEE771
:100590004342584140000138D9E702204042D6E7A3
:1005A00070B5420045024E024C00C30F6D0A120E98
:1005B000760A240EC80FFF2A0BD0FF2C0DD0002A7C
:1005C0001FD1002C16D1002E14D10020002D10D0E8
:1005D00009E0002D0CD1FF2C13D1002E08D1002AE8
:1005E00008D0834212D00221581E0840013800E092
:1005F000022070BD002DF4D10028FAD10120404224
:10060000F7E7002CEDD1002EEBD1ECE7A24205DCA0
:10061000F2DBB54202D8EFD30020EAE7434258416B
:1006200040000138E5E7C046F8B5002813D0C317ED
:10063000C6185E40C40F300000F044F89E23050049
:100640001B1A962B0FDC082801DD083DAE40760210
:10065000760AD8B202E0002400200026C00530430C
:10066000E4072043F8BD992B0CDD05223100121A56
:10067000D1400A00010030001B318840411E8841F2
:1006800002431600052D12DC31000D4F3940720770
:1006900009D00F203040042805D004314A0102D58A
:1006A0009F2339405B1B89014E0AD8B2D6E76A1FE7
:1006B00096403100024F39407207F4D0E9E7C04656
:1006C000FFFFFFFB1C2101231B04984201D3000CF8
:1006D00010391B0A984201D3000A08391B099842B5
:1006E00001D30009043902A2105C40187047C046CB
:1006F00004030202010101010000000000000000EB
:1007000010B5002903D1FFF7DDFF203002E008001B
:10071000FFF7D8FF10BDC046B0B588B000AF0500E8
:100720000C0010001900BB1D2A1C1A803B1D221C46
:100730001A80BB1C021C1A803B000A1C1A80BB1CBE
:100740001B88013BFB610023BB6101237B6101230B
:100750003B61BB1C1B885B007A69D31AFB60A6E077
:10076000FB699AB2BB1D1B88D31898B2BB699AB2B9
:100770003B1D1B88D31899B23B001B881A0000F060
:10078000BCFEBB699AB2BB1D1B88D31898B2FB692B
:100790009AB23B1D1B88D31899B23B001B881A00E4
:1007A00000F0ABFEBB699BB2BA1D1288D31A98B297
:1007B000FB699AB23B1D1B88D31899B23B001B887A
:1007C0001A0000F09AFEFB699BB2BA1D1288D31A78
:1007D00098B2BB699AB23B1D1B88D31899B23B00F3
:1007E0001B881A0000F089FEFB699BB2BA1D1288B3
:1007F000D31A98B2BB699BB23A1D1288D31A99B228
:100800003B001B881A0000F078FEBB699BB2BA1D42
:100810001288D31A98B2FB699BB23A1D1288D31A78
:1008200099B23B001B881A0000F067FEBB699AB2C0
:10083000BB1D1B88D31898B2FB699BB23A1D128866
:10084000D31A99B23B001B881A0000F056FEFB69D0
:100850009AB2BB1D1B88D31898B2BB699BB23A1DD4
:100860001288D31A99B23B001B881A0000F045FE8B
:10087000FB68002B09DCBB690133BB61FA683B698B
:10088000D318FB603B6902333B61FB68002B0EDD34
:10089000FB69013BFB617B6902337B61BB1C1B88ED
:1008A0005B425A007B69D318FA68D318FB60FA6977
:1008B000BB699A4200DB53E7C046C046BD4608B05C
:1008C000B0BDB0B58AB000AF05000C001000190033
:1008D000BB1D2A1C1A803B1D221C1A80BB1C021C3B
:1008E0001A803B000A1C1A80BB1C1B887B620023F9
:1008F0003B62BB1C1B885B000122D31AFB610023F7
:10090000BB6100237B616DE0BB1D1A887B6AD31A33
:100910003B611CE03B6998B23B6A9AB23B1D1B8865
:10092000D31899B23B001B881A0000F0E6FD3B6922
:1009300098B23B6A9BB23A1D1288D31A99B23B0017
:100940001B881A0000F0D9FD3B6901333B61BB1DD8
:100950001A887B6AD3183A699A42DBDDBB1D1A8874
:100960003B6AD31AFB601CE0FB6898B27B6A9AB2C0
:100970003B1D1B88D31899B23B001B881A0000F05E
:10098000BCFDFB6898B27B6A9BB23A1D1288D31AF1
:1009900099B23B001B881A0000F0AFFDFB680133E1
:1009A000FB60BB1D1A883B6AD318FA689A42DBDDEC
:1009B0003B6A01333B627A69BB69D3187B61BB69CF
:1009C0000233BB617B695A00FB69D318002B09DD38
:1009D0007B6A013B7B627A69FB69D3187B61FB69A7
:1009E0000233FB617A6A3B6A9A428DDAC046C0469E
:1009F000BD460AB0B0BDF0B587B000AF05000C0031
:100A000010001900BB1D2A1C1A803B1D221C1A80D5
:100A1000BB1C021C1A803B000A1C1A801623FB1800
:100A200000221A801423FB1800221A8013243B1979
:100A300000221A701223FB1800221A700023FB6098
:100A4000BB1C1A88BB1D1B88D31A1800FFF7ECFDCE
:100A5000031CFB600021F868FFF7F4FB031E02D0C3
:100A60003B1901221A700023FB603B001A883B1DD2
:100A70001B88D31A1800FFF7D7FD031CFB60002169
:100A8000F868FFF7DFFB031E03D01223FB180122D7
:100A90001A701323FB181B78002B08D11623FB18A0
:100AA000B91CBA1D098812888A1A1A8007E0162311
:100AB000FB18B91DBA1C098812888A1A1A802825C1
:100AC0000823EA18D3191C881626BB191A883B1D5F
:100AD0001988BB1D1888230000F0ECFD0823EB18D3
:100AE000DB191C88BB191A883B001988BB1D1888A4
:100AF000230000F0DFFD1223FB181B78002B08D128
:100B00001423FB1839003A1D098812888A1A1A80A2
:100B100007E01423FB18391D3A00098812888A1A45
:100B20001A8028260823F218D3191C8814257B194B
:100B30001A883B1D1988BB1D1888230000F0FCFD96
:100B40000823F318DB191C887B191A883B1D1988A8
:100B5000BB1C1888230000F0EFFD1623FB181B8830
:100B6000002B03D17B191B88002B0BD028230822D4
:100B70009B18DB191A883B001988BB1C1B881800BE
:100B800000F0BBFCC046BD4607B0F0BDB0B588B0B4
:100B900002AF05000C0010001900BB1D2A1C1A80B2
:100BA0003B1D221C1A80BB1C021C1A803B000A1C25
:100BB0001A801623FB1800221A801423FB18002227
:100BC0001A8013217B1800221A701223FB180022AE
:100BD0001A700023BB601023FB1800221A800E231A
:100BE000FB1800221A80BB1C1A88BB1D1B88D31A55
:100BF000BB60BB68002B02DA7B1801221A7000234D
:100C0000BB603B001A883B1D1B88D31ABB60BB68C6
:100C1000002B03DA1223FB1801221A701323FB188E
:100C20001B78002B0DD11623FB18B91CBA1D09889F
:100C300012888A1A1A801023FB18BA1D12881A808B
:100C40000CE01623FB18B91DBA1C098812888A1AF1
:100C50001A801023FB18BA1C12881A801223FB1862
:100C60001B78002B0DD11423FB1839003A1D09887D
:100C700012888A1A1A800E23FB183A1D12881A80CD
:100C80000CE01423FB18391D3A00098812888A1ACF
:100C90001A800E23FB183A0012881A801423FB18BE
:100CA0001C881623FB181A880E23FB18198810239A
:100CB000FB1818882823FB181B880093230000F0DA
:100CC00095FCC046BD4606B0B0BDF0B58DB002AFD4
:100CD0000400B960100019000F257B19221C1A703E
:100CE0000C26BB19021C1A80BB1D0A1C1A80290085
:100CF0007B181B781E2B00D885E07B181B785BB215
:100D0000002B00DA7FE01F203B18BA6812781A70B7
:100D10001E243B19BA6852781A701D257B19BA68CF
:100D200092781A701C23FB18BA68D2781A707B1854
:100D30001B78203B3A18127853430433BA68D3180F
:100D4000BB613B191B789AB27B191B789CB2BB1D07
:100D50001988BB1918883C2308255B19DB191B88E7
:100D60000093230000F042FC00237B6244E0002358
:100D70003B6238E01C23FB181B783A6A5A437B6AB3
:100D8000DB101F210B40D3180133BA69D218172189
:100D90007B1812781A707B6A0722134001229A404E
:100DA00016203B181A707B183A181B7812781340DB
:100DB000DBB2002B14D03B6A9AB20C23FB181B88C1
:100DC000D31898B27B6A9AB2BB1D1B88D31899B20C
:100DD000382308229B18DB191B881A0000F08DFBB2
:100DE0003B6A01333B621E23FB181B783A6A9A4226
:100DF000C0DB7B6A01337B621D23FB181B787A6A98
:100E00009A42B4DB00E0C046BD460BB0F0BD90B5E1
:100E10008BB002AFF860B9601900BB1D1A803B1D92
:100E20000A1C1A801F23FB18BA6812781A701E2336
:100E3000FB18BA6852781A7040E0FB6818783B1DBE
:100E40001C88BB1D1A88B9683423FB181B880193C2
:100E50003023FB181B8800932300FFF736FFFB6845
:100E60001B78203B1F22BA18127853430433BA6808
:100E7000D318BB6117217B18BA6912781A707B18D6
:100E80001B789A1C1E23FB181B789A420ADA7B18DF
:100E90001B789AB2BB1D1B88D3189AB2BB1D0232B5
:100EA0001A8008E01E23FB181B7899B2BB1DBA1DDF
:100EB00012888A181A80FB680133FB60FB681B7874
:100EC000002BBAD1C046C046BD4609B090BD000057
:100ED00080B582B000AF0200FB1D1A70C046084BFF
:100EE0001B689B6802221340022BF8D1F91D0448AD
:100EF0000A23012202F04EFEC046BD4602B080BD6C
:100F00003800002080B582B000AF78600A00BB1CBA
:100F10001A80C046084B1B689B6802221340022BB4
:100F2000F8D1BB1C1A88796803480A2302F032FE04
:100F3000C046BD4602B080BD3800002080B582B0FA
:100F400000AF0200FB1D1A700A4B0022022118009C
:100F500001F03AFE074B00220121180001F034FE97
:100F6000FB1D1B781800FFF7B3FFC046BD4602B05B
:100F700080BDC0460004005080B582B000AF0200C2
:100F8000FB1D1A700A4B01220221180001F01CFE01
:100F9000074B00220121180001F016FEFB1D1B78F3
:100FA0001800FFF795FFC046BD4602B080BDC046A1
:100FB0000004005080B582B000AF78600A00BB1C0E
:100FC0001A800B4B01220221180001F0FDFD084B95
:100FD00000220121180001F0F7FDBB1C1A887B6874
:100FE00011001800FFF78EFFC046BD4602B080BD5D
:100FF00000040050B0B584B000AF05000C00100034
:101000001900BB1D2A1C1A803B1D221C1A80BB1C08
:10101000021C1A803B000A1C1A80BB1D1B881B0A7D
:101020009BB2DAB20C217B181A70BB1D1B88DAB296
:101030007B185A70BB1C1B881B0A9BB2DAB27B1848
:101040009A70BB1C1B88DAB20C007B18DA702A205D
:10105000FFF774FF3B1904211800FFF7ABFF3B1D9E
:101060001B881B0A9BB2DAB221007B181A703B1D49
:101070001B88DAB27B185A703B001B881B0A9BB294
:10108000DAB27B189A703B001B88DAB20C007B182E
:10109000DA702B20FFF752FF3B1904211800FFF7ED
:1010A00089FF2C20FFF74AFFC046BD4604B0B0BD03
:1010B00080B500AF0D4B00221021180001F084FD17
:1010C0000A2001F081FA094B00220121180001F0E9
:1010D0007BFD0A2001F078FA044B01221021180050
:1010E00001F072FDC046BD4680BDC0460004005000
:1010F00080B500AF044B01221021180001F064FDFF
:10110000C046BD4680BDC0460004005080B500AF5B
:10111000FFF7EEFFFFF7CCFF0120FFF70FFF0A20DC
:1011200001F052FACB20FFF709FF3920FFF724FF27
:101130002C20FFF721FF0020FFF71EFF3420FFF7D0
:101140001BFF0220FFF718FFCF20FFF7F7FE00205C
:10115000FFF712FFC120FFF70FFF3020FFF70CFF52
:10116000E820FFF7EBFE8520FFF706FF0020FFF7E2
:1011700003FF7820FFF700FFEA20FFF7DFFE0020E3
:10118000FFF7FAFE0020FFF7F7FEED20FFF7D6FE8F
:101190006420FFF7F1FE0320FFF7EEFE1220FFF7B9
:1011A000EBFE8120FFF7E8FEF720FFF7C7FE2020C7
:1011B000FFF7E2FEC020FFF7C1FE2320FFF7DCFEB1
:1011C000C120FFF7BBFE1020FFF7D6FEC520FFF7BA
:1011D000B5FE3E20FFF7D0FE2820FFF7CDFEC7204A
:1011E000FFF7ACFE8620FFF7C7FE3620FFF7A6FE0E
:1011F0004820FFF7C1FE3A20FFF7A0FE5520FFF779
:10120000BBFEB120FFF79AFE0020FFF7B5FE1820C5
:10121000FFF7B2FEB620FFF791FE0820FFF7ACFE05
:101220008220FFF7A9FE2720FFF7A6FEF220FFF796
:1012300085FE0020FFF7A0FE2620FFF77FFE01209D
:10124000FFF79AFEE020FFF779FE0F20FFF794FEEC
:101250003120FFF791FE2B20FFF78EFE0C20FFF7C9
:101260008BFE0E20FFF788FE0820FFF785FE4E203C
:10127000FFF782FEF120FFF77FFE3720FFF77CFEAD
:101280000720FFF779FE1020FFF776FE0320FFF717
:1012900073FE0E20FFF770FE0920FFF76DFE0020A1
:1012A000FFF76AFEE120FFF749FE0020FFF764FE2A
:1012B0000E20FFF761FE1420FFF75EFE0320FFF70C
:1012C0005BFE1120FFF758FE0720FFF755FE312087
:1012D000FFF752FEC120FFF74FFE4820FFF74CFEFC
:1012E0000820FFF749FE0F20FFF746FE0C20FFF70E
:1012F00043FE3120FFF740FE3620FFF73DFE0F2072
:10130000FFF73AFE1120FFF719FE642001F05CF9A7
:101310002920FFF713FE3620FFF710FE012001F011
:1013200053F92820FFF728FEC046BD4680BD80B592
:1013300084B000AF0200BB1D1A80BB1D1B881B0AB6
:101340009BB2DAB20C217B181A70BB1D1B88DAB273
:101350007B185A707B1802211800FFF72BFEC0463D
:10136000BD4604B080BD0000F0B5C64600B592B0E1
:1013700000AF0200B9611E23FB181A806B46984625
:101380000023FB63BB695A00FA235B009A4202D236
:10139000BB69FB6302E0FA235B00FB63484B01225D
:1013A0000221180001F010FC454B00220121180019
:1013B00001F00AFC1E23FB181B881B0A9AB2232388
:1013C00018215B18DB191A70FB6B1A00013A7A635B
:1013D000BB600022FA60B868F9680200520F0E0084
:1013E000F6007E617E6916437E610200D2003A619A
:1013F0003B6000227A60386879680200520F0E0064
:10140000F50015430200D4000733DB08DB006A4611
:10141000D31A9D466B4600333B6300233B6413E0C5
:101420003A6B3B6CD318232218215218D219127828
:101430001A703B6C01331E22BA181288D1B23A6B73
:10144000D1543B6C02333B643A6CFB6B9A42E7D35A
:10145000BB695B00FB62F96BF86AFEF755FE03009F
:10146000BB62FB6AF96B1800FEF7D4FE0B007B62CF
:10147000BB6A002B10D000237B6409E0FB6B9AB29F
:10148000396B10480A2302F085FB7B6C01337B64C7
:101490007A6CBB6A9A42F1D37B6A9AB2396B09487B
:1014A0000A2302F077FB064B01220121180001F00C
:1014B0008BFBC546C046BD4612B080BCB846F0BDE9
:1014C000000400503800002080B582B000AF020058
:1014D000BB1D1A80A0235A00F02300210020FFF733
:1014E00089FD96235A02BB1D1B8811001800FFF7C7
:1014F0003BFFC046BD4602B080BDF0B587B000AF2F
:10150000040008001100BB1D221C1A803B1D021C98
:101510001A80BB1C0A1C1A80BB1D1A88A0235B0002
:101520009A425FD23B1D1B88EF2B5BD8BB1D1B88EB
:101530001B0A9BB2DAB214243B191A70BB1D1B881C
:10154000DAB23B195A70BB1D1B8801331B12DAB289
:101550003B199A70BB1D1B88DBB20133DAB23B1911
:10156000DA703B1D1B881B0A9BB2DAB210257B196F
:101570001A703B1D1B88DAB27B195A703B1D1B8801
:1015800001331B12DAB27B199A703B1D1B88DBB248
:101590000133DAB27B19DA70BB1C1B881B0A9BB2C1
:1015A000DAB20C26BB191A70BB1C1B88DAB2BB1945
:1015B0005A702A20FFF7C2FC3B1904211800FFF7DC
:1015C000F9FC2B20FFF7BAFC7B1904211800FFF768
:1015D000F1FC2C20FFF7B2FCBB1902211800FFF729
:1015E000E9FC00E0C046BD4607B0F0BDB0B582B032
:1015F00000AF05000C0010001900BB1D2A1C1A804A
:101600003B1D221C1A80BB1C021C1A803B000A1CBA
:101610001A80BB1D1A88A0235B009A4246D23B1D4C
:101620001B88EF2B42D8BB1D1A88BB1C1B88D21805
:10163000A0235B009A4206DDBB1CBA1D1288A021C4
:1016400049008A1A1A803B1D1A883B001B88D31850
:10165000F02B05DD3B003A1D1288F0218A1A1A8012
:10166000BA1DBB1C12881B88D3189BB2013B9CB2CD
:101670003A1D3B0012881B88D3189BB2013B9AB2DB
:101680003B1D1988BB1D188813002200FFF7B2FC10
:101690003B001B88BA1C128853431A001823FB18FE
:1016A0001B8811001800FFF75FFE00E0C046BD4632
:1016B00002B0B0BDB0B584B000AF05000C001000A2
:1016C0001900BB1D2A1C1A803B1D221C1A80BB1C42
:1016D000021C1A803B000A1C1A80BB1D1A88A0231A
:1016E0005B009A4224D23B1D1B88EF2B20D80E238F
:1016F000FB18BA1D12881A800FE03B001A883B1DA8
:1017000019880E243B191B881800FFF7F6FE2100EC
:101710007B181A887B1801321A800E23FB181A884E
:10172000BB1D1988BB1C1B88CB189A42E5DD00E065
:10173000C046BD4604B0B0BDB0B584B000AF050032
:101740000C0010001900BB1D2A1C1A803B1D221C16
:101750001A80BB1C021C1A803B000A1C1A80BB1D8D
:101760001A88A0235B009A4223D23B1D1B88EF2BD3
:101770001FD80E23FB183A1D12881A800EE03B007A
:101780001A880E243B191988BB1D1B881800FFF707
:10179000B4FE3B191A883B1901321A800E23FB183C
:1017A0001A883B1D1988BB1C1B88CB189A42E6DDA2
:1017B00000E0C046BD4604B0B0BD0000F0B5A1B029
:1017C00002AF78607B681A681A4B1B689A4201D096
:1017D00000F040FC184B1B78002B01D100F039FCC5
:1017E000164914480A23012202F05AFC124B1B78B6
:1017F000012B0ED112490F480A23012202F0F0FCFE
:101800000F4B1B781A000F4B5200D35A1800FFF7EA
:101810008EFD094B1B78022B39D100237B670849C9
:1018200004480A23052202F0DBFC7323FB18002284
:101830001A701CE090000020180100200000002019
:101840001C010020040000207B6F1B027B677321BA
:101850007B181B780422D31AE04AD35C1A007B6FF2
:1018600013437B677B181A787B1801321A70732335
:10187000FB181B78032BE7D9D84B1B781A00D84BE1
:101880005200D35A7A6F11001800FFF76DFDD54B47
:101890001B78032B0ED1D149D3480A23012202F031
:1018A0009FFCCE4B1B781A00CD4B5200D35A180028
:1018B000FFF70AFECB4B1B78042B3ED170243B195B
:1018C00000221A806E257B1900221A80C349C6485F
:1018D0000A23052202F084FCC04B5A783B191A8077
:1018E0003B1920003A19128812021A80BB4B1B7850
:1018F00099B23B183A1812880A431A80B74BDA7823
:101900007B191A807B192C007A19128812021A800E
:10191000B24B9B7899B23B193A1912880A431A8044
:10192000AE4B1B791A00AE4B5200D25A3B191988A4
:101930003B181B881800FFF7E0FDAA4B1B78052B0E
:1019400070D16C243B1900221A806A257B19002271
:101950001A806823FB1800221A806622BB18002216
:101960001A809E49A0480A23092202F039FC9B4BA9
:101970005A783B191A803B1920003A191288120232
:101980001A80964B1B7899B23B183A1812880A4372
:101990001A80924BDA787B191A807B192E007A19FB
:1019A000128812021A808D4B9B7899B2BB19BA1912
:1019B00012880A431A80894B5A7968243B191A8085
:1019C0003B193A19128812021A80844B1B7999B27A
:1019D0003B193A1912880A431A80804BDA79662536
:1019E0007B191A807B197A19128812021A807B4B94
:1019F0009B7999B27B197A1912880A431A80774B1E
:101A00001B7A1A00764B5200D35A7A1915883A1964
:101A10001488BA1911883A18108800932B002200F4
:101A2000FFF7E4FD6F4B1B78062B54D164243B1960
:101A300000221A8062257B1900221A806026BB19B9
:101A400000221A80654968480A23072202F0C8FB71
:101A5000624B5A783B191A803B1920003A191288B8
:101A600012021A805D4B1B7899B23B183A18128803
:101A70000A431A80594BDA787B191A807B197A1934
:101A8000128812021A80554B9B7899B27B197A19E9
:101A900012880A431A80514B5A79BB191A80BB1914
:101AA000BA19128812021A804C4B1B7999B2BB19D1
:101AB000BA1912880A431A80484B9B791A00484B7E
:101AC0005200D45ABB191A887B1919883B181888F8
:101AD0002300FFF7EFFD434B1B78072B54D15E2407
:101AE0003B1900221A805C257B1900221A805A2695
:101AF000BB1900221A8039493B480A23072202F009
:101B00006FFB364B5A783B191A803B1920003A1963
:101B1000128812021A80314B1B7899B23B183A187E
:101B200012880A431A802D4BDA787B191A807B19A8
:101B30007A19128812021A80284B9B7899B27B1965
:101B40007A1912880A431A80244B5A79BB191A80D1
:101B5000BB19BA19128812021A80204B1B7999B24C
:101B6000BB19BA1912880A431A801C4B9B791A00B8
:101B70001B4B5200D45ABB191A887B1919883B1881
:101B800018882300FFF7D8FD164B1B78082B5ED171
:101B900058243B1900221A8056257B1900221A80EE
:101BA0005426BB1900221A800C490F480A23072229
:101BB00002F016FB094B5A783B191A803B1920009A
:101BC0003A19128812021A80044B1B7899B23B18FA
:101BD0003A1812880A431A8008E0C0461C01002007
:101BE000040000201801002090000020D74BDA7874
:101BF0007B191A807B197A19128812021A80D34B2A
:101C00009B7899B27B197A1912880A431A80CF4BB4
:101C10005A79BB191A80BB19BA19128812021A8094
:101C2000CA4B1B7999B2BB19BA1912880A431A8098
:101C3000C64B9B791A00C64B5200D45ABB191A885E
:101C40007B1919883B1818882300FEF765FDC14BE6
:101C50001B78092B54D152243B1900221A8050259D
:101C60007B1900221A804E26BB1900221A80B74920
:101C7000B9480A23072202F0B3FAB44B5A783B1949
:101C80001A803B1920003A19128812021A80AF4BB1
:101C90001B7899B23B183A1812880A431A80AB4B4A
:101CA000DA787B191A807B197A19128812021A8045
:101CB000A64B9B7899B27B197A1912880A431A802D
:101CC000A24B5A79BB191A80BB19BA191288120291
:101CD0001A809E4B1B7999B2BB19BA1912880A4314
:101CE0001A809A4B9B791A00994B5200D45ABB190F
:101CF0001A887B1919883B1818882300FEF7E1FD24
:101D0000944B1B780A2B60D1904993480A230922EF
:101D100002F066FA8D4B5A784C203B181A803B181B
:101D20003A18128812021A80884B1B7899B23B1815
:101D30003A1812880A431A80844BDA784A26BB196B
:101D40001A80BB19BA19128812021A807F4B9B782D
:101D500099B2BB19BA1912880A431A807B4B5A7977
:101D600048243B191A803B193A19128812021A802A
:101D7000764B1B7999B23B193A1912880A431A809B
:101D8000724BDA7946257B191A807B197A191288E9
:101D900012021A806D4B9B7999B27B197A191288BD
:101DA0000A431A80694B1B7A1A00694B5200D35AB6
:101DB0007A1915883A191488BA1911883A181088AE
:101DC00000932B002200FEF716FE624B1B780B2BB4
:101DD00060D15E4960480A23092202F001FA5B4B98
:101DE0005A7844203B181A803B183A18128812027D
:101DF0001A80564B1B7899B23B183A1812880A433E
:101E00001A80524BDA784226BB191A80BB19BA19CC
:101E1000128812021A804D4B9B7899B2BB19BA19DD
:101E200012880A431A80494B5A7940243B191A8078
:101E30003B193A19128812021A80444B1B7999B245
:101E40003B193A1912880A431A80404BDA793E2529
:101E50007B191A807B197A19128812021A803B4B5F
:101E60009B7999B27B197A1912880A431A80374BE9
:101E70001B7A1A00364B5200D35A7A1915883A1930
:101E80001488BA1911883A18108800932B00220080
:101E9000FEF77CFE2F4B1B780C2B51D13C243B19B9
:101EA00000221A803A257B1900221A8027492A48E5
:101EB0000A23072202F094F93923FB18234A1278E7
:101EC0001A70224B9A783B191A803B1920003A1954
:101ED000128812021A801D4B5B7899B23B183A188F
:101EE00012880A431A80194B1A797B191A807B19B8
:101EF0002C007A19128812021A80144BDB7899B2DE
:101F00003B193A1912880A431A80104B5B791A0060
:101F10000F4B5200D35A0D4A927911000C4A4900D6
:101F20008A5A39190E8839180D880C4C39217918BC
:101F300008780192009333002A002100FEF7C5FEC5
:101F4000044B1B780D2B00D084E009E01C0100201D
:101F5000040000201801002090000020E059000833
:101F60000823FB1800221A600433242200211800E1
:101F700003F022FD7223FB1800221A703623FB188F
:101F800000221A803423FB1800221A8033243919C6
:101F900032480A23012202F023F93B191B78002B57
:101FA00049D17223FB181B780826BA190021D15495
:101FB0002B492A480A23062202F012F9284B5A78A4
:101FC00036203B181A803B183A18128812021A80E1
:101FD000234B1B7899B23B183A1812880A431A808F
:101FE0001F4BDA7834243B191A803B193A191288AE
:101FF00012021A801A4B9B7899B23B193A1912882F
:102000000A431A80164B1B791A00164B5200D35AFA
:10201000134A52791100134A49008A5A39190D8816
:1020200039180C881049B819019200932B0022002E
:10203000FEF7EDFE0EE07222BB181B78BA18591C91
:1020400011701A003323FB1819780823FB189954D0
:102050009CE7C046BD461FB0F0BDC04690000020C2
:102060001C01002004000020E059000880B500AFEA
:1020700000F03AFA00F016F800F0FCF800F092F8E0
:1020800000F0C8F800F080F8FFF740F80349044B6F
:102090000122180002F08AF9F8E7C0461801002072
:1020A0009000002090B59DB000AF38243B19180077
:1020B00038231A00002103F07FFC2423FB181800AA
:1020C00014231A00002103F077FC3B1D1800202385
:1020D0001A00002103F070FC294B1B68294A1A40A2
:1020E000274B802109010A431A6021007B18022234
:1020F0001A607B180122DA607B1810221A617B18A3
:1021000002229A627B180022DA627B188022D202B5
:102110001A637B188022D2035A637B18180000F0E0
:1021200071FD031E01D000F0E9F824217B180F2275
:102130001A607B1803225A607B1800229A607B1871
:102140000022DA607B1800221A617B180121180036
:1021500001F01CF9031E01D000F0D0F83B1D012254
:102160001A603B1D00229A603B1D180001F032FBF3
:10217000031E01D000F0C2F8C046BD461DB090BDA0
:1021800000700040FFE7FFFF80B500AF0022002194
:102190001B2000F0E9FA1B2000F0FBFAC046BD4608
:1021A00080BD000080B500AF184B194A1A60174B6C
:1021B000822252005A60154B00229A60134B002273
:1021C000DA60124B00221A61104B00225A610F4B49
:1021D000802292009A610D4B0022DA610B4B0022A3
:1021E0001A620A4B00225A62084B00229A62074B7D
:1021F0000722DA62054B180001F038FC031E01D0FB
:1022000000F07CF8C046BD4680BDC04638000020C6
:102210000030014080B500AF144B154A1A60134BD3
:10222000E12252025A60114B00229A600F4B0022A9
:10223000DA600E4B00221A610C4B0C225A610B4BD8
:1022400000229A61094B0022DA61084B00221A62CF
:10225000064B00225A62054B180001F0CDFE031E0A
:1022600001D000F04BF8C046BD4680BD9000002074
:102270000038014090B589B000AF0C243B1918001C
:1022800014231A00002103F097FB1A4BDA6A194B4A
:1022900001210A43DA62174BDB6A01221340BB605B
:1022A000BB68144BDA6A134B02210A43DA62114B02
:1022B000DB6A022213407B607B680F4B00221321F4
:1022C000180000F081FC21007B1813221A607B1893
:1022D00001225A607B1800229A607B180322DA6080
:1022E0007B18054A1900100000F0F8FAC046BD46F8
:1022F00009B090BD001002400004005080B500AF4E
:1023000072B6C046FEE7000080B500AF074B5A6BBF
:10231000064B01210A435A63044B9A6B034B8021FD
:1023200049050A439A63C046BD4680BD001002407D
:1023300090B589B000AF78600C243B1918001423C5
:102340001A00002103F038FB7B681B68184A93428F
:1023500029D1184B5A6B174B802149010A435A6304
:10236000144BDA6A134B01210A43DA62114BDB6A20
:1023700001221340BB60BB6821007B18E0221A6079
:102380007B1802225A607B1800229A607B18032275
:10239000DA607B1800221A617A18A023DB0511008D
:1023A000180000F09BFAC046BD4609B090BDC0467B
:1023B000003001400010024090B589B000AF786055
:1023C0000C243B19180014231A00002103F0F4FA1E
:1023D0007B681B68184A93422AD1184B5A6B174BDB
:1023E0008021C9010A435A63144BDA6A134B012155
:1023F0000A43DA62114BDB6A01221340BB60BB68FF
:102400003B19C022D2001A6021007B1802225A60B8
:102410007B1800229A607B180322DA607B18042262
:102420001A617A18A023DB051100180000F056FA93
:10243000C046BD4609B090BD0038014000100240C2
:1024400080B500AFFEE780B500AFFEE780B500AF16
:10245000C046BD4680BD80B500AFC046BD4680BD0C
:1024600080B500AF00F094F8C046BD4680BD0000C6
:1024700080B500AF034B180001F0F6FFC046BD4623
:1024800080BDC0469000002080B500AFC046BD466C
:1024900080BD00000D488546FFF7F6FF0C480D494A
:1024A0000D4A002302E0D458C4500433C4188C42AF
:1024B000F9D30A4A0A4C002301E013600432A24215
:1024C000FBD303F055FAFFF7D1FDFEE70020002013
:1024D000000000201C000020A06B00081C00002051
:1024E0002C010020FEE7000080B582B000AFFB1D8C
:1024F00000221A700B4B1A680A4B40210A431A60DB
:10250000032000F011F8031E03D0FB1D01221A70F6
:1025100001E0FFF7F9FEFB1D1B781800BD4602B075
:1025200080BDC0460020024090B583B000AF786007
:10253000144B1C68144B1B781900FA239800FDF704
:10254000E3FD030019002000FDF7DEFD0300180085
:1025500000F02FF9031E01D001230FE07B68032B4D
:102560000BD8796801235B420022180000F0FCF8C8
:10257000064B7A681A60002300E001231800BD466C
:1025800003B090BD100000201800002014000020AF
:1025900080B500AF054B1B781A00054B1B68D2189D
:1025A000034B1A60C046BD4680BDC04618000020DF
:1025B0002801002080B500AF024B1B681800BD4603
:1025C00080BDC0462801002080B584B000AF78608F
:1025D000FFF7F0FF0300BB607B68FB60FB68013323
:1025E00005D00A4B1B781A00FB689B18FB60C0469D
:1025F000FFF7E0FF0200BB68D31AFA689A42F7D8E7
:10260000C046C046BD4604B080BDC046180000208C
:1026100080B582B000AF0200FB1D1A70FB1D1B7855
:102620007F2B09D8FB1D1B781A001F231A40044B6F
:10263000012191400A001A60C046BD4602B080BD2B
:1026400000E100E090B583B000AF02003960FB1DEF
:102650001A70FB1D1B787F2B28D82F4AFB1D1B7877
:102660005BB29B08C0339B009B58FA1D1278110087
:1026700003220A40D200FF2191400A00D2431A40AF
:1026800011003B689B01FF221A40FB1D1B781800BC
:1026900003230340DB009A401F48FB1D1B785BB2FD
:1026A0009B080A43C0339B001A5031E01B4AFB1DB4
:1026B0001B7819000F230B40083B9B0806339B0037
:1026C000D31804331B68FA1D1278110003220A4044
:1026D000D200FF2191400A00D2431A4011003B680A
:1026E0009B01FF221A40FB1D1B78180003230340A7
:1026F000DB009A400948FB1D1B781C000F23234078
:10270000083B9B080A4306339B00C31804331A6036
:10271000C046BD4603B090BD00E100E000ED00E022
:1027200080B582B000AF78607B685A1E80235B045E
:102730009A4201D3012310E00A4B7A68013A5A60A9
:1027400001235B4203211800FFF77CFF054B0022A9
:102750009A60044B07221A6000231800BD4602B09D
:1027600080BDC04610E000E080B584B000AFB96025
:102770007A600F217B18021C1A70BA687B181B78CC
:102780005BB211001800FFF75DFFC046BD4604B004
:1027900080BD80B582B000AF0200FB1D1A70FB1D2A
:1027A0001B785BB21800FFF733FFC046BD4602B08E
:1027B00080BD80B582B000AF78607B681800FFF7FD
:1027C000AFFF03001800BD4602B080BD80B584B0E5
:1027D00000AF78600F23FB1800221A707B68252257
:1027E0009B5CDBB2022B08D07B680422DA637B6837
:1027F000242200219954012324E07B681B681A6875
:102800007B681B680E218A431A607B681B681A6804
:102810007B681B6801218A431A607B685B6C1C2201
:102820001A407B681B6C012191400A005A607B684A
:102830002522012199547B682422002199540F23D9
:10284000FB181B781800BD4604B080BD80B584B06D
:1028500000AF78600F217B1800221A707B68252258
:102860009B5CDBB2022B06D07B680422DA637B1808
:1028700001221A702AE07B681B681A687B681B6853
:102880000E218A431A607B681B681A687B681B6884
:1028900001218A431A607B685B6C1C221A407B68AA
:1028A0001B6C012191400A005A607B68252201219E
:1028B00099547B682422002199547B689B6B002BE0
:1028C00004D07B689B6B7A68100098470F23FB1835
:1028D0001B781800BD4604B080BD000080B586B0EE
:1028E00000AF7860396000237B610023FB60002328
:1028F0003B614FE13B681B6801217A6991400A0006
:102900001340FB60FB68002B00D140E13B685B6833
:1029100003221340012B05D03B685B680322134060
:10292000022B30D17B689B683B617B695B00032293
:102930009A401300DA433B6913403B613B68DA6815
:102940007B695B009A4013003A6913433B617B68E3
:102950003A699A607B685B683B6101227B699A40B7
:102960001300DA433B6913403B613B685B681B091A
:1029700001221A407B699A4013003A6913433B6174
:102980007B683A695A603B685B6803221340032BFB
:1029900017D07B68DB683B617B695B0003229A4050
:1029A0001300DA433B6913403B613B689A687B69DB
:1029B0005B009A4013003A6913433B617B683A69B4
:1029C000DA603B685B6803221340022B23D17B69EA
:1029D000DA087B6808329200D3583B617B69072292
:1029E00013409B000F229A401300DA433B691340C7
:1029F0003B613B681A697B6907210B409B009A4049
:102A000013003A6913433B617B69DA087B6808323B
:102A100092003969D1507B681B683B617B695B0020
:102A200003229A401300DA433B6913403B613B6841
:102A30005B6803221A407B695B009A4013003A6985
:102A400013433B617B683A691A603B685A68C0234C
:102A50009B02134000D19AE0544B5A6B534B012117
:102A60000A435A63524A7B699B0802339B009B5876
:102A70003B617B69032213409B000F229A401300A5
:102A8000DA433B6913403B617A68A023DB059A4235
:102A900019D07B68474A934213D07B68464A9342D9
:102AA0000DD07B68454A934207D07B68444A9342E5
:102AB00001D1052308E0062306E0032304E00223F6
:102AC00002E0012300E000237A6903210A4092001A
:102AD00093403A6913433B6135497B699B08023354
:102AE0009B003A695A50374B9B683B61FB68DA435D
:102AF0003B6913403B613B685A6880235B0313408A
:102B000003D03A69FB6813433B612E4B3A699A60E4
:102B10002C4BDB683B61FB68DA433B6913403B614C
:102B20003B685A6880239B03134003D03A69FB68D3
:102B300013433B61234B3A69DA60224B5B683B618C
:102B4000FB68DA433B6913403B613B685A6880236A
:102B50009B02134003D03A69FB6813433B61194B56
:102B60003A695A60174B1B683B61FB68DA433B6963
:102B700013403B613B685A6880235B02134003D0DB
:102B80003A69FB6813433B610E4B3A691A607B69F3
:102B900001337B613B681A687B69DA40131E00D001
:102BA000A8E6C046C046BD4606B080BD0010024043
:102BB000000001400004005000080050000C0050CC
:102BC000001C00500004014080B582B000AF786066
:102BD00008001100BB1C021C1A807B1C0A1C1A7006
:102BE0007B1C1B78002B04D0BB1C1A887B689A6165
:102BF00003E0BB1C1A887B689A62C046BD4602B0DF
:102C000080BD0000B0B58AB000AF78607B68002B53
:102C100002D1012300F0AFFBCF4BDB680C22134045
:102C20003B62CD4BDA6880235B021340FB617B681B
:102C30001B680122134000D17EE03B6A082B07D0BD
:102C40003B6A0C2B12D1FA6980235B029A420DD1A8
:102C5000C14B1A6880239B02134000D16BE07B6854
:102C60005B68002B67D1012300F085FB7B685A6805
:102C700080235B029A4207D1B74B1A68B64B80217A
:102C800049020A431A6027E07B685A68A023DB02E6
:102C90009A420ED1B04B1A68AF4B8021C9020A4349
:102CA0001A60AD4B1A68AC4B802149020A431A6086
:102CB00012E0A94B1A68A84BA8490A401A60A64B13
:102CC0001A6880235B021340FB60FB68A24B1A6802
:102CD000A14BA3490A401A607B685B68002B15D0A2
:102CE000FFF768FC0300BB6109E0FFF763FC02002B
:102CF000BB69D31A642B02D9032300F03CFB964B2B
:102D00001A6880239B021340EFD015E0FFF752FCB6
:102D10000300BB6108E0FFF74DFC0200BB69D31A5A
:102D2000642B01D9032326E38B4B1A6880239B0273
:102D30001340F0D100E0C0467B681B6802221340BC
:102D400000D18BE07B68DB687B613B6A042B05D09C
:102D50003B6A0C2B3ED1FB69002B3BD17E4B1B68A1
:102D60000422134004D07B69002B01D1012302E32C
:102D7000794B5B687B4A134019007B681B691A0218
:102D8000754B0A435A60744B1B6809229343190020
:102D9000714B7A690A431A6000F040FC01006E4BE7
:102DA000DB681B090F2213406F4AD35C0A00DA402C
:102DB0006E4B1A606E4B1B6813257C191800FFF7C9
:102DC000B3FB030023707B191B78002B46D07B19C3
:102DD0001B78D0E27B69002B27D05F4B1B68092250
:102DE000934319005C4B7A690A431A60FFF7E2FBD0
:102DF0000300BB6108E0FFF7DDFB0200BB69D31AEB
:102E0000022B01D90323B6E2534B1B680422134063
:102E1000F1D0514B5B68534A134019007B681B6922
:102E20001A024D4B0A435A6018E04B4B1A684A4B42
:102E300001218A431A60FFF7BDFB0300BB6108E074
:102E4000FFF7B8FB0200BB69D31A022B01D9032399
:102E500091E2414B1B6804221340F1D17B681B684F
:102E60001022134000D1A1E03B6A002B40D13A4B25
:102E70001A6880239B00134005D07B68DB69002B18
:102E800001D1012377E2344B5B683A4A13401900C1
:102E90007B685A6A304B0A435A602F4B5B681B02AF
:102EA000190A7B681B6A1A062B4B0A435A607B6817
:102EB0005B6A5B0B0133802212029A40264BDB686F
:102EC0001B090F210B402849CB5CDA40274B1A60C5
:102ED000274B1B6813257C191800FFF725FB0300FF
:102EE00023707B191B78002B60D07B191B7842E282
:102EF0007B68DB69002B3FD0174B1A68164B80218B
:102F000049000A431A60FFF755FB0300BB6108E064
:102F1000FFF750FB0200BB69D31A022B01D9032330
:102F200029E20D4B1A6880239B001340F0D00A4B16
:102F30005B68104A134019007B685A6A064B0A43C3
:102F40005A60054B5B681B02190A7B681B6A1A06EC
:102F5000014B0A435A6029E000100240FFFFFEFFC8
:102F6000FFFFFBFFFFE0FFFF246B000810000020C5
:102F700014000020FF1FFFFFBD4B1A68BC4BBD496A
:102F80000A401A60FFF716FB0300BB6108E0FFF779
:102F900011FB0200BB69D31A022B01D90323EAE11A
:102FA000B34B1A6880239B001340F0D17B681B68E9
:102FB0000822134036D07B685B69002B19D0AC4BDC
:102FC0001A6DAB4B01210A431A65FFF7F3FA0300B0
:102FD000BB6108E0FFF7EEFA0200BB69D31A022BCF
:102FE00001D90323C7E1A24B1B6D02221340F1D08C
:102FF00018E09F4B1A6D9E4B01218A431A65FFF71B
:10300000D9FA0300BB6108E0FFF7D4FA0200BB69FC
:10301000D31A022B01D90323ADE1954B1B6D02227C
:103020001340F1D17B681B680422134000D1AEE04D
:1030300027203B1800221A708D4B9A6B80235B056A
:10304000134009D18A4B9A6B894B802149050A4369
:103050009A633B1801221A70874B1A6880235B0021
:1030600013401AD1844B1A68834B802149000A43CC
:103070001A60FFF79FFA0300BB6108E0FFF79AFAB6
:103080000200BB69D31A642B01D9032373E17A4B85
:103090001A6880235B001340F0D07B689A68802315
:1030A0005B009A4207D1724B1A6D714B8021490027
:1030B0000A431A6531E07B689B68002B0CD16C4B8E
:1030C0001A6D6B4B6B490A401A65694B1A6D684B58
:1030D0006A490A401A6520E07B689A68A023DB00F1
:1030E0009A420ED1624B1A6D614B8021C9000A438E
:1030F0001A655F4B1A6D5E4B802149000A431A65C1
:103100000BE05B4B1A6D5A4B5A490A401A65584BF3
:103110001A6D574B59490A401A657B689B68002B0A
:1031200015D0FFF747FA0300BB6109E0FFF742FA49
:103130000200BB69D31A524A934201D903231AE110
:103140004B4B1A6D80239B001340EFD014E0FFF728
:1031500031FA0300BB6109E0FFF72CFA0200BB69FA
:10316000D31A474A934201D9032304E1404B1A6D15
:1031700080239B001340EFD12723FB181B78012BE2
:1031800005D13B4B9A6B3A4B3E490A409A637B68A8
:103190001B682022134049D07B689B69002B26D0F6
:1031A000334B9A68324B01210A439A60304B5A6B79
:1031B0002F4B01210A435A63334B1A6A324B802149
:1031C00089010A431A62FFF7F5F90300BB6108E0C1
:1031D000FFF7F0F90200BB69D31A022B01D90323D0
:1031E000C9E0234B9B6802221340F1D01EE0204B24
:1031F0009A681F4B01218A439A60234B1A6A224B1B
:1032000022490A401A62FFF7D5F90300BB6108E0C2
:10321000FFF7D0F90200BB69D31A022B01D90323AF
:10322000A9E0134B9B6802221340F1D17B689B6A93
:10323000002B00D19EE03B6A0C2B00D177E07B682D
:103240009B6A022B58D10A4B1A68094B10490A4055
:103250001A60FFF7AFF90300BB611BE0FFF7AAF9A3
:103260000200BB69D31A022B14D9032383E0C046A2
:1032700000100240FFFEFFFF00700040FFFBFFFF59
:1032800088130000FFFFFFEF00000140FFDFFFFF9A
:10329000FFFFFFFE3A4B1A6880239B041340DDD1E9
:1032A000374BDB68374A134019007B68DA6A7B6862
:1032B0001B6B1A437B685B6B1A43314B0A43DA6022
:1032C0002F4B1A682E4B802149040A431A60FFF7DE
:1032D00071F90300BB6108E0FFF76CF90200BB69FC
:1032E000D31A022B01D9032345E0254B1A6880230A
:1032F0009B041340F0D03DE0214B1A68204B22493B
:103300000A401A60FFF756F90300BB6108E0FFF7B7
:1033100051F90200BB69D31A022B01D903232AE019
:10332000174B1A6880239B041340F0D122E07B687E
:103330009B6A012B01D101231DE0114BDB68FB616E
:10334000FA6980235B021A407B68DB6A9A420FD1DC
:10335000FA69F0239B031A407B681B6B9A4207D1E2
:10336000FA69C0231B041A407B685B6B9A4201D048
:10337000012300E000231800BD460AB0B0BDC046DE
:1033800000100240FFFF02FFFFFFFFFEB0B584B058
:1033900000AF786039607B68002B01D1012328E100
:1033A000964B1B68012213403A689A421ED9934BF0
:1033B0001B68012293431900904B3A680A431A6034
:1033C000FFF7F8F80300FB6009E0FFF7F3F80200ED
:1033D000FB68D31A8A4A934201D9032309E1874B38
:1033E0001B68012213403A689A42EED17B681B6841
:1033F0000222134009D0834BDB68F022934319006B
:103400007B689A687F4B0A43DA607B681B680122FD
:10341000134000D189E07B685B68022B07D1794BB0
:103420001A6880239B02134020D10123E1E07B68CE
:103430005B68032B07D1734B1A6880239B041340EE
:1034400014D10123D5E07B685B68012B06D16D4B5D
:103450001B680422134009D10123CAE0694B1A6892
:1034600080239B00134001D10123C2E0654BDB6840
:103470000322934319007B685A68624B0A43DA605F
:10348000FFF798F80300FB607B685B68022B11D1A3
:1034900009E0FFF78FF80200FB68D31A584A9342FD
:1034A00001D90323A5E0574BDB680C221340082BFE
:1034B000EFD13AE07B685B68032B11D109E0FFF79D
:1034C00079F80200FB68D31A4D4A934201D90323CD
:1034D0008FE04C4BDB680C2213400C2BEFD124E027
:1034E0007B685B68012B1BD109E0FFF763F80200E2
:1034F000FB68D31A424A934201D9032379E0414B36
:10350000DB680C221340042BEFD10EE0FFF752F8DA
:103510000200FB68D31A3A4A934201D9032368E0B8
:10352000384BDB680C221340F0D1344B1B6801226E
:1035300013403A689A421ED2304B1B6801229343D3
:1035400019002E4B3A680A431A60FFF733F803005C
:10355000FB6009E0FFF72EF80200FB68D31A284A47
:10356000934201D9032344E0244B1B6801221340FA
:103570003A689A42EED17B681B680422134009D056
:10358000204BDB68204A134019007B68DA681D4B2A
:103590000A43DA607B681B68082213400AD0194B83
:1035A000DB681A4A134019007B681B69DA00154B67
:1035B0000A43DA6000F032F80100124BDB681B09A5
:1035C0000F221340124AD35C0A00DA40114B1A60F2
:1035D000114B1B680B257C191800FEF7A5FF030093
:1035E00023707B191B78002B02D07B191B7800E01D
:1035F00000231800BD4604B0B0BDC0460020024004
:103600008813000000100240FFF8FFFFFFC7FFFF14
:10361000246B00081000002014000020B0B58EB00C
:1036200000AF4C4BDB68FB62FA6A0C2313400C2B97
:1036300014D000D97BE0042B02D0082B0BD076E00D
:10364000444B1B681022134002D0434B3B637CE089
:10365000424B3B6379E0424B3B6376E0FB6A9A0C5A
:103660000F231A403F4B9B5CBB62FB6A9A0D0323FE
:10367000134001337B62374BDA6880235B021340CF
:103680001AD0BB6ABB610023FB61354A0023B869CD
:10369000F969FCF71FFE02000B00100019007B6A9D
:1036A0003B6100237B613A697B69FCF7F3FD020013
:1036B0000B0013007B6337E0264B1B68102213407E
:1036C0001AD0BB6ABB600023FB60234A0023B868A2
:1036D000F968FCF7FFFD02000B00100019007B6A7F
:1036E0003B6000237B603A687B68FCF7D3FD0200F7
:1036F0000B0013007B6317E0BB6A1800002319005E
:10370000164A0023FCF7E6FD02000B00100019002A
:103710007B6A1C0000231D0022002B00FCF7BAFD71
:1037200002000B0013007B637B6B3B630DE0094BD6
:103730005B685B0B072213403B623B6A01338022CC
:1037400012029A4013003B63C0463B6B1800BD4613
:103750000EB0B0BD0010024000093D000024F4008E
:1037600000127A003C6B000880B500AF024B1B686A
:103770001800BD4680BDC0461000002080B500AFD7
:10378000FFF7F2FF0100064BDB681B0A072213401C
:10379000044AD35CD9400B001800BD4680BDC0462A
:1037A00000100240346B000880B500AFFFF7DCFF6B
:1037B0000100064BDB68DB0A07221340044AD35C96
:1037C000D9400B001800BD4680BDC0460010024025
:1037D000346B000880B586B000AF786017203B18C6
:1037E00000221A707B681B682022134000D1C7E0BA
:1037F000934B9A6B80235B05134009D1904B9A6BD6
:103800008F4B802149050A439A633B1801221A70A5
:103810008C4B1A6880235B0013401AD1894B1A68BD
:10382000884B802149000A431A60FEF7C3FE03005B
:103830003B6108E0FEF7BEFE02003B69D31A642B31
:1038400001D90323F7E07F4B1A6880235B00134004
:10385000F0D07B4B1A68C0239B031340FB607B684E
:103860005A68C0239B031340FA689A4213D07B68BE
:103870005A68C0239B021A40C0239B029A420AD175
:103880006F4B1A6880239B021A4080239B029A4246
:1038900001D10123CFE06A4B1A6DC0239B02134074
:1038A000FB60FB68002B3BD07B685A68C0239B02FF
:1038B0001340FA689A4233D07B681B682022134079
:1038C0002ED05F4B1B6D604A1340FB605C4B1A6D42
:1038D0005B4B802109030A431A65594B1A6D584BFB
:1038E0005A490A401A65564BFA681A65FA688023E5
:1038F0005B00134014D0FEF75DFE03003B6109E05E
:10390000FEF758FE02003B69D31A514A934201D98F
:10391000032390E04A4B1A6D80239B001340EFD0A5
:103920007B681B68202213401FD07B685A68C02325
:103930009B021A40C0239B029A420CD1404B1B6849
:10394000444A134019007B685A68C0239B031A40FD
:103950003B4B0A431A603A4B196D7B685A68C02387
:103960009B021A40364B0A431A651723FB181B7833
:10397000012B05D1324B9A6B314B37490A409A6380
:103980007B681B680122134009D02D4BDB6C03229E
:10399000934319007B689A68294B0A43DA647B6871
:1039A0001B680222134009D0254BDB6C0C22934389
:1039B00019007B68DA68224B0A43DA647B681B686B
:1039C0000422134009D01E4BDB6C244A134019001B
:1039D0007B681A691A4B0A43DA647B681B68082201
:1039E000134009D0164BDB6C1D4A134019007B684D
:1039F0005A69134B0A43DA647B681B684022134000
:103A000009D00F4BDB6C174A134019007B68DA6949
:103A10000B4B0A43DA647B681B688022134009D091
:103A2000074BDB6C104A134019007B689A69044B02
:103A30000A43DA6400231800BD4606B080BDC046C4
:103A40000010024000700040FFFFFCFFFFFFF7FF87
:103A500088130000FFFFCFFFFFFFFFEFFFF3FFFF23
:103A6000FFCFFFFFFFFFFFFBFFFFF3FF80B582B03B
:103A700000AF78607B68002B01D1012383E07B6875
:103A80005B6A002B09D17B685A6882235B009A42EB
:103A900009D07B680022DA6105E07B6800221A61A8
:103AA0007B6800225A617B6800229A627B685122FF
:103AB0009B5CDBB2002B07D17B685022002199541C
:103AC0007B681800FEF734FC7B6851220221995470
:103AD0007B681B681A687B681B6840218A431A60F0
:103AE0007B685A6882235B001A407B68996884234C
:103AF0001B020B401A437B68D96880231B010B40D3
:103B00001A437B681B6902210B401A437B685B697F
:103B100001210B401A437B68996980239B000B406D
:103B20001A437B68DB6938210B401A437B681B6AA8
:103B300080210B401A4311007B689A6A80239B0105
:103B40001A407B681B680A431A607B689B691B0CE0
:103B50000422134019007B685B6A10221A407B68BC
:103B60001B680A435A607B681B68DA697B681B68BC
:103B700007490A40DA617B6800225A657B68512256
:103B80000121995400231800BD4602B080BDC046F3
:103B9000FFF7FFFF80B588B000AFF860B9603B6009
:103BA000BB1D1A801F23FB1800221A70FB685022CD
:103BB0009B5C012B01D1022345E1FB6850220121CE
:103BC0009954FEF7F7FC0300BB611623FB18BA1DDE
:103BD00012881A80FB6851229B5CDBB2012B04D057
:103BE0001F23FB1802221A7026E1BB68002B03D0AA
:103BF000BB1D1B88002B04D11F23FB1801221A7048
:103C00001AE1FB68512203219954FB6800225A658E
:103C1000FB68BA681A63FB68BA1D12889A86FB684B
:103C2000BA1D1288DA86FB6800229A63FB680022BC
:103C30009A87FB680022DA87FB6800225A64FB68D7
:103C400000221A64FB689A6880231B029A4210D1F2
:103C5000FB681B681A68FB681B6840218A431A606E
:103C6000FB681B681A68FB681B688021C9010A434E
:103C70001A60FB681B681B6840221340402B07D06A
:103C8000FB681B681A68FB681B6840210A431A60BE
:103C9000FB68DA6880231B019A4252D1FB685B689B
:103CA000002B04D01623FB181B88012B43D1FB6883
:103CB0001B6B1A88FB681B68DA60FB681B6B9A1C1D
:103CC000FB681A63FB68DB8E9BB2013B9AB2FB6810
:103CD000DA8630E0FB681B689B6802221340022BE7
:103CE00012D1FB681B6B1A88FB681B68DA60FB68E3
:103CF0001B6B9A1CFB681A63FB68DB8E9BB2013B53
:103D00009AB2FB68DA8616E0FEF754FC0200BB6943
:103D1000D31A3A689A4202D83B68013302D13B6811
:103D2000002B08D11F23FB1803221A70FB685122B5
:103D30000121995480E0FB68DB8E9BB2002BC9D136
:103D400053E0FB685B68002B04D01623FB181B882C
:103D5000012B45D1FB681A6BFB681B680C3312788A
:103D60001A70FB681B6B5A1CFB681A63FB68DB8EBE
:103D70009BB2013B9AB2FB68DA8631E0FB681B68B4
:103D80009B6802221340022B13D1FB681A6BFB685D
:103D90001B680C3312781A70FB681B6B5A1CFB688B
:103DA0001A63FB68DB8E9BB2013B9AB2FB68DA8632
:103DB00016E0FEF7FFFB0200BB69D31A3A689A428D
:103DC00002D83B68013302D13B68002B08D11F2386
:103DD000FB1803221A70FB685122012199542BE031
:103DE000FB68DB8E9BB2002BC8D1BA693968FB68CF
:103DF000180000F0BBF8031E02D0FB6820225A65B1
:103E0000FB689B68002B0AD100233B61FB681B68A1
:103E1000DB683B61FB681B689B683B613B69FB6837
:103E20005B6D002B04D01F23FB1801221A7003E0E6
:103E3000FB68512201219954FB68502200219954BA
:103E40001F23FB181B781800BD4608B080BD00007A
:103E500080B588B000AFF860B9603B60FB1D1A7098
:103E6000FEF7A8FB0200BB6A9B1A3A68D318FB61F5
:103E7000FEF7A0FB0300BB613A4B1B685B011B0D07
:103E8000FA6953437B6158E03B68013355D0FEF734
:103E900091FB0200BB69D31AFA699A4202D9FB6905
:103EA000002B42D1FB681B685A68FB681B68E02145
:103EB0008A435A60FB685A6882235B009A4213D196
:103EC000FB689A6880231B029A4205D0FB689A68B7
:103ED0008023DB009A4207D1FB681B681A68FB68E5
:103EE0001B6840218A431A60FB689A6A80239B0101
:103EF0009A4210D1FB681B681A68FB681B681A4954
:103F00000A401A60FB681B681A68FB681B688021FE
:103F100089010A431A60FB68512201219954FB6808
:103F2000502200219954032317E07B69002B01D113
:103F30000023FB617B69013B7B61FB681B689B681D
:103F4000BA681340BA68D31A5A425341DBB21A0016
:103F5000FB1D1B789A4297D100231800BD4608B07C
:103F600080BDC04610000020FFDFFFFF80B588B095
:103F700002AFF860B9607A601D4B1B681D491800DC
:103F8000FCF7C2F803001A0013005B019B1A9B00A8
:103F90009B18DB007B61FB685A6882235B009A42B6
:103FA00012D1BA68F8687B68009313000022802160
:103FB000FFF74EFF031E16D0FB685B6D20221A43ED
:103FC000FB685A6503230FE07B69002B0AD07B69ED
:103FD000013B7B61FB681B689B6880221340802B40
:103FE000F2D000E0C04600231800BD4606B080BDF8
:103FF0001000002000366E0180B582B000AF7860FE
:104000007B68002B01D1012344E07B68DB6F002B30
:1040100007D17B687822002199547B681800FEF74D
:10402000CBF97B682422DA677B681B681A687B6897
:104030001B6801218A431A607B68180000F012FD9A
:104040000300012B01D1012324E07B685B6A002B74
:1040500003D07B68180000F089FF7B681B685A68F2
:104060007B681B680D490A405A607B681B689A6828
:104070007B681B682A218A439A607B681B681A68E0
:104080007B681B6801210A431A607B68180001F0F5
:1040900021F803001800BD4602B080BDFFB7FFFF46
:1040A00080B58AB002AFF860B9603B60BB1D1A8072
:1040B000FB68DB6F202B00D08CE0BB68002B03D0AB
:1040C000BB1D1B88002B01D1012384E0FB689A688B
:1040D00080235B019A4209D1FB681B69002B05D143
:1040E000BB680122134001D0012374E0FB688422E5
:1040F00000219950FB682122DA67FEF75BFA030082
:104100007B61FB68BA1D502112885A52FB68BA1DA8
:10411000522112885A52FB689A6880235B019A42A6
:1041200008D1FB681B69002B04D10023FB61BB682D
:10413000BB6103E0BB68FB610023BB612FE07A69D0
:10414000F8683B68009313000022802101F06AF8B0
:10415000031E04D0FB682022DA6703233BE0FB69DF
:10416000002B0BD1BB691B881A00FB681B68D205AA
:10417000D20D9A62BB690233BB6107E0FB691A7812
:10418000FB681B689A62FB690133FB61FB68522282
:104190009B5A9BB2013B99B2FB6852229952FB6831
:1041A00052229B5A9BB2002BC9D17A69F8683B68AE
:1041B000009313000022402101F034F8031E04D0C4
:1041C000FB682022DA67032305E0FB682022DA6718
:1041D000002300E002231800BD4608B080BD0000A7
:1041E00080B58AB002AFF860B9603B60BB1D1A8031
:1041F000FB6880229B58202B00D0D0E0BB68002BAE
:1042000003D0BB1D1B88002B01D10123C8E0FB6834
:104210009A6880235B019A4209D1FB681B69002BD5
:1042200005D1BB680122134001D00123B8E0FB682F
:10423000842200219950FB68802222219950FB683A
:1042400000221A66FEF7B6F903007B61FB68BA1D0F
:10425000582112885A52FB68BA1D5A2112885A52A4
:10426000FB689A6880235B019A420DD1FB681B6949
:10427000002B04D1FB685C224B4999522EE0FB686D
:104280005C22FF21995229E0FB689B68002B0DD12D
:10429000FB681B69002B04D1FB685C22FF2199524B
:1042A0001CE0FB685C227F21995217E0FB689A684A
:1042B00080235B059A420DD1FB681B69002B04D15A
:1042C000FB685C227F21995208E0FB685C223F2159
:1042D000995203E0FB685C22002199521223FB18DB
:1042E000FA685C21525A1A80FB689A6880235B0145
:1042F0009A4208D1FB681B69002B04D10023FB61A3
:10430000BB68BB6103E0BB68FB610023BB613AE0B3
:104310007A69F8683B68009313000022202100F0BE
:1043200081FF031E05D0FB688022202199500323C2
:1043300036E0FB69002B0ED1FB681B685B6A9BB201
:104340001222BA18128813409AB2BB691A80BB694C
:104350000233BB610EE0FB681B685B6ADBB21222B2
:10436000BA181288D2B21340DAB2FB691A70FB692C
:104370000133FB61FB685A229B5A9BB2013B99B205
:10438000FB685A229952FB685A229B5A9BB2002B17
:10439000BED1FB68802220219950002300E0022337
:1043A0001800BD4608B080BDFF01000080B588B090
:1043B00000AFF860B960BB1D1A80FB6880229B5873
:1043C000202B4AD1BB68002B03D0BB1D1B88002BC0
:1043D00001D1012342E0FB689A6880235B019A4285
:1043E00009D1FB681B69002B05D1BB680122134072
:1043F00001D0012332E0FB6800221A66FB681B68CB
:10440000184A934220D0FB681B685A6880231B041B
:10441000134019D0EFF310833B613B69FB6101232B
:104420007B617B6983F31088C046FB681B681A6850
:10443000FB681B688021C9040A431A60FB69BB61E1
:10444000BB6983F31088C046BB1D1A88B968FB6836
:10445000180000F051FF030000E002231800BD46E1
:1044600008B080BD0048004090B5ABB000AF7860A8
:104470007B681B68DB69A422B9180B607B681B682A
:104480001B68A02039180B607B681B689B689C2107
:1044900079180B601100BB181B68994A13409822C9
:1044A000BC182360BB181B68002B14D17B181B6839
:1044B000202213400FD03B181B68202213400AD043
:1044C0007B689B6E002B00D1A0E27B689B6E7A68B4
:1044D000100098479AE29823FB181B68002B00D124
:1044E00014E19C23FB181B680122134006D1A02372
:1044F000FB181B68834A134000D107E1A423FB1873
:104500001B680122134012D0A023FB181A688023D5
:104510005B0013400BD07B681B6801221A627B682A
:1045200084229B5801221A437B6884215A50A42379
:10453000FB181B680222134011D09C23FB181B6838
:10454000012213400BD07B681B6802221A627B6831
:1045500084229B5804221A437B6884215A50A42346
:10456000FB181B680422134011D09C23FB181B6806
:10457000012213400BD07B681B6804221A627B68FF
:1045800084229B5802221A437B6884215A50A42318
:10459000FB181B680822134017D0A023FB181B68C8
:1045A0002022134005D19C23FB181B6801221340D5
:1045B0000BD07B681B6808221A627B6884229B5898
:1045C00008221A437B6884215A50A423FB181A68D6
:1045D00080231B01134013D0A023FB181A688023EB
:1045E000DB0413400CD07B681B68802212011A6226
:1045F0007B6884229B5820221A437B6884215A506E
:104600007B6884229B58002B00D101E2A423FB1875
:104610001B68202213400ED0A023FB181B68202209
:10462000134008D07B689B6E002B04D07B689B6E88
:104630007A68100098477B6884229B5894217A18E6
:1046400013607B681B689B6840221340402B04D09A
:104650007B181B682822134047D07B68180000F0A5
:1046600015FF7B681B689B6840221340402B37D1A5
:10467000EFF310833B663B6E90203A1813600123E2
:104680007B667B6E83F31088C0467B681B689A68E4
:104690007B681B6840218A439A603B181B68BB6695
:1046A000BB6E83F31088C0467B685B6F002B12D013
:1046B0007B685B6F144A9A637B685B6F1800FEF738
:1046C000C5F8031E1AD07B685B6F9A6B7B685B6FC3
:1046D0001800904712E07B68180000F0AFF90DE079
:1046E0007B68180000F0AAF908E07B68180000F069
:1046F000A5F97B6884220021995089E1C04687E1B1
:104700000F08000020010004555500087B681B6E4F
:10471000012B00D03BE1A423FB181B68102213409F
:1047200000D134E1A023FB181B681022134000D1F4
:104730002DE17B681B6810221A627B681B689B68EE
:1047400040221340402B00D0A1E07B685B6F1B68C8
:104750005A687E217B181A807B181B88002B00D199
:1047600058E17B6858229B5A7A1812889A4200D3E3
:1047700050E17B687A185A2112885A527B685B6F25
:104780001B681B68202213406FD1EFF310833B633B
:104790003B6BBB6701237B637B6B83F31088C04655
:1047A0007B681B681A687B681B689E490A401A6010
:1047B000BB6FBB63BB6B83F31088C046EFF3108302
:1047C000FB63FB6B7B6701233B643B6C83F31088CB
:1047D000C0467B681B689A687B681B6801218A4316
:1047E0009A607B6F7B647B6C83F31088C046EFF329
:1047F0001083BB64BB6C3B670123FB64FB6C83F3DE
:104800001088C0467B681B689A687B681B684021DB
:104810008A439A603B6F3B653B6D83F31088C046CB
:104820007B688022202199507B6800221A66EFF372
:1048300010837B657B6DFB660123BB65BB6D83F3DA
:104840001088C0467B681B681A687B681B6810214B
:104850008A431A60FB6EFB65FB6D83F31088C046CC
:104860007B685B6F1800FDF7B1FF7B6802225A6618
:104870007B6858229A5A7B685A215B5A9BB2D31A9A
:104880009AB27B681100180000F0E0F8C2E07B6883
:104890005822995A7B685A229B5A9AB28E203B180A
:1048A0008A1A1A807B685A229B5A9BB2002B00D12D
:1048B000B2E03B181B88002B00D1ADE0EFF3108372
:1048C000FB60FB6888243A19136001233B613B6954
:1048D00083F31088C0467B681B681A687B681B6876
:1048E00051490A401A603B191B687B617B6983F35D
:1048F0001088C046EFF31083BB61BB6984243A196A
:1049000013600123FB61FB6983F31088C0467B6859
:104910001B689A687B681B6801218A439A603B196F
:104920001B683B623B6A83F31088C0467B68802229
:10493000202199507B6800221A667B6800229A66C3
:10494000EFF310837B627B6A80243A1913600123A2
:10495000BB62BB6A83F31088C0467B681B681A6819
:104960007B681B6810218A431A603B191B68FB6235
:10497000FB6A83F31088C0467B6802225A663B18A4
:104980001A887B681100180000F060F844E0A42346
:10499000FB181A6880235B03134010D09C23FB187C
:1049A0001A688023DB03134009D07B681B688022D0
:1049B00052031A627B68180000F0D2FF2FE0A42394
:1049C000FB181B68802213400FD0A023FB181B6824
:1049D0008022134009D07B68DB6E002B1ED07B68E1
:1049E000DB6E7A681000984718E0A423FB181B6858
:1049F0004022134013D0A023FB181B684022134011
:104A00000DD07B68180000F0BCFD08E0C04606E051
:104A1000C04604E0C04602E0C04600E0C046BD46D5
:104A20002BB090BDFFFEFFFFDFFEFFFF80B582B021
:104A300000AF7860C046BD4602B080BD80B582B090
:104A400000AF7860C046BD4602B080BD80B582B080
:104A500000AF78600A00BB1C1A80C046BD4602B099
:104A600080BD0000B0B58EB000AFF8611A231822E7
:104A70009B18DB1900221A70FB699A68FB691B6995
:104A80001A43FB695B691A43FB69DB6913437B6368
:104A9000FB691B681B68C64A13401900FB691B6849
:104AA0007A6B0A431A60FB691B685B68C14A134052
:104AB0001900FB69DA68FB691B680A435A60FB69E5
:104AC0009B697B63FB691B68BB4A934204D0FB690B
:104AD0001B6A7A6B13437B63FB691B689B68B74A4D
:104AE00013401900FB691B687A6B0A439A60FB69E3
:104AF0001B68B34A934231D1B24BDB6C03221340A3
:104B0000032B1DD023D8022B0CD020D8002B02D091
:104B1000012B0ED01BE01B2318229B18DB1901224E
:104B20001A709CE01B2318229B18DB1902221A70B2
:104B300095E01B2318229B18DB1904221A708EE0C3
:104B40001B2318229B18DB1908221A7087E01B23ED
:104B500018229B18DB1910221A7080E0FB691B6871
:104B6000994A934231D1974BDB6C0C2213400C2BAA
:104B70001DD023D8082B0CD020D8002B02D0042B1A
:104B80000ED01BE01B2318229B18DB1900221A7081
:104B900065E01B2318229B18DB1902221A705EE0C5
:104BA0001B2318229B18DB1904221A7057E01B23C1
:104BB00018229B18DB1908221A7050E01B231822B8
:104BC0009B18DB1910221A7049E0FB691B687A4AAE
:104BD00093423ED17B4BDA6CC0231B011340C022B1
:104BE0001201934227D0C022120193422AD8802278
:104BF0001201934211D080221201934222D8002B3D
:104C000004D08022D20093420ED01BE01B23182236
:104C10009B18DB1900221A7021E01B2318229B1815
:104C2000DB1902221A701AE01B2318229B18DB19C9
:104C300004221A7013E01B2318229B18DB19082288
:104C40001A700CE01B2318229B18DB1910221A7013
:104C500005E01B2318229B18DB1910221A70FB6930
:104C60001B68554A934200D084E01B2318229B18EE
:104C7000DB191B78082B1DD020DC042B15D01DDC84
:104C8000002B02D0022B05D018E0FEF777FD0300C1
:104C9000FB621CE04B4B1B681022134002D04B4BB5
:104CA000FB6214E04A4BFB6211E0FEF7B7FC030025
:104CB000FB620CE080231B02FB6208E00023FB6226
:104CC0001A2318229B18DB1901221A70C046FB6AAE
:104CD000002B00D132E1FB695A6813005B009B187E
:104CE000FA6A9A4205D3FB695B681B03FA6A9A4227
:104CF00006D91A2318229B18DB1901221A701DE10C
:104D0000FB6A3B6100237B6139697A690B001B0EEA
:104D1000100005021D430B001C02FB695B685B0869
:104D2000BB600023FB60B868F96800196941FB6942
:104D30005B683B6000237B603A687B68FBF7AAFAFC
:104D400002000B001300BB62BA6AC0239B009A42A8
:104D500009D3BA6A80235B039A4204D2FB691B68B9
:104D6000BA6ADA60EAE01A2318229B18DB190122DA
:104D70001A70E3E0FB69DA6980231B029A4200D0D3
:104D800085E01B2318229B18DB191B78082B37D8CA
:104D90009A00104BD3181B689F46FEF7EFFC0300E8
:104DA000FB6236E0FEF700FD0300FB6231E0C04627
:104DB000F369FFEFFFCFFFFF00480040FFF4FFFF64
:104DC00000380140001002400044004000093D004E
:104DD0000024F400486B0008604B1B68102213404D
:104DE00002D05F4BFB6214E05E4BFB6211E0FEF70A
:104DF00015FC0300FB620CE080231B02FB6208E051
:104E00000023FB621A2318229B18DB1901221A7057
:104E1000C046FB6A002B00D190E0FB6A5A00FB6998
:104E20005B685B08D218FB695B6819001000FBF730
:104E30006BF90300BB62BB6A0F2B21D9BA6A8023CE
:104E40005B029A421CD2BB6A9AB20E201824031944
:104E5000DB190F218A431A80BB6A5B089BB20722C9
:104E6000134099B20319DB190219D21912880A43A7
:104E70001A80FB691B680219D2191288DA605DE09A
:104E80001A2318229B18DB1901221A7056E01B23E3
:104E900018229B18DB191B78082B22D89A00324B5A
:104EA000D3181B689F46FEF769FC0300FB6221E0F4
:104EB000FEF77AFC0300FB621CE0284B1B68102203
:104EC000134002D0264BFB6214E0264BFB6211E03C
:104ED000FEF7A4FB0300FB620CE080231B02FB62D5
:104EE00008E00023FB621A2318229B18DB19012219
:104EF0001A70C046FB6A002B20D0FB695B685A0819
:104F0000FB6AD218FB695B6819001000FBF7FCF81C
:104F10000300BB62BB6A0F2B0AD9BA6A80235B020B
:104F20009A4205D2BB6A9AB2FB691B68DA6005E057
:104F30001A2318229B18DB1901221A70FB69002220
:104F40009A66FB690022DA661A2318229B18DB197D
:104F50001B781800BD460EB0B0BDC0460010024020
:104F600000093D000024F4006C6B000880B582B09D
:104F700000AF78607B685B6A012213400BD07B68CE
:104F80001B685B684A4A134019007B689A6A7B6811
:104F90001B680A435A607B685B6A022213400BD08D
:104FA0007B681B685B68434A134019007B68DA6AB8
:104FB0007B681B680A435A607B685B6A0422134063
:104FC0000BD07B681B685B683B4A134019007B6809
:104FD0001A6B7B681B680A435A607B685B6A08220D
:104FE00013400BD07B681B685B68344A1340190080
:104FF0007B685A6B7B681B680A435A607B685B6AF4
:10500000102213400BD07B681B689B682C4A13400E
:1050100019007B689A6B7B681B680A439A607B68FF
:105020005B6A202213400BD07B681B689B68254A73
:10503000134019007B68DA6B7B681B680A439A602F
:105040007B685B6A402213401DD07B681B685B68ED
:105050001D4A134019007B681A6C7B681B680A4361
:105060005A607B681A6C80235B039A420BD17B6881
:105070001B685B68154A134019007B685A6C7B6893
:105080001B680A435A607B685B6A802213400BD01E
:105090007B681B685B680E4A134019007B689A6C3A
:1050A0007B681B680A435A60C046BD4602B080BD9B
:1050B000FFFFFDFFFFFFFEFFFFFFFBFFFF7FFFFF87
:1050C000FFEFFFFFFFDFFFFFFFFFEFFFFFFF9FFF90
:1050D000FFFFF7FF80B592B002AF78607B68842253
:1050E00000219950FDF766FA0300FB637B681B689B
:1050F0001B6808221340082B2CD1FB6B80229103E4
:105100007868464A0092002200F08CF8031E21D0F5
:10511000EFF310837B627B6ABB630123BB62BB6AD4
:1051200083F31088C0467B681B681A687B681B681D
:1051300080218A431A60BB6BFB62FB6A83F3108891
:10514000C0467B682022DA677B6878220021995468
:1051500003235FE07B681B681B6804221340042B59
:1051600046D1FB6B8022D10378682C4A0092002242
:1051700000F058F8031E3BD0EFF31083FB60FB6890
:105180007B6301233B613B6983F31088C0467B68E6
:105190001B681A687B681B6821490A401A607B6B90
:1051A0007B617B6983F31088C046EFF31083BB619A
:1051B000BB693B630123FB61FB6983F31088C04635
:1051C0007B681B689A687B681B6801218A439A6028
:1051D0003B6B3B623B6A83F31088C0467B6880224E
:1051E000202199507B68782200219954032311E0F3
:1051F0007B682022DA677B688022202199507B68B7
:1052000000221A667B6800225A667B687822002199
:10521000995400231800BD4610B080BDFFFFFF0168
:10522000DFFEFFFF80B584B000AFF860B9603B607F
:10523000FB1D1A704BE0BB69013348D0FDF7BAF98A
:1052400002003B68D31ABA699A4202D3BB69002BA9
:1052500001D103234BE0FB681B681B680422134049
:1052600035D0FB681B68DB6908221340082B11D17D
:10527000FB681B6808221A62FB68180000F006F938
:10528000FB68842208219950FB68782200219954F8
:1052900001232CE0FB681B68DA6980231B011A409C
:1052A00080231B019A4212D1FB681B6880221201E5
:1052B0001A62FB68180000F0E9F8FB6884222021DC
:1052C0009950FB6878220021995403230FE0FB6872
:1052D0001B68DB69BA681340BA68D31A5A42534153
:1052E000DBB21A00FB1D1B789A42A4D000231800E1
:1052F000BD4604B080BD000080B590B000AFF8603E
:10530000B960BB1D1A80FB68BA685A65FB68BA1D94
:10531000582112885A52FB68BA1D5A2112885A52D3
:10532000FB6800229A66FB689A6880235B019A42B8
:105330000DD1FB681B69002B04D1FB685C2250492E
:1053400099522EE0FB685C22FF21995229E0FB680C
:105350009B68002B0DD1FB681B69002B04D1FB68F7
:105360005C22FF2199521CE0FB685C227F2199524C
:1053700017E0FB689A6880235B059A420DD1FB68B1
:105380001B69002B04D1FB685C227F21995208E045
:10539000FB685C223F21995203E0FB685C220021FC
:1053A0009952FB68842200219950FB6880222221B7
:1053B0009950EFF31083BB62BB6AFB630123FB626E
:1053C000FB6A83F31088C046FB681B689A68FB6819
:1053D0001B6801210A439A60FB6B3B633B6B83F3C1
:1053E0001088C046FB689A6880235B019A4207D107
:1053F000FB681B69002B03D1FB68224A9A6602E016
:10540000FB68214A9A66FB681B69002B19D0EFF3F1
:105410001083FB61FB697B6301233B623B6A83F37F
:105420001088C046FB681B681A68FB681B689021DF
:1054300049000A431A607B6B7B627B6A83F31088A6
:1054400018E0EFF310833B613B69BB6301237B6191
:105450007B6983F31088C046FB681B681A68FB6889
:105460001B6820210A431A60BB6BBB61BB6983F3D5
:105470001088C04600231800BD4610B080BDC0464D
:10548000FF0100009D570008D955000880B58EB077
:1054900000AF7860EFF310837B617B697B6301234E
:1054A000BB61BB6983F31088C0467B681B681A68C0
:1054B0007B681B6826490A401A607B6BFB61FB69AD
:1054C00083F31088C046EFF310833B623B6A3B6373
:1054D00001237B627B6A83F31088C0467B681B686C
:1054E0009A687B681B6801218A439A603B6BBB62A8
:1054F000BB6A83F31088C0467B681B6E012B18D1F2
:10550000EFF31083BB60BB68FB620123FB60FB68A9
:1055100083F31088C0467B681B681A687B681B6829
:1055200010218A431A60FB6A3B613B6983F3108850
:10553000C0467B688022202199507B6800221A6631
:105540007B6800229A66C046BD460EB080BDC0464C
:10555000DFFEFFFF80B584B000AF78607B689B6A98
:10556000FB60FB685A2200219952FB6852220021FD
:105570009952FB681800FFF761FAC046BD4604B0B7
:1055800080BD80B586B000AF7860EFF31083BB605C
:10559000BB687B610123FB60FB6883F31088C04616
:1055A0007B681B681A687B681B6840218A431A6005
:1055B0007B693B613B6983F31088C0467B6820228E
:1055C000DA677B680022DA667B681800FFF72EFA3C
:1055D000C046BD4606B080BD80B594B000AF7860CF
:1055E0004E203B187A685C21525A1A807B688022D0
:1055F0009B58222B00D0BFE07B681B685A6A4C2165
:105600007B181A807B181B88DAB23B181B88D9B22A
:105610007B685B6D0A40D2B21A707B685B6D5A1C66
:105620007B685A657B685A229B5A9BB2013B99B2B0
:105630007B685A2299527B685A229B5A9BB2002B54
:1056400000D0A1E0EFF310837B627B6ABB6401238F
:10565000BB62BB6A83F31088C0467B681B681A680C
:105660007B681B684A490A401A60BB6CFB62FB6A94
:1056700083F31088C046EFF310833B633B6B7B647E
:1056800001237B637B6B83F31088C0467B681B68B8
:105690009A687B681B6801218A439A607B6CBB63B4
:1056A000BB6B83F31088C0467B6880222021995011
:1056B0007B6800229A667B6800225A667B681B68BA
:1056C000344A93421FD07B681B685A6880231B04AE
:1056D000134018D0EFF31083BB61BB693B64012317
:1056E000FB61FB6983F31088C0467B681B681A68FE
:1056F0007B681B6828490A401A603B6C3B623B6A26
:1057000083F31088C0467B681B6E012B2FD17B680A
:1057100000221A66EFF31083FB60FB68FB63012332
:105720003B613B6983F31088C0467B681B681A683D
:105730007B681B6810218A431A60FB6B7B617B6965
:1057400083F31088C0467B681B68DB691022134016
:10575000102B03D17B681B6810221A627B685822C9
:105760009A5A7B6811001800FFF770F90CE07B680B
:105770001800FCF723F807E07B681B689A697B68D0
:105780001B6808210A439A61C046BD4614B080BD1B
:10579000DFFEFFFF00480040FFFFFFFB80B594B035
:1057A00000AF78604E203B187A685C21525A1A800C
:1057B0007B6880229B58222B00D0BFE07B681B684F
:1057C0005A6A4C217B181A807B685B6DBB647B181E
:1057D0003A181B88128813409AB2BB6C1A807B68F7
:1057E0005B6D9A1C7B685A657B685A229B5A9BB2F8
:1057F000013B99B27B685A2299527B685A229B5A84
:105800009BB2002B00D0A1E0EFF310833B623B6A18
:105810007B6401237B627B6A83F31088C0467B68CC
:105820001B681A687B681B684A490A401A607B6CCF
:10583000BB62BB6A83F31088C046EFF31083FB6240
:10584000FB6A3B6401233B633B6B83F31088C046D8
:105850007B681B689A687B681B6801218A439A6091
:105860003B6C7B637B6B83F31088C0467B68802234
:10587000202199507B6800229A667B6800225A6634
:105880007B681B68344A93421FD07B681B685A6848
:1058900080231B04134018D0EFF310837B617B69D6
:1058A000FB630123BB61BB6983F31088C0467B683F
:1058B0001B681A687B681B6828490A401A60FB6BE2
:1058C000FB61FB6983F31088C0467B681B6E012B6C
:1058D0002FD17B6800221A66EFF31083BB60BB6890
:1058E000BB630123FB60FB6883F31088C0467B68C1
:1058F0001B681A687B681B6810218A431A60BB6B9F
:105900003B613B6983F31088C0467B681B68DB6999
:1059100010221340102B03D17B681B6810221A62DF
:105920007B6858229A5A7B6811001800FFF78EF89E
:105930000CE07B681800FBF741FF07E07B681B6801
:105940009A697B681B6808210A439A61C046BD4674
:1059500014B080BDDFFEFFFF00480040FFFFFFFBEB
:1059600080B582B000AF7860C046BD4602B080BD51
:1059700070B500260C4D0D4C641BA410A64209D135
:10598000002600F021F80A4D0A4C641BA410A64220
:1059900005D170BDB300EB5898470136EEE7B30070
:1059A000EB5898470136F2E7986B0008986B0008AF
:1059B000986B00089C6B000803008218934200D18A
:1059C000704719700133F9E7F8B5C046F8BC08BC58
:1059D0009E467047F8B5C046F8BC08BC9E46704766
:1059E0002E0F13030800000000000000000000005C
:1059F00000000000000000000000000000000000A7
:105A00000000000000000000000000000000000096
:105A1000000002000000FE4700000000000000003F
:105A20000000000000000000000000000000000076
:105A30000000000000000000000000000000000066
:105A4000040000003E00000000003E0000000000D6
:105A50000000000000000000000000000000000046
:105A6000000000000000000000000000000008200E
:105A70000400207400F00F002E0400207400F00FCA
:105A8000002E0400200400000000000000000000C0
:105A900000000000000000000000000008000000FE
:105AA000781800C62000824000FFFF010241000676
:105AB00023000C1E00000000000000000000000099
:105AC000000000000000000000000B0000007C004F
:105AD000008200008240007C3800000700E00000E7
