:020000040800F2
:1000000000200020F9230008C9230008CD230008A0
:1000100000000000000000000000000000000000E0
:10002000000000000000000000000000D5230008D0
:100030000000000000000000D9230008DD230008B4
:1000400049240008492400084924000849240008DC
:1000500049240008492400084924000849240008CC
:1000600049240008492400084924000849240008BC
:100070004924000849240008000000004924000821
:1000800000000000492400080000000000000000FB
:100090004924000800000000492400084924000801
:1000A000492400084924000849240008E5230008E1
:1000B00049240008492400080000000049240008E1
:1000C00010B5064C2378002B07D1054B002B02D02E
:1000D000044800E000BF0123237010BD1C00002075
:1000E00000000000B4480008044B10B5002B03D0FA
:1000F0000349044800E000BF10BDC04600000000F6
:1001000020000020B4480008002243088B4274D32A
:1001100003098B425FD3030A8B4244D3030B8B4208
:1001200028D3030C8B420DD3FF22090212BA030C11
:100130008B4202D31212090265D0030B8B4219D3F2
:1001400000E0090AC30B8B4201D3CB03C01A524112
:10015000830B8B4201D38B03C01A5241430B8B425A
:1001600001D34B03C01A5241030B8B4201D30B0343
:10017000C01A5241C30A8B4201D3CB02C01A52416A
:10018000830A8B4201D38B02C01A5241430A8B422D
:1001900001D34B02C01A5241030A8B4201D30B0216
:1001A000C01A5241CDD2C3098B4201D3CB01C01A30
:1001B000524183098B4201D38B01C01A524143093A
:1001C0008B4201D34B01C01A524103098B4201D328
:1001D0000B01C01A5241C3088B4201D3CB00C01A95
:1001E000524183088B4201D38B00C01A524143080D
:1001F0008B4201D34B00C01A5241411A00D2014632
:10020000524110467047FFE701B5002000F006F8A4
:1002100002BDC0460029F7D076E770477047C04658
:10022000844608006146FFE71FB500F0B9F90028D1
:1002300001D40021C8421FBD10B500F045F940426D
:10024000013010BD10B500F0ABF9002801DB002033
:1002500010BD012010BDC04610B500F0A1F9002866
:1002600001DD002010BD012010BDC04610B500F01A
:1002700051F9002801DC002010BD012010BDC0464E
:1002800010B500F047F9002801DA002010BD012068
:1002900010BDC046002B11D1002A0FD1002900D17A
:1002A000002802D00021C943080007B4024802A177
:1002B0004018029003BDC04665FFFFFF03B46846C7
:1002C00001B5029800F034F8019B9E4602B00CBCC8
:1002D0007047C046F0B5CE46474680B50700994600
:1002E0003B0C9C4613041B0C1D000E0061460004D1
:1002F000140C000C45434B4360436143C0182C0C65
:1003000020188C46834203D980235B029846C4445C
:10031000494679437243030C63442D042D0CC918DC
:10032000000440198918C0BCB946B046F0BDC046AB
:10033000F0B557464E464546DE46E0B504000D0092
:100340009246994683B08B4230D82DD049465046CC
:1003500000F0D6F929000600200000F0D1F9331A88
:100360009846203B9B4633D45A46534693404246D8
:100370001F00534693401E00AF423AD8AF4200D10F
:1003800078E05B46A41BBD41002B00DA75E000223B
:1003900000230092019301235A46934001930123C5
:1003A00042469340009328E08242CFD900220023A6
:1003B000009201930C9B002B01D01C605D600098A3
:1003C000019903B0F0BCBB46B246A946A046F0BDB9
:1003D000424620239B1A5246DA40414613004A46C1
:1003E0008A40170042461F43534693401E00AF42C7
:1003F000C4D900220023009201934346002BD9D098
:10040000FB0772081A4346467B080EE0AB4201D157
:10041000A2420CD8A41A9D41012024196D4100214B
:10042000013E24184D41002E06D0AB42EED9013ECC
:1004300024196D41002EF8D1009801995B460019EE
:100440006941002B24DB2B005A464446D3402A0046
:10045000E2401C005B461500002B2ADB26009E4074
:10046000330026004746BE403200801A9941009072
:1004700001919FE7A342BCD883E742462023002195
:100480009B1A0022009101920122DA40019286E734
:10049000424620239B1A2A0046469A402300F340F6
:1004A000444613432A00E2401C005B461500002B23
:1004B000D4DA42462F002023260097409B1ADE40C4
:1004C0003B003343CDE7C04670B5420045024E02C3
:1004D0004C00C30F6D0A0120120E760A240EC90FBC
:1004E000FF2A06D0FF2C03D0A24201D1B54206D08C
:1004F00070BD002DFCD1FF2CFAD1002EF8D18B421B
:1005000006D00120002AF3D12800431E9841EFE7CE
:100510000020EDE770B5420045024E024C00C30FCB
:100520006D0A120E760A240EC80FFF2A1BD0FF2C6C
:100530000ED0002A1BD1002C01D1002E1CD0002D82
:100540000CD083421CD00221581E0840013870BDD7
:10055000002E22D1002AF4D1002DF2D10028F6D1AC
:1005600001204042F3E7002D17D1FF2CF0D0002CE2
:10057000E7D1002EE5D1E6E70020002DE7D0E2E745
:10058000A24205DCEADBB54202D8E7D30020DEE771
:100590004342584140000138D9E702204042D6E7A3
:1005A00070B5420045024E024C00C30F6D0A120E98
:1005B000760A240EC80FFF2A0BD0FF2C0DD0002A7C
:1005C0001FD1002C16D1002E14D10020002D10D0E8
:1005D00009E0002D0CD1FF2C13D1002E08D1002AE8
:1005E00008D0834212D00221581E0840013800E092
:1005F000022070BD002DF4D10028FAD10120404224
:10060000F7E7002CEDD1002EEBD1ECE7A24205DCA0
:10061000F2DBB54202D8EFD30020EAE7434258416B
:1006200040000138E5E7C046F8B5002813D0C317ED
:10063000C6185E40C40F300000F044F89E23050049
:100640001B1A962B0FDC082801DD083DAE40760210
:10065000760AD8B202E0002400200026C00530430C
:10066000E4072043F8BD992B0CDD05223100121A56
:10067000D1400A00010030001B318840411E8841F2
:1006800002431600052D12DC31000D4F3940720770
:1006900009D00F203040042805D004314A0102D58A
:1006A0009F2339405B1B89014E0AD8B2D6E76A1FE7
:1006B00096403100024F39407207F4D0E9E7C04656
:1006C000FFFFFFFB1C2101231B04984201D3000CF8
:1006D00010391B0A984201D3000A08391B099842B5
:1006E00001D30009043902A2105C40187047C046CB
:1006F00004030202010101010000000000000000EB
:1007000010B5002903D1FFF7DDFF203002E008001B
:10071000FFF7D8FF10BDC046F0B54E46DE4657463F
:100720004546E0B589B0019101211E005300CB1A66
:1007300000900493531E029374D3524253000793C4
:100740000123069305930023039312E0029B013BD0
:100750000293059B02331A0094460593049A079B63
:10076000634494469C446346039A0493029B9342D9
:1007700058DB6B461D89009B019AEF186B469C89DC
:10078000BFB2A31899B2320038008B4601F004FBC7
:10079000009B019AE31899B28846AB1899B23200CF
:1007A00040468A4601F0F8FA009B32001B1B99B2C2
:1007B00089465146484601F0EFFA009B32005B1B28
:1007C0009BB29A461800594601F0E6FA019A504643
:1007D000141BA4B23200210001F0DEFA019A48464F
:1007E000551BADB23200290001F0D6FA32002900C3
:1007F000404601F0D1FA32002100380001F0CCFA75
:10080000049B002BA2DC039A01320392069A9446C1
:100810000232634404930692002B97DC029B039AF6
:100820009342A6DA09B0F0BCBB46B246A946A04640
:10083000F0BDC046F0B54546DE4657464E46E0B5EB
:100840008BB01D0007915300110003920122D21AB0
:100850000592421C030090468C4600226344934656
:100860000192421A09900290089204935B465B0041
:10087000089A0693049B140093421BDB5B46079A7D
:100880009FB2BB189BB29946049BD71BBFB20133E2
:100890009A463B004F469946A6B22A0039003000DE
:1008A00001F07AFA01342A004946300001F074FA66
:1008B000A245F1D14346029A013B1400934219DB51
:1008C0006B46079A9F89D319D71B9BB2BFB2994633
:1008D0003B0047469846A6B22A004946300001F040
:1008E0005BFA01342A004146300001F055FAA74274
:1008F000F1D1B84601239C46069AE3449446019BF5
:10090000059A6344944601935B006344002B18DD11
:1009100011008C46019A039B624401928A1C059245
:10092000029A013B013A0292012294460393E04469
:100930009B450FDC9C46099AD11A624408910492A7
:1009400094E7029B013B029301239C46039BE044F6
:100950009B458BDD0BB0F0BCBB46B246A946A0461A
:10096000F0BDC046F8B557464E464546DE46E0B5B2
:1009700098460AAB1B88161A050030000F009146F6
:100980009A46FFF751FE0021FFF75CFC002830D1AA
:100990004346DB1B18009B46FFF746FE0021FFF78E
:1009A00051FC431E98410400B6B253463200390050
:1009B000280001F029FA534632004146280001F090
:1009C00023FA002C25D15B469CB222005346390005
:1009D000280001F035FA220053463900484601F05C
:1009E0002FFA344319D1F0BCBB46B246A946A04603
:1009F000F8BD4346DB1B18009B46FFF715FE0021A0
:100A0000FFF720FC431E98414B46EE1A0400B6B295
:100A1000CBE74346FC1AA4B2D7E7524641464846C4
:100A200001F0BAF9DFE7C046C0B583B01E0006ABDF
:100A30001B8817009C46121A11D4731A92B2002B0D
:100A400009DB9BB26646009601F0B2F903B0C0BD67
:100A5000C01B82B23800891B8BB23100F2E7731AD7
:100A6000F6D4C01B82B23800EBE7C046F0B54E4664
:100A7000DE4657464546E0B587B0994610AB1B8821
:100A80000C009B4611AB0391198803001F3B160015
:100A90000292602B06D907B0F0BCBB46B246A9460D
:100AA000A046F0BDE378203898462378A5784343E4
:100AB0006778059300912B003A0049463000049571
:100AC00001F076F9002DE6D000239A46002FE2D0FF
:100AD00052460723012613409E40059BF6B29C46D2
:100AE000039BD41064449C4633000025464664446E
:100AF000984603E00135A419BD420EDA42466379F7
:100B00001342F7D0029B5A465819494680B2013524
:100B100001F042F9A419BD42F0DB01239C464B468B
:100B200001339BB29946049BE244B0465345CFDC67
:100B3000B1E7C046F0B5DE4657464E464546E0B5FD
:100B40008DB00A9316AB03921A8817AB93461A8896
:100B50004B780B920A7807900491099208930378D6
:100B6000002B65D01A001F3A602A4BD80499203B0D
:100B7000CA788C7890460A784F785A430B99069237
:100B8000009123003A000A990398059401F010F9A6
:100B9000002C35D00A9B994600239A46002F2FD06F
:100BA00052460723012613409E40069BF6B29C4600
:100BB000049BD41064449C4633000025464664449C
:100BC000984603E00135A419BD420EDA4246637926
:100BD0001342F7D0039B5A465819494680B2013553
:100BE00001F0DAF8A419BD42F0DB01239C464B4624
:100BF00001339BB29946059BE244B0469A45CFDB50
:100C0000079B1B78099A203B5343049A0899944602
:100C100063441B799A1C8A4211DA039A0232D31870
:100C20009BB20393079B013307931B78002B99D149
:100C30000DB0F0BCBB46B246A946A046F0BD8C46FE
:100C4000039B63449BB20393ECE7C046F0B585B0C9
:100C500002AE030A03AC3370C9B2C3B273706170E1
:100C600001330131F370E170002369462370A370F2
:100C70004A71130A80220B7101303A4B9202001222
:100C8000B0709A61802252029A612A230227364D5F
:100C9000CB702A6893681F42FCD069460A23012260
:100CA0000331280002F010FC80222E4B52029F617B
:100CB0009A61022229688B681A42FCD00A23042216
:100CC0003100280002F000FC8022264B92029A613B
:100CD000802252029A616A462B230226D3702A6828
:100CE00093681E42FCD069460A2301220331280082
:100CF00002F0EAFB80221B4B52029E619A610222A3
:100D000029688B681A42FCD00A230422210028009B
:100D100002F0DAFB8022134B92029A618022520287
:100D20009A616A462C230224D3702A6893681C4275
:100D3000FCD069460A2301220331280002F0C4FBDB
:100D40008022084B52029C619A61022229688B68BA
:100D50001A42FCD00A230222280001A902F0B4FBA7
:100D600005B0F0BD000400503C000020F0B5C646C0
:100D700000B582B001AC1F00030A2370E270130AB1
:100D80008022A370374B920260709A6180225202D7
:100D90009A612A236A4688460225334ED370336807
:100DA0009A681542FCD069460A23012230000331BB
:100DB00002F08AFB802202202A4B52029D619A6136
:100DC00033689A681042FCD00A23042221003000C4
:100DD00002F07AFB43461B0A23704346802263706D
:100DE0003B0AA3701F4B9202E7709A618022520265
:100DF0009A616A462B230225D370326893681D429C
:100E0000FCD069460A2301220331300002F05CFB6A
:100E10008022144B52029D619A61022231688B68D4
:100E20001A42FCD00A2304222100300002F04CFBBD
:100E300080220C4B92029A61802252029A616A4689
:100E40002C23D370022231688B681A42FCD0694689
:100E50000A2301223000033102F036FB02B080BCCD
:100E6000B846F0BD000400503C000020802370B55F
:100E700010268025E24C5B036D0282B0A6610A2039
:100E8000A36101F02FFBA5610A2001F02BFB802359
:100E90009B02A661A3616B46A561DD1D01230222B1
:100EA000D84C2B7021688B681A42FCD00A2301228F
:100EB0002900200002F008FB0A2001F013FB802229
:100EC000CF4B92029A61802252029A61CB23022672
:100ED00022682B7093681E42FCD00A23012229004D
:100EE000200002F0F1FA8022C54B52029E619A6105
:100EF0003923022622682B7093681E42FCD00A23F5
:100F000001222900200002F0DFFA8022BC4B5202AD
:100F10009E619A612C23022622682B7093681E42E0
:100F2000FCD00A2301222900200002F0CDFA802201
:100F3000B34B52029E619A610023022622682B70F5
:100F400093681E42FCD00A2301222900200002F0EF
:100F5000BBFA8022AA4B52029E619A613423022678
:100F600022682B7093681E42FCD00A2301222900BC
:100F7000200002F0A9FA8022A14B52029E619A61E0
:100F8000022221682E708B681A42FCD00A230122AB
:100F90002900200002F098FA8022994B92029A616F
:100FA000802252029A61CF23022622682B70936816
:100FB0001E42FCD00A2301222900200002F084FAFC
:100FC00080228F4B52029E619A6100230226226882
:100FD0002B7093681E42FCD00A23012229002000B6
:100FE00002F072FA8022864B52029E619A61C123FE
:100FF000022622682B7093681E42FCD00A2301222D
:101000002900200002F060FA80227D4B52029E618E
:101010009A613023022221682B708B681A42FCD01F
:101020000A2301222900200002F04EFA8022744B8C
:1010300092029A61802252029A61E8230226226873
:101040002B7093681E42FCD00A2301222900200045
:1010500002F03AFA80226A4B52029E619A6185231D
:10106000022622682B7093681E42FCD00A230122BC
:101070002900200002F028FA8022614B52029E6172
:101080009A610023022622682B7093681E42FCD0CE
:101090000A2301222900200002F016FA8022584B70
:1010A00052029E619A617823022221682B708B681C
:1010B0001A42FCD00A2301222900200002F004FA7F
:1010C00080224F4B92029A61802252029A61EA2357
:1010D000022622682B7093681E42FCD00A2301224C
:1010E0002900200002F0F0F98022454B52029E6157
:1010F0009A610023022622682B7093681E42FCD05E
:101100000A2301222900200002F0DEF980223C4B54
:1011100052029E619A610023022221682B708B6823
:101120001A42FCD00A2301222900200002F0CCF947
:101130008022334B92029A61802252029A61ED23FF
:10114000022622682B7093681E42FCD00A230122DB
:101150002900200002F0B8F98022294B52029E613A
:101160009A616423022622682B7093681E42FCD089
:101170000A2301222900200002F0A6F98022204B38
:1011800052029E619A610323022622682B709368A3
:101190001E42FCD00A2301222900200002F094F90B
:1011A0008022174B52029E619A6112230226226806
:1011B0002B7093681E42FCD00A23012229002000D4
:1011C00002F082F980220E4B52029E619A618123C5
:1011D000022221682B708B681A42FCD00A2301225C
:1011E0002900200002F070F98022054B92029A61DA
:1011F000802252029A61F723022622682B7003E0B4
:10120000000400503C00002093681E42FCD00A23DA
:1012100001222900200002F057F98022E64B5202F9
:101220009E619A612023022221682B708B681A42EA
:10123000FCD00A2301222900200002F045F9802277
:10124000DD4B92029A61802252029A61C0230226EB
:1012500022682B7093681E42FCD00A2301222900C9
:10126000200002F031F98022D34B52029E619A6134
:101270002323022221682B708B681A42FCD00A2398
:1012800001222900200002F01FF98022CA4B92029D
:101290009A61802252029A61C123022622682B7031
:1012A00093681E42FCD00A2301222900200002F08C
:1012B0000BF98022C04B52029E619A6110230222D8
:1012C00021682B708B681A42FCD00A230122290066
:1012D000200002F0F9F88022B74B92029A61802236
:1012E00052029A61C523022622682B7093681E421F
:1012F000FCD00A2301222900200002F0E5F8802218
:10130000AD4B52029E619A613E23022622682B70E9
:1013100093681E42FCD00A2301222900200002F01B
:10132000D3F88022A44B52029E619A6128230222A4
:1013300021682B708B681A42FCD00A2301222900F5
:10134000200002F0C1F880229B4B92029A61802219
:1013500052029A61C723022622682B7093681E42AC
:10136000FCD00A2301222900200002F0ADF88022DF
:10137000914B52029E619A618623022221682B7052
:101380008B681A42FCD00A2301222900200002F0B7
:101390009BF88022884B92029A61802252029A61C5
:1013A0003623022622682B7093681E42FCD00A2343
:1013B00001222900200002F087F880227E4B520291
:1013C0009E619A614823022221682B708B681A4221
:1013D000FCD00A2301222900200002F075F88022A7
:1013E000754B92029A61802252029A613A23022638
:1013F00022682B7093681E42FCD00A230122290028
:10140000200002F061F880226B4B52029E619A61CB
:101410005523022221682B708B681A42FCD00A23C4
:1014200001222900200002F04FF88022624B920234
:101430009A61802252029A61B123022622682B709F
:1014400093681E42FCD00A2301222900200002F0EA
:101450003BF88022584B52029E619A61002302267B
:1014600022682B7093681E42FCD00A2301222900B7
:10147000200002F029F880224F4B52029E619A61AF
:101480001823022221682B708B681A42FCD00A2391
:1014900001222900200002F017F88022464B920218
:1014A0009A61802252029A61B623022622682B702A
:1014B00093681E42FCD00A2301222900200002F07A
:1014C00003F880223C4B52029E619A610823022657
:1014D00022682B7093681E42FCD00A230122290047
:1014E000200001F0F1FF8022334B52029E619A618D
:1014F0008223022622682B7093681E42FCD00A23A6
:1015000001222900200001F0DFFF80222A4B520235
:101510009E619A612723022221682B708B681A42F0
:10152000FCD00A2301222900200001F0CDFF8022F7
:10153000214B92029A61802252029A61F223022682
:1015400022682B7093681E42FCD00A2301222900D6
:10155000200001F0B9FF8022174B52029E619A6170
:101560000023022221682B708B681A42FCD00A23C8
:1015700001222900200001F0A7FF80220E4B9202D9
:101580009A61802252029A612623022622682B70D9
:1015900093681E42FCD00A2301222900200001F09A
:1015A00093FF8022044B52029E619A610123022222
:1015B00021682B7002E0C046000400508B681A427C
:1015C000FCD00A2301222900200001F07DFF8022A7
:1015D000E54B92029A61802252029A61E023022630
:1015E00022682B7093681E42FCD00A230122290036
:1015F000200001F069FF8022DB4B52029E619A615C
:101600000F23022622682B7093681E42FCD00A2307
:1016100001222900200001F057FF8022D24B520204
:101620009E619A613123022622682B7093681E42C4
:10163000FCD00A2301222900200001F045FF80226E
:10164000C94B52029E619A612B23022622682B709D
:1016500093681E42FCD00A2301222900200001F0D9
:1016600033FF8022C04B52029E619A610C230226F6
:1016700022682B7093681E42FCD00A2301222900A5
:10168000200001F021FF8022B74B52029E619A6137
:101690000E23022622682B7093681E42FCD00A2378
:1016A00001222900200001F00FFF8022AE4B5202E0
:1016B0009E619A610823022622682B7093681E425D
:1016C000FCD00A2301222900200001F0FDFE802227
:1016D000A54B52029E619A614E23022622682B700E
:1016E00093681E42FCD00A2301222900200001F049
:1016F000EBFE80229C4B52029E619A61F1230226EE
:1017000022682B7093681E42FCD00A230122290014
:10171000200001F0D9FE8022934B52029E619A6113
:101720003723022622682B7093681E42FCD00A23BE
:1017300001222900200001F0C7FE80228A4B5202BC
:101740009E619A610723022622682B7093681E42CD
:10175000FCD00A2301222900200001F0B5FE8022DE
:10176000814B52029E619A611023022622682B70DF
:1017700093681E42FCD00A2301222900200001F0B8
:10178000A3FE8022784B52029E619A6103230226B7
:1017900022682B7093681E42FCD00A230122290084
:1017A000200001F091FE80226F4B52029E619A61EF
:1017B0000E23022622682B7093681E42FCD00A2357
:1017C00001222900200001F07FFE8022664B520298
:1017D0009E619A610923022622682B7093681E423B
:1017E000FCD00A2301222900200001F06DFE802296
:1017F0005D4B52029E619A610023022221682B7088
:101800008B681A42FCD00A2301222900200001F033
:101810005BFE8022544B92029A61802252029A61AE
:10182000E123022622682B7093681E42FCD00A2313
:1018300001222900200001F047FE80224A4B52027B
:101840009E619A610023022622682B7093681E42D3
:10185000FCD00A2301222900200001F035FE80225D
:10186000414B52029E619A610E23022622682B7020
:1018700093681E42FCD00A2301222900200001F0B7
:1018800023FE8022384B52029E619A611423022665
:1018900022682B7093681E42FCD00A230122290083
:1018A000200001F011FE80222F4B52029E619A61AE
:1018B0000323022622682B7093681E42FCD00A2361
:1018C00001222900200001F0FFFD8022264B520258
:1018D0009E619A611123022622682B7093681E4232
:1018E000FCD00A2301222900200001F0EDFD802216
:1018F0001D4B52029E619A610723022622682B70BB
:1019000093681E42FCD00A2301222900200001F026
:10191000DBFD8022144B52029E619A613123022624
:1019200022682B7093681E42FCD00A2301222900F2
:10193000200001F0C9FD80220B4B52029E619A618A
:10194000C123022622682B7093681E42FCD00A2312
:1019500001222900200001F0B7FD8022024B520233
:101960009E619A6102E0C0460004005048230226AE
:1019700022682B7093681E42FCD00A2301222900A2
:10198000200001F0A1FD8022604B52029E619A610D
:101990000823022622682B7093681E42FCD00A237B
:1019A00001222900200001F08FFD8022574B5202B6
:1019B0009E619A610F23022622682B7093681E4253
:1019C000FCD00A2301222900200001F07DFD8022A5
:1019D0004E4B52029E619A610C23022622682B70A4
:1019E00093681E42FCD00A2301222900200001F046
:1019F0006BFD8022454B52029E619A613123022683
:101A000022682B7093681E42FCD00A230122290011
:101A1000200001F059FD80223C4B52029E619A61E8
:101A20003623022622682B7093681E42FCD00A23BC
:101A300001222900200001F047FD8022334B520291
:101A40009E619A610F23022221682B708B681A42D3
:101A5000FCD00A2301222900200001F035FD80225C
:101A60002A4B92029A61802252029A611123022229
:101A700021682B708B681A42FCD00A2301222900AE
:101A8000200001F021FD642000F02CFD80221F4B7E
:101A900092029A61802252029A61292302222168CD
:101AA0002B708B681A42FCD00A23012229002000E7
:101AB00001F00AFD8022154B92029A6180225202A7
:101AC0009A613623022622682B7093681E42FCD04E
:101AD0000A2301222900200001F0F6FC012000F079
:101AE00001FD8022094B52029E619A612823022245
:101AF00021682B708B681A42FCD00A23012229002E
:101B0000200001F0E1FC02B070BDC04600040050AE
:101B100000B583B06A46030A137150710222094B63
:101B200009489A61802252029A61022201688B68F8
:101B30001A42FCD00A23022201A901F0C5FC03B01D
:101B400000BDC046000400503C000020F0B5D64661
:101B50004F4646464B009A46FA23C0B50D0000AFEB
:101B60005B009A4546D302213D4AFEB09161802137
:101B70006C461D0049029161010A0123C0B2002B8D
:101B800066D02B00133B153362D86B1E5B08013304
:101B90009C465B08984603020B4399464E460A044E
:101BA000030632431A4300239E000133A251984595
:101BB000FAD8012362469A435300944502D0E15477
:101BC000E318587029005046FEF724FB8946AA45C1
:101BD00021D2244D4B4628009AB221000A2301F05D
:101BE00073FCBD4601221E4B9A61E0BCBA46B14669
:101BF000A846F0BD02221A4B9A61802252029A61D5
:101C00006A46CB1DDB08DB00D31A9D466C460029D3
:101C100013D0010AB1E780464346002BD9D0ABB2BE
:101C20009A4600260F4D0A2352462100280001360D
:101C300001F04AFC4645F6D1CCE700210020FEF732
:101C400063FA002180460020FEF7E4FA8946E3E7C4
:101C50000023621CE154D05402339D42FAD8B1E70C
:101C6000000400503C0000208022F0B5474B83B0B8
:101C700000AF7B60464B92029A61802252029A61C9
:101C80002A2305000226434CFB70226893681E42FB
:101C9000FCD00A230122F91C200001F015FC80224F
:101CA0003B4B52029E619A61022221688B681A4264
:101CB000FCD00A2304222000391D01F005FCF0238A
:101CC00080221B067B60324B92029A618022520274
:101CD0009A612B2302262268FB7093681E42FCD077
:101CE0000A230122F91C200001F0EEFB8022284B80
:101CF00052029E619A61022221688B681A42FCD0CE
:101D00000A2304222000391D01F0DEFB8022204B33
:101D100092029A61802252029A612C230226226842
:101D2000FB7093681E42FCD00A230122F91C20009C
:101D300001F0CAFB8022164B52029E619A612B0A67
:101D4000EDB2FEB02A0219041A436E466B460A43EE
:101D50002D062A437DA904C38B42FCD13425FF35CF
:101D6000FA220A23310020005200013D01F0ACFBB1
:101D7000002DF5D10A2364223100200001F0A4FBDC
:101D80000122BD46024B9A6103B0F0BD0000014044
:101D9000000400503C000020A02310B55B009842D6
:101DA00001D2EF2900D910BDFEF750FFFBE7C04676
:101DB000F8B5A02506AC26886D00A84216D2EF29FA
:101DC00014D817008218AA4211DC7A1E1C0082184F
:101DD000CB1892B2F02B12DC631ECB189BB2FEF72D
:101DE000C5FF210030007943FFF7B0FEF8BD402267
:101DF0001C002D1ACB18AFB2FF32F02BECDDF02413
:101E0000641AEF23A4B2EAE7F0B5C646A0260400A0
:101E10000F00984600B57600B0420DD2EF290BD8DE
:101E20008518B44204D2424639002000FEF70EFF66
:101E30000134A4B2AC42F4DD80BCB846F0BDC0466B
:101E4000F8B51F00A02306000C005B0098420DD2DD
:101E5000EF290BD88D18EF2C04D83A002100300060
:101E6000FEF7F4FE0134A4B2AC42F4DDF8BDC04686
:101E7000F0B5C64600B5B34C036822688EB09342F5
:101E800003D00EB080BCB846F0BDAF4B98461B786F
:101E9000002BF6D00A2301222000AC4901F072FC8D
:101EA00043461B78012B00D13BE1022B00D11EE100
:101EB000032B00D10BE1042B00D1F6E0052B00D160
:101EC000DEE0062B00D1C8E0072B00D1B2E0082BE2
:101ED00000D19CE0092B00D186E00A2B70D00B2B9F
:101EE00059D00C2B38D00D2B04D00E2BC9D1FEF7B6
:101EF000BDFFC6E700230F252422002105A8049377
:101F0000002702F0CFFC6D4404AE02E07A1CF355CA
:101F1000D7B20A2301222900200001F045FD2B78C9
:101F2000002BF3D18A4D06222900F35520000A33F5
:101F300001F03AFD697987484900095A6B882A8877
:101F4000019129794900095A300000918249FEF730
:101F5000F1FD43461B78C8E77D4D07222900023B6F
:101F6000200001F021FD2B79EA781B021343AA78A7
:101F7000697812020A43A979764E4900895B28786C
:101F8000019169794900895B00917349FEF76EFD03
:101F900043461B78A7E76E4D09222900013B20002C
:101FA00001F002FDEB88AA88698828882D7A694E9D
:101FB0006D00AD5B0095FEF737FD43461B7890E75B
:101FC000634D09222900200001F0EEFCEB88AA886D
:101FD000698828882D7A5F4E6D00AD5B0095FEF70D
:101FE000C1FC43461B787AE7594D0722290001338B
:101FF000200001F0D9FCAB79564A5B009B5A6988F6
:10200000AA882888FEF716FC43461B7865E7504DE2
:10201000072229000233200001F0C6FCAB794D4AAB
:102020005B009B5A6988AA882888FEF775FB43469F
:102030001B784FE7464D072229000333200001F0AB
:10204000B3FCAB79434A5B009B5A6988AA8828880D
:10205000FFF7F6FE43461B7839E73D4D072229007E
:102060000433200001F0A0FCAB793A4A5B009B5A94
:102070006988AA882888FFF7C7FE43461B7823E7AC
:10208000334D092229000533200001F08DFCEB8837
:10209000AA88698828882D7A2E4E6D00AD5B009540
:1020A000FFF786FE43461B780BE7294D05222900E2
:1020B0000633200001F078FC2B79264A5B009A5AFF
:1020C00069882888FFF768FE43461B78F6E6204DAE
:1020D000012229000733200001F066FC2B781D4AFD
:1020E0005B00985AFFF7C0FD43461B78E3E6184DA6
:1020F000052229000833200001F056FC2B79E978ED
:102100001B020B43A9781B0219436B780902194380
:102110002B78104A5B00985AFFF718FD43461B784E
:10212000C6E60B4D012229000933200001F03CFCDA
:102130002B78084A5B00985AFFF7EAFC43461B7865
:10214000B3E6C04694000020380000200C000020B8
:102150001C01002000000020CC48000810B572B619
:1021600000F010FAFCE7C04610B59CB02422002114
:102170000FA802F097FB14220021684602F092FBA0
:102180002022002106A802F08DFB1B491B4A0B6888
:1021900001241A4080231B0113430B6002230E937A
:1021A0000E33022212930023189219938022802367
:1021B000D202DB030EA81A921B93119400F0AAFB23
:1021C000002817D10F22032300920193002200233D
:1021D0000490012168460292039300F095FE0028C6
:1021E00008D1089006A8069400F09CFF002801D1B1
:1021F0001CB010BDFFF7B2FF00700040FFE7FFFF0B
:1022000030B589B000F048F9FFF7AEFF1422002185
:1022100002A802F047FB01222F4B3048D96A114334
:10222000D962D96A0A400092009A0222D96A1143FF
:10223000D962DB6A13211A4001920022019B00F04F
:102240001DFB132201230292039300220323234840
:1022500002A90492059300F005FA2148214B80223F
:10226000036082235B004360002392008360C360AD
:1022700003614361C3610362436283620733826126
:10228000C36201F0ABF8002824D1174C174BA060B3
:102290002360E1235B0263600C23E0602061A061A6
:1022A000E061206260622000636102F07FF9002833
:1022B00010D1002200211B3000F026F91B2000F075
:1022C00055F9FEF7D3FD0A4D01222900200001F047
:1022D00093FCF9E7FFF742FF0010024000040050B2
:1022E0003C000020003001409400002000380140F4
:1022F000380000200121054B5A6B0A435A638022A3
:10230000996B52050A439A637047C0460010024019
:1023100010B5040088B01422002102A802F0C2FA0D
:102320000F4B22689A4201D008B010BD80220D4B9D
:102330005201596BA0200A435A630122D96AC00591
:102340001143D962DB6A02A91A400192019BE02283
:102350000223029203930323059300F083F9E3E73A
:10236000003001400010024010B5040088B0142273
:10237000002102A802F096FA114B22689A4201D07D
:1023800008B010BD80220F4BD201596BA0200A4328
:102390005A630122D96AC0051143D962DB6A02A9D6
:1023A0001A400192C022019B0223D20002920393A1
:1023B000032305930133069300F054F9E0E7C04688
:1023C0000038014000100240FEE7C04610B500F0A2
:1023D000D9F8FCE77047C0467047C04610B500F01A
:1023E0006FF810BD10B5024801F0EAFC10BDC04600
:1023F000940000207047C0460D488546FFF7FAFF5D
:102400000C480D490D4A002302E0D458C45004334F
:10241000C4188C42F9D30A4A0A4C002301E0136025
:102420000432A242FBD302F019FAFFF7E9FEFEE7FD
:1024300000200020000000201C000020A05A0008FE
:102440001C0000202C010020FEE7000010B5040055
:10245000FA200E4B80001978FDF756FE0C4B010058
:102460001868FDF751FE00F09BF800280CD10130F0
:10247000032C00D910BD02380022210000F044F8DE
:10248000044B00201C60F5E70120F3E71400002056
:1024900010000020180000204021084A10B51368E1
:1024A00003200B431360FFF7D1FF041E02D0012469
:1024B000200010BDFFF71EFFFAE7C04600200240D3
:1024C000034A044B11681B785B1813607047C046C1
:1024D0002801002014000020014B18687047C046F6
:1024E0002801002070B50400FFF7F6FF0500631C0B
:1024F00002D0044B1B78E418FFF7EEFF401BA0420C
:10250000FAD370BD1400002070B5002814DB154B01
:1025100003229C46FF23840810401A00C026C000F6
:10252000890182400B408340A4006444B600A55951
:1025300095432B43A35170BD0B4A0F2394460322AE
:1025400003401040FC321500C000890185400A405C
:102550008240083B9B089B006344DC69AC432243F8
:10256000DA61E8E700E100E000ED00E0002805DBCB
:102570001F2318401E3B8340014A13607047C0462A
:1025800000E100E0BFF34F8F034B044ADA60BFF372
:102590004F8FC046FDE7C04600ED00E00400FA059D
:1025A0008022431E5204012093420ED2C021074ACA
:1025B00007485360036A09061B021B0A0B430362A8
:1025C00000230020936007331360704710E000E0A1
:1025D00000ED00E0252330B5C25C022A06D00022BF
:1025E000213BC3632033C254012030BD0E24026856
:1025F000456C1168A1431160012114688C4314607B
:102600001C222A400D009540046C00226560C154D4
:102610002423C2540020E8E7252370B5C25C022AB7
:1026200003D0213BC363012070BD0E240268456CBA
:102630001168A1431160012114688C4314601C22AD
:102640002A400D009540046C00226560C15424238B
:10265000C254836B002B02D098470020E4E700208F
:10266000E2E7C0460B68F0B5DE469B4657464E464D
:1026700045468C465946E0B50022002383B0002928
:102680007BD001260C009E403440A34631426ED0E0
:102690006446032564682540A846013D012D00D805
:1026A00072E04546032D00D0B8E046469640F5431B
:1026B00001950768019D3D4035430560C025AD0289
:1026C0002C4254D00127664E756B3D437563654EB1
:1026D0000237B0469D081F40BF00AD004544B846D4
:1026E000AE680F27B2464646B7403E005746B7434E
:1026F000BA46A027FF05B84218D05B4FB84200D1B8
:10270000A5E05A4F0226B84209D0594F0326B842D5
:1027100000D196E0574F0626B84200D190E037002E
:102720004646B7403E0057463743BA46564680278E
:10273000AE605E46504D7F03F643AD683C4200D02C
:102740007BE035404C4FBD60FD68A70200D571E0CD
:102750003540494FFD607D68A70368D43540464F3A
:102760007D603D68E4035ED43540434C25600C0039
:102770000133DC400232002C83D103B0F0BCBB46F5
:10278000B246A946A046F0BD8568A94603259540F6
:10279000AA46ED434F4601955546AF436546BA46B6
:1027A000EF689740B94657464D462F4387604568C6
:1027B0002F000125B74326092E409E403E43466028
:1027C000C668019D2E40B1466646B6684F469640A3
:1027D0003E43C660474646469640022F00D068E713
:1027E000DD08AD00A846804445462D6AAA46072567
:1027F0002F001F40BD000F27A946AF405546BD43DF
:10280000AA4665464F462D69BD40A94655464F46E6
:102810003D43AA46454657462F624AE70325954061
:10282000ED430195CCE75C462C4325009DE75F46D0
:102830003D4394E75F463D438BE75F463D4381E779
:1028400005264746BE4057463743BA466EE74646DA
:102850000127B7403E0057463743BA4666E7C046B1
:102860000010024000000140000400500008005029
:10287000000C0050001C005000040140002A01D050
:10288000816170478162FCE70C231C4910B5CA685E
:102890001340082B0BD00C2B14D0042B09D0802014
:1028A0004B6800021B045B0F0133984010BD1448B5
:1028B000FCE70868134BC006C0171840124B9C4633
:1028C0006044F3E7930211481B0FC05C1202CB680F
:1028D000940F0134DB030CD40B68DB060BD50C4AD8
:1028E00000230021FDF7F6FC22000023FDF7D2FCB7
:1028F000DCE7034AF4E7044AF2E7C046001002406E
:1029000000127A0000E548FF0024F400285A00086D
:1029100000093D00F0B5D6464F464646C0B5040016
:1029200082B0002800D147E1C94B0C25DA68DE6887
:1029300080235B021E4003681540DA0733D5082D5B
:1029400000D130E10C2D00D12AE1802263685202CF
:10295000934200D162E1A021C9028B4200D147E23B
:10296000BB4FBC4839680140396039680A40019260
:10297000019AB9493A680A403A60002B00D051E107
:10298000FFF7AAFD80239B028046994606E0FFF7E9
:10299000A3FD4346C01A642800D9CEE14A463B68ED
:1029A0001342F4D123689A0727D5E368042D00D198
:1029B0006DE10C2D00D167E1A54E002B00D1D3E1D4
:1029C000092132688A4313433360FFF785FD0423EE
:1029D0000700984605E0FFF77FFDC01B022800D9DD
:1029E000ABE1424633681A42F5D0726823699B49CD
:1029F0001B020A40134373602368DA062BD5002DAF
:102A000000D1E0E0E369924E002B00D1C1E18023C8
:102A100032685B0013433360FFF75EFD80239B0049
:102A20000700984605E0FFF757FDC01B022800D9B4
:102A300083E1424633681342F5D07368884A1340F5
:102A4000626A134373607268236A12021B06120AD9
:102A50001343736023681A0719D563697C4E002BF2
:102A600000D16CE10122336D13433365FFF734FD70
:102A700002230700984605E0FFF72EFDC01B022841
:102A800000D95AE14246336D1A42F5D023685A07FD
:102A900043D5802300206E4A5B05916B8246194224
:102AA00004D1916B0B43936301239A4680276D4EAB
:102AB0007F0033683B4200D12FE18022A36852009F
:102AC000934200D1D9E1002B00D10AE1A021C90035
:102AD0008B4200D1F3E15E4B63491A6D0A401A65DF
:102AE0001A6D62490A401A65FFF7F6FC8027584BB9
:102AF000060098465E4BBF00994605E0FFF7ECFCE8
:102B0000801B484500D918E143461B6D3B42F5D078
:102B10005346012B00D175E123689B0621D5A3699B
:102B20004B4E002B00D14AE10121B2680A43B2604A
:102B3000736B504A0B4373638023116A9B010B43F1
:102B40001362FFF7C9FC02230700984605E0FFF770
:102B5000C3FCC01B022800D9EFE04246B3681A420A
:102B6000F5D0A36A002B19D00C2D00D18AE1022BDD
:102B700000D14EE1364C404A236880261340236042
:102B8000FFF7AAFCB604050005E0FFF7A5FC401B13
:102B9000022800D9D1E023683342F6D100200CE0AE
:102BA000002E00D1D1E62A4A1268920300D4FAE638
:102BB0006268002A00D0F6E6012002B0E0BCBA4606
:102BC000B146A846F0BD224B1B689B0502D5E369C0
:102BD000002BF1D01E4A22485168636A0140194314
:102BE00051605068216A0002000A090601435160E1
:102BF000D16880225B0B013312029A4013000A064F
:102C00001E49120F8A5CD3401D4A13601D4B186881
:102C1000FFF71CFC0028D0D123681CE70C490A6888
:102C200013430B60FFF758FC094B070099468023BC
:102C30009B02984604E0FFF74FFCC01B64287CD839
:102C40004B4642461B681342F5D02368ABE6C046AC
:102C500000100240FFFFFEFFFFFFFBFFFFE0FFFF52
:102C6000FF1FFFFF00700040FFFEFFFFFFFBFFFFA5
:102C70008813000000000140FFFFFFFE105A00080B
:102C80001000002018000020002E00D094E6914A89
:102C90001268520702D5002B00D18DE78D4E2269B4
:102CA00071688D48120201400A430921726032683E
:102CB0008A4313433360FFF7E7FDF368874A1B0637
:102CC0001B0FD35CD840864B1860864B1868FFF703
:102CD000BDFB002800D070E72368DA0600D4BAE60E
:102CE0008DE67C4E804A336D13403365336D7F4AE9
:102CF00013403365FFF7F0FB80239B0098467C4B25
:102D00000700994604E0FFF7E7FBC01B484514D8CD
:102D10004246336D1342F6D1FAE633683B433360E3
:102D2000FFF7DAFB804633683B4200D0C5E6FFF789
:102D3000D3FB4346C01A6428F5D903203DE701229E
:102D4000336D93433365FFF7C7FB022307009846B3
:102D500004E0FFF7C1FBC01B0228EED84246336DEA
:102D60001A42F6D1236892E6012233689343336016
:102D7000FFF7B2FB04230700984604E0FFF7ACFB23
:102D8000C01B0228D9D8424633681A42F6D12368BC
:102D9000A3E73368544A13403360FFF79DFB802359
:102DA0009B000700984604E0FFF796FBC01B022833
:102DB000C3D8424633681342F6D123684BE601225A
:102DC000B3684C4993434C4AB360136A0B40136297
:102DD000FFF782FB02230700984604E0FFF77CFB25
:102DE000C01B0228A9D84246B3681A42F6D1B8E6F9
:102DF0008021384BC90218680143196019680A43D9
:102E00001A600FE7334A3D49936B0B409363236885
:102E100083E6304D3A4A2B68802713402B60FFF73A
:102E20005BFBBF04060004E0FFF756FB801B022893
:102E300083D82B683B42F7D1216BE36AEA680B43E6
:102E40003049244E0A401343626B1343EB608023E6
:102E50002A685B0413432B60FFF73EFB80250400C8
:102E6000AD0405E0FFF738FB001B022800D964E73A
:102E700033682B42F6D000209FE6164A116D0B43B3
:102E8000136531E6012B00D196E68022114BE16AF1
:102E9000DB68520201201A408A4200D08DE6F022FF
:102EA000216B92031A408A4200D086E6C0200004BB
:102EB0000340606B181A431E9841C0B27DE6054B73
:102EC0000139186DFF3901431965196D0A431A65F7
:102ED0000AE6C04600100240FFE0FFFF105A00085B
:102EE0001000002018000020FFFEFFFFFFFBFFFF87
:102EF00088130000FFDFFFFF00000140FFFFFFEF2E
:102F0000FFFFFFFEFFFF02FFF8B5CE464746050074
:102F10000C0080B5002866D001226A4E3368134049
:102F20008B4262D32B689A0706D5F0206649CA689F
:102F30008243A8680243CA60DB072DD5624B6A68EA
:102F40001B68022A4DD0032A00D16FE0012A00D16C
:102F5000A3E09B0547D503215B4EF3688B431343E6
:102F6000F360FFF7B9FA6B680700022B00D174E039
:102F7000032B00D181E0012B00D193E00C23984674
:102F8000524B994604E0FFF7A7FAC01B484542D8C8
:102F90004246F3681A42F6D101224A4E3368134082
:102FA000A34247D82B685A0706D547494848CA68FC
:102FB0000240E8680243CA601B072ED4FFF764FC96
:102FC000414B444ADB681B061B0FD35CD840424B85
:102FD0001860424B1868FFF739FAC0BCB946B046D2
:102FE000F8BD9B03B7D40120F7E7336893430B4345
:102FF0003360FFF771FA01239846344B0700994676
:10300000424633681340A34200D18BE7FFF764FACE
:10301000C01B4845F4D90320DFE72B482B69C16862
:103020002F4ADB000A401343C360C7E79B0192D4D9
:103030000120D2E73368012793433360FFF74CFA4E
:10304000224B0400984633681F42ABD0FFF744FA86
:10305000001B4045F7D90320BFE70A3398461B4BB6
:10306000994604E0FFF738FAC01B4845D3D84246DA
:10307000F3681340082BF5D18EE709339846134BBC
:10308000994604E0FFF728FAC01B4845C3D84246DA
:10309000F36813400C2BF5D17EE75B0700D55AE7A8
:1030A00001209AE70B339846084B994604E0FFF756
:1030B00013FAC01B4845AED84246F3681340042BB0
:1030C000F5D169E70020024000100240881300009B
:1030D000FFF8FFFF105A0008100000201800002021
:1030E000FFC7FFFF044B054ADB685B055B0FD35C42
:1030F000034A1068D840704700100240205A000868
:1031000010000020044B054ADB689B045B0FD35C76
:10311000034A1068D840704700100240205A000847
:1031200010000020F8B5CE4647460368040080B57D
:103130009A0671D580236B4A5B05916B0027194273
:1031400000D1A4E08026684D76002B68334200D180
:10315000A8E06268C02115006248890303680D4039
:103160000B409D4206D0C02311009B02194099429A
:1031700000D1B1E05B4DC023296D9B0208001840CF
:1031800019422FD01340190083422BD02368980690
:1031900040D5286D84466646544830402E6D8146A1
:1031A000B04680264046360306432E652E6D5048B5
:1031B000064048462E6528656046C00519D5FFF7CC
:1031C0008BF980239B0098464A4B0600994605E000
:1031D000FFF782F9801B484500D973E042462B6D0A
:1031E0001342F5D023689A0614D5C021626889027B
:1031F0001140C0208002814208D13A4D3E4E2868DD
:103200003040C026B603324002432A603548026D82
:1032100011430165012F57D0DA0706D50320314944
:10322000CA6C8243A0680243CA649A0706D50C2080
:103230002C49CA6C8243E0680243CA645A0706D527
:1032400028492E48CA6C024020690243CA641A0702
:1032500006D524492A48CA6C024060690243CA6400
:103260005A0606D51F492748CA6C0240E069024346
:10327000CA6400201B0606D51A4A2349D36C0B40AA
:10328000A1690B43D364C0BCB946B046F8BD8026E3
:10329000916B154D0B4393632B68760001373342D6
:1032A00000D056E72B6833432B60FFF715F98046B3
:1032B0002B68334200D04CE7FFF70EF94346C01AA3
:1032C0006428F5D90320DEE7064910488A6B0240DE
:1032D0008A63DA07A9D5A1E703689B0300D449E70D
:1032E0000120D0E70010024000700040FFFFFCFF0B
:1032F000FFFFF7FF88130000FFFFCFFFFFF3FFFF83
:10330000FFCFFFFFFFFFFFFBFFFFF3FFFFFFFFEF1D
:10331000F0B5C64600B51D00160082B00C000700CF
:10332000FFF7DAF8AD192D1AFFF7D6F88046294BCA
:103330001B685B011B0D6B4301933968731C08D13B
:103340008B682340A342FBD0002002B080BCB8466B
:10335000F0BD8B6823409C42F6D1FFF7BDF8434691
:10336000C01AA84208D2019B5A1E93415B421D40DD
:10337000019B013B0193E0E7E0213B685A688A43E7
:103380005A60822279685200914214D08021BA6A30
:1033900089018A4207D051230122FA540022013BBD
:1033A0000320FA54D1E719680B48014019601968E5
:1033B0000A431A60EFE78021BA6809028A4203D003
:1033C0008021C9008A42E1D140211A688A431A60EB
:1033D000DCE7C04610000020FFDFFFFFF8B5CE4657
:1033E0004746040080B500286AD0406A00284FD0C4
:1033F0000023236163610023A3625133E35C002651
:10340000002B52D051239846424684274F3BA35469
:103410002268656811689C463E339943C4332B404B
:10342000A5683F022F403B438027E5683F012F40BE
:103430003B436746256911602F400125A9463B4360
:103440004F466569A1693D402B438025AD000D4085
:103450002B433825E7693D402B438025276A3D40B3
:103460002B43334313600B0C0421194010231840E5
:1034700008435060D369134900200B40D3610023F7
:103480004A4663654346E254C0BCB946B046F8BDFF
:10349000822362685B009A42ADD00023E061A362A0
:1034A0005133E35C0026002BACD15033E654802628
:1034B0002000FEF72DFFA36AB601606A1E40A1E757
:1034C0000120E1E7FFF7FFFFF0B54F46D64646463D
:1034D0001D005023C0B59146C25C04000F0082B0AD
:1034E000012A00D18BE00122C254FEF7F5FF5122E0
:1034F000A35C8046DEB2012B0AD0022650230022B4
:10350000E254300002B0E0BCBA46B146A846F0BD75
:10351000002FF3D04B46002BF0D00323A3540023FD
:103520004A466365A363E286A387E38763642364F3
:103530008023A286A26827631B029A4261D0226878
:103540001000402311680B4202D111680B43136035
:103550008023E1681B01994200D18CE06368002B55
:1035600077D04B46012B74D0E38E002B17D002226C
:10357000002D00D1D9E002276B1C5BD123689A682B
:10358000174270D0226B12781A73E18E236B0139C7
:1035900089B20133E1862363E38E002BEED16368A9
:1035A0009A46764B76491868FCF7AEFD4201121A2E
:1035B00093001B18DB000193822380225B009A4555
:1035C00007D1B9E0019B013B019323689B681A4234
:1035D00002D0019B002BF5D1A368002B06D10093EC
:1035E0002368DA6800929B680093009B636D002B50
:1035F00000D083E7012251330026E2547EE7022601
:103600007FE740212268136810008B4313608023FA
:103610001168DB010B43136093E7226B12781A7376
:10362000236B01332363E38E013B9BB2E386E38E7E
:10363000002BB4D023689A681742EED1FEF74CFFF6
:103640004346C01A8542F2D8512301220326E25490
:1036500054E73B781373236B01332363E38E013B01
:103660009BB2E38680E7FEF737FFE38E002B00D0A6
:1036700084E7636894E763689A46002B43D13988EE
:103680000237D160E18E2763013989B2E186E18E8C
:10369000002900D185E7002D5DD002276B1C28D1C1
:1036A00093681F420FD0236B19880233D1602363C4
:1036B000E38E013B9BB2E386E38E002B00D16EE7E5
:1036C00093681F42EFD1FEF707FFE38E002B00D176
:1036D00065E72268E4E7236B1A880233C26023633C
:1036E000E38E013B9BB2E386E38E002B00D156E7CD
:1036F000206883681F42EED1FEF7EEFE4346C01AF3
:103700008542A1D9F0E749460129C0D1B7E7216B2D
:1037100009781973236B01332363E38E013B9BB25A
:10372000E386E38E002B00D139E7236899680A42CB
:10373000EDD1FEF7D1FE87E743462A008021200025
:10374000FFF7E6FD002800D146E72022636D134312
:103750006365626540E702200CE0216B0F8802314F
:10376000D7602163E18E013989B2E186E18E0029BB
:1037700000D115E791680842EFD1DAE71000002088
:1037800000366E01F8B557464E464546DE46E0B572
:103790001E00C36F05000F001400202B00D0A8E00E
:1037A00000294AD0002A48D0802382685B019A42CF
:1037B00004D10369002B01D1CB073ED4002284231E
:1037C000EA50633BEB67FEF787FE50230022EC5282
:1037D0000233EC5280239246AA6880465B019A42EB
:1037E00000D1A3E05223EB5A002B00D1D6E00422F3
:1037F000802491462B6808229346721C24D1DA69F2
:103800001442FCD0002F6BD03A7801379A625221D3
:103810006A5A013A92B26A526A5A002AEBD10422D9
:10382000402491460827721C65D14021DA69114273
:10383000FCD020230020EB6700E00120F0BCBB4659
:10384000B246A946A046F8BDDA691442DAD1FEF7BD
:1038500043FE4346C01A86423ED3002E3CD0494622
:103860002B681A681142C8D05946DA69114264D1EE
:103870008022D96912011142BFD01A62EFF3108081
:10388000012282F310882968464C0B6823400B60A4
:1038900080F31088EFF3108082F3108829688B681A
:1038A00093438B6080F310882B6E012B0AD1EFF3CA
:1038B000108183F3108810202A68136883431360F3
:1038C00081F31088202280238421EA5000232B6674
:1038D000AB666A505832AB5420230320EB67ADE748
:1038E00052461288D205D20D9A6202229446E244D0
:1038F0008DE70220A2E7DB691C429AD1FEF7ECFDBE
:103900004346C01A8642E7D3002EE5D049462B68CD
:103910001A68114200D186E7DA69174240D1802245
:10392000D9691201114200D17DE7A6E72B69002B6E
:1039300000D057E7BA46002754E71962EFF310802A
:10394000012282F310882968164C0B6823400B6013
:1039500080F31088EFF3108082F3108829688B6859
:1039600093438B6080F310882B6E012B0AD1EFF309
:10397000108183F3108810202A6813688343136032
:1039800081F31088802320220821EA50002364322A
:103990002B66AB66A9500C3AAB549DE72B683EE70B
:1039A0001F62CBE7DFFEFFFFF0B557464E464546A8
:1039B000DE46E0B51E008023C35805000F0014004A
:1039C00083B0202B5DD1002953D0002A51D0802311
:1039D00082685B019A4204D10369002B01D1CB07B5
:1039E00047D40023984642468433EA502232043BAF
:1039F000EA5043462B66FEF76FFD58238022EC52B7
:103A00000233EC52AB6881465201934200D1ABE0E5
:103A1000002B38D080225205934200D1AEE05C23C7
:103A20004246EA5200239A46002301935A23EB5A56
:103A3000002B00D18DE0042320249B462A68082314
:103A40009846731C28D1D3691C42FCD0002F00D1AA
:103A50006FE0536A524613405A223B70AB5A01370B
:103A6000013B9BB2AB52AB5A002B00D171E02A68EC
:103A7000E5E7012003B0F0BCBB46B246A946A0462C
:103A8000F0BD0220F6E72B69002B67D05C237F2274
:103A9000EA5223339A46C7E7D3691C42D6D1FEF7D0
:103AA0001BFD4B46C01A86423ED3002E3CD05946E1
:103AB0002A6813681942C4D04146D369194266D1B5
:103AC0008023D1691B011942BBD01362EFF3108030
:103AD000012282F310882968454C0B6823400B6053
:103AE00080F31088EFF3108082F3108829688B68C8
:103AF00093438B6080F310882B6E012B0AD1EFF378
:103B0000108183F3108810202A68136883431360A0
:103B100081F31088202280238421EA5000232B6621
:103B2000AB666A505832AB54802320220320EA50FF
:103B3000A0E75146536A0B4001990B808B1C5A2118
:103B400001936B5A013B9BB26B526B5A002B00D016
:103B500075E7802320220020EA508BE75C23FF22B8
:103B6000EA52A3339A465FE72B69002BF6D15C2219
:103B7000204B01979A460027AB5257E72B69002B41
:103B800084D05C233F22EA521D3B9A464CE71162E7
:103B9000EFF31080012282F310882968144C0B681F
:103BA00023400B6080F31088EFF3108082F31088BD
:103BB00029688B6893438B6080F310882B6E012BF0
:103BC0000AD1EFF3108183F3108810202A6813685C
:103BD0008343136081F31088802320220821EA5058
:103BE000002364322B66AB66A9500C3AAB549BE7BA
:103BF000DFFEFFFFFF01000003008020185870B5B2
:103C0000202851D100294DD0002A4BD0802498681B
:103C10006401A0424AD000251C685D4E1D66B44276
:103C200000D19DE0656880242E00240426402542B2
:103C30005FD1596558215A5202315A529E66002866
:103C400000D085E01A69002A4FD15C22FF219952E9
:103C5000842200219950043A22319950EFF31084C4
:103C6000012080F3108819688A6802438A6084F30F
:103C70001088802299685201914256D0454A9A662E
:103C80001A69002A56D0EFF31081012282F31088BE
:103C90001A68902310685B000343136081F3108857
:103CA000002000E0012070BD0220FCE71C69002C10
:103CB00002D10120CD07F6D400251868344E1D66C8
:103CC000B04257D0456880202E00000406400542CF
:103CD0000FD1596558215A5202315A529E66002C12
:103CE000B3D15C222C499952B2E75C227F219952D0
:103CF000AEE7EFF31085012080F3108880201C6868
:103D0000C00426683043206085F310885965582127
:103D100098685A5202315A5200229A668022520101
:103D2000904200D08BE71C69D9E71A69002A1ED19E
:103D30001A4A9A66EFF31081012282F3108820203C
:103D40001A6813680343136081F310880020AAE700
:103D500080225205904214D05C220021995277E7CC
:103D6000596558215A5202315A529D6667E7094AED
:103D70009A6688E7596558215A5202315A529D660F
:103D8000ADE71A69002AB0D05C223F2199525FE763
:103D900000480040F9410008FF010000B941000857
:103DA0007047C0467047C04600235A2210B5806A4B
:103DB0008352083A8352FFF7F5FF10BD7047C046A3
:103DC000F0B5D6464F46464602680400D369B0486F
:103DD0001168C0B59568034251D12020184202D025
:103DE000084200D0EAE0206E01281CD08020400369
:103DF000034202D06D0200D5E5E080221A420AD1CA
:103E000040221A4202D00A4200D0E5E0E0BCBA46A5
:103E1000B146A846F0BD0A42F2D0E36E002BF5D0C1
:103E200020009847F2E710261E42DFD00E42DDD078
:103E300040231D00166292681540134200D1E5E050
:103E4000626F15686A6892B2002ADFD058218A46EC
:103E5000615A9142DAD95A27E253202217002D687D
:103E60002F40BC462A4200D11AE102236366583330
:103E7000E35A2000C91A89B2FFF7A0FFC6E701265E
:103E8000370084482F4008403843ACD01E4206D04B
:103E9000C80504D584251662605906436651022080
:103EA000184200D184E0002F0ED084260425106231
:103EB000A0592843A0511D4206D004208425022683
:103EC000106260593043605108251D4208D02020FF
:103ED0000840074304D084261562A0590543A55124
:103EE00080200001034207D04D0105D584252026FE
:103EF000106260593043605184202058002800D15E
:103F000084E72020184201D0084278D18426402539
:103F1000A15993681D4028230B401D4300D1B2E0F6
:103F2000EFF31080012282F3108821685A4D0B684C
:103F30002B400B6080F31088EFF3108082F3108821
:103F400021688B6893438B6080F31088236E012B6C
:103F50000AD1EFF3108183F31088102022681368D0
:103F60008343136081F3108880232022E2500023D2
:103F70002366A366236820329B681A4228D0EFF399
:103F80001080012383F3108821688B6893438B6032
:103F900080F31088606F00281AD0404B8363FEF7CF
:103FA0003BFB002800D131E7606F836B98472DE71A
:103FB000580789D5002F00D07FE785E7A36E002B37
:103FC00000D02DE722E71062200000F045FC1DE73D
:103FD0002000FFF7E7FE19E7EFF31080012383F3DA
:103FE000108821680B6893430B6080F310882023AE
:103FF000E36700232000E366FFF7D2FE06E7A36E27
:10400000002B83D02000984722687FE75A22A35ACA
:10401000A25A9BB2002A00D1F8E65822A15AC91A26
:1040200089B2002900D1F1E6EFF3108780F3108800
:10403000236899461B6898464246174B1A4013005E
:104040004A46136087F31088EFF3108780F31088D7
:10405000226893688343936087F31088802320222B
:10406000E2502566A566EFF3108580F3108822687C
:104070001368B343136085F310880223200063663E
:10408000FFF79CFEC2E62000FFF78CFEA551BDE6BF
:104090000F08000020010004DFFEFFFFA93D00081B
:1040A000EFF3108880F310882568174F296839408E
:1040B000296088F31088EFF3108880F31088256852
:1040C000A9688143A96088F31088EFF3108880F312
:1040D00010882568A9689943A96088F3108840333F
:1040E000E25063462366EFF3108180F31088226864
:1040F0001368B343136081F31088606FFEF76AFAA8
:104100005346E15AB1E6C046FFFEFFFF10B5EFF39C
:10411000108C012383F310880168244C0A68224024
:104120000A608CF31088EFF3108C83F31088016819
:104130008A689A438A608CF31088802220218150FB
:1041400000221B498266426602688A4202D0526897
:10415000120218D4036E012B23D100220266EFF362
:10416000108483F31088016810320B6893430B604E
:1041700084F310880368D9690A4215D15823C15ABB
:10418000FFF71CFE10BDEFF3108183F31088026867
:10419000084C13682340136081F31088036E012BD1
:1041A000DBD0FDF765FEEDE71A62E7E7DFFEFFFF14
:1041B00000480040FFFFFFFB8023C35810B5222BAF
:1041C00005D00821026893690B43936110BD5C21FF
:1041D0000368415A5A6A436D0A401A805A220233D0
:1041E0004365835A013B9BB28352835A002BEDD126
:1041F000FFF78CFFEAE7C0468023C35810B5222B97
:1042000005D00821026893690B43936110BD5C22BD
:104210000368825A5B6A1340426D13705A22436DE1
:1042200001334365835A013B9BB28352835A002B6F
:10423000ECD1FFF76BFFE9E7436A30B5DA0706D543
:104240000168284C4A682240846A22434A609A07DF
:1042500006D50168244C4A682240C46A22434A6059
:104260005A0706D50168214C4A682240046B224354
:104270004A601A0706D501681D4C4A682240446B03
:1042800022434A60DA0606D501681A4C8A68224041
:10429000846B22438A609A0606D50168164C8A68A8
:1042A0002240C46B22438A605A060AD50168134D26
:1042B0004A68046C2A4022434A6080225203944296
:1042C00009D01B0606D502680D4953680B40816C66
:1042D0000B43536030BD4A680A4C2240446C224371
:1042E0004A60EEE7FFFFFDFFFFFFFEFFFFFFFBFF62
:1042F000FF7FFFFFFFEFFFFFFFDFFFFFFFFFEFFF8E
:10430000FFFFF7FFFFFF9FFFF0B584230022C646A3
:10431000040000B5C250FEF7DFF8236805001A68F4
:1043200012070FD41A6852073ED420238022E36775
:10433000A35000230020083A23666366A35480BC80
:10434000B846F0BDDA699202ECD48026082304272F
:104350009846B60410E023681A68174209D041460F
:10436000DA6911425ED18022D9691201114200D06E
:1043700089E0DA699202D5D4FEF7AEF8401BB0426C
:10438000E9D3EFF31081012383F3108880202268A2
:1043900013688343136081F3108820230022E367AE
:1043A0005833E2547D38CAE7DB695B02BDD480260E
:1043B000082304279846B60411E023681A681742B8
:1043C0000AD04146DA69114200D08CE08022D969D6
:1043D0001201114200D0B7E0DB695B02A5D4FEF701
:1043E0007BF8401BB042E8D3EFF31080012282F348
:1043F000108821686C4D0B682B400B6080F310888F
:10440000EFF3108082F3108821688B6893438B60F0
:1044100080F3108880231F32E2500022083B0320E3
:10442000E2548CE71962EFF31080012282F31088C6
:1044300021685D4D0B682B400B6080F31088EFF313
:10444000108082F3108821688B6893438B6080F31F
:104450001088236E012B0AD1EFF3108183F31088AB
:104460001020226813688343136081F3108880232F
:1044700020220821E250002364322366A366A15063
:104480000C3AA3547DE71A62EFF31080012282F305
:1044900010882168444D0B682B400B6080F3108816
:1044A000EFF3108082F3108821688B6893438B6050
:1044B00080F31088236E012B0AD1EFF3108183F370
:1044C00010881020226813688343136081F31088DA
:1044D000202280238421E25000232366A3666250B9
:1044E0005832A3544DE71962EFF31080012282F392
:1044F000108821682C4D0B682B400B6080F31088CE
:10450000EFF3108082F3108821688B6893438B60EF
:1045100080F31088236E012B0AD1EFF3108183F30F
:1045200010881020226813688343136081F3108879
:10453000802320220821E250002364322366A366F0
:10454000A1500C3AA3544FE71A62EFF310800122F6
:1045500082F310882168144D0B682B400B6080F3A8
:104560001088EFF3108082F3108821688B689343E2
:104570008B6080F31088236E012B0AD1EFF310813A
:1045800083F310881020226813688343136081F33B
:104590001088202280238421E25000232366A36612
:1045A00062505832A3541FE7DFFEFFFFF8B5041E28
:1045B00000D1D3E0C36F002B57D024230121E36740
:1045C000236825691A688A431A60A26818682A4312
:1045D0006569E1692A438C4D0A43284002431A6009
:1045E0005A688A480240E068024389485A60A269D2
:1045F00083423FD0256A98682A43864D284002436B
:104600009A60854A934208D0844A934200D1A7E039
:1046100000230120A366E366F8BD814BDA6C032317
:104620001340013B022B61D980231B02994200D128
:10463000E3E0FEF767FD002877D10023A366E36679
:10464000636A002B00D085E0236876495A68200011
:104650000A402A215A609A688A439A601A6829395E
:104660000A431A60FFF750FED6E778228354FDF71D
:104670007BFEA2E79968674801400A439A60C0221E
:10468000802167481201C36C090113408B4271D02D
:104690000AD8002B6BD08022D2009342B8D1FEF70B
:1046A000F3F80028C9D003E09342B1D18020000282
:1046B00065686B005B198342AAD82B039842A7D880
:1046C0000027030E02026E0892197B4110001900A8
:1046D0002A000023FBF7DEFD534BC218534B9A42CE
:1046E00096D82368D860A766E766A9E7504AD35CE6
:1046F0008022120291424CD0082B00D988E74D4A03
:104700009B00D3589F46FEF7EDFC94E7FEF7BCF8FC
:1047100091E71020424B1B68184043425841464BDA
:1047200040421840454B9C466044636861685B08A2
:104730001818FBF7E9FC0200414B103A9A4200D9E5
:1047400066E72368D8600023A366E366636A002BEC
:1047500000D179E72000FFF76FFD75E701205BE7E7
:104760002F4BDA6C0C231340364AD35CC0E7FEF7BC
:10477000B9FC96E7036810201840434258412E4B7D
:10478000404218402D4B9C46604491E78020000237
:10479000CBE7082B00D93BE72B4A9B00D3589F4619
:1047A000FEF772F8002800D147E7400063686168AF
:1047B0005B081818FBF7A8FC0200214B103A9A423C
:1047C00000D925E7214B226803400007400F18431A
:1047D0000023D060A366E36632E71020104B1B680D
:1047E0001840434258411A4B40421840194B9C46CE
:1047F0006044DBE7FEF776FCD4E7FEF783FCD1E705
:1048000080204002D2E7C046F369FFEFFFCFFFFFF1
:1048100000480040FFF4FFFF003801400044004022
:1048200000100240FFB7FFFF00FDFFFFFFFC0F007D
:104830007C5A0008345A0008001BB70000093D00EC
:10484000EFFF0000805A0008585A0008F0FF0000EF
:1048500000366E0100127A007047C04670B500261F
:104860000C4D0D4C641BA410A64209D1002600F08B
:1048700021F80A4D0A4C641BA410A64205D170BD54
:10488000B300EB5898470136EEE7B300EB58984772
:104890000136F2E7985A0008985A0008985A00081A
:1048A0009C5A000803008218934200D17047197087
:1048B0000133F9E7F8B5C046F8BC08BC9E4670471E
:0C48C000F8B5C046F8BC08BC9E46704726
:1048CC002E0F130308000000000000000000000081
:1048DC0000000000000000000000000000000000CC
:1048EC0000000000000000000000000000000000BC
:1048FC00000002000000FE47000000000000000065
:10490C00000000000000000000000000000000009B
:10491C00000000000000000000000000000000008B
:10492C00040000003E00000000003E0000000000FB
:10493C00000000000000000000000000000000006B
:10494C000000000000000000000000000000082033
:10495C000400207400F00F002E0400207400F00FEF
:10496C00002E0400200400000000000000000000E5
:10497C000000000000000000000000000800000023
:10498C00781800C62000824000FFFF01024100069B
:10499C0023000C1E000000000000000000000000BE
:1049AC00000000000000000000000B0000007C0074
:1049BC00008200008240007C3800000700E000000C
:1049CC00183E00064100004100003E0000000000BF
:1049DC0000000000000000000B000000001F00BCE5
:1049EC002100C64000C241004242006664003C3CCB
:1049FC0000002E00006300004000000000000000DA
:104A0C00000000000000020000003E00000000005A
:104A1C00000000000000000000000000000000008A
:104A2C00000000000000000000000000000000007A
:104A3C000000000005000000000000E07F001CC02A
:104A4C000302000400000000000000000000000051
:104A5C00000000000000000000000000000000004A
:104A6C000000030200041CC003E07F0000000000F3
:104A7C00000000000000000000000000000000002A
:104A8C00000000000000000000000000000000001A
:104A9C00050400003400000E000034000004000087
:104AAC0000000000000000000000000000000000FA
:104ABC0000000000000000000000000000000A00E0
:104ACC000000000200000200000200000200C01FF3
:104ADC0000000200000200000200000200000000C2
:104AEC0000000000000000000000000002000002B6
:104AFC0000C00100000000000000000000000000E9
:104B0C000000000000000000000000000000000099
:104B1C00000000000000000000000400040000047D
:104B2C000000040000040000000000000000000071
:104B3C000000000000000000000000000000000069
:104B4C000000000000000000020000000040000017
:104B5C000000000000000000000000000000000049
:104B6C000000000000000000000000000000000039
:104B7C0000000000000004004000003E00E00100C6
:104B8C001E000000000000000000000000000000FB
:104B9C000000000000000000000000000000000009
:104BAC000000000008F80F00063000036000014010
:104BBC0000014000036000063000F80F0000000008
:104BCC0000000000000000000000000000000000D9
:104BDC00000005000000100000080000040000FFA9
:104BEC007F0000000000000000000000000000003A
:104BFC0000000000000000000000000000000000A9
:104C0C00080C600002500001480001440001420001
:104C1C00814100C240003C40000000000000000048
:104C2C00000000000000000000000000000008046C
:104C3C0018000220000140008140008140008140AA
:104C4C0000C221003C1F000000000000000000001A
:104C5C00000000000000000000000000080006003A
:104C6C008005004004003004000C0400FF7F0000AD
:104C7C000400000400000000000000000000000020
:104C8C000000000000000000000008F018006F2079
:104C9C0000214000214000214000616000C1300033
:104CAC00810F000000000000000000000000000068
:104CBC00000000000000000008F80F0086300042E1
:104CCC006000414000414000414000822000041F30
:104CDC0000000000000000000000000000000000C8
:104CEC000000000000000801000001000001780035
:104CFC00010700E100003900000D00000300000076
:104D0C000000000000000000000000000000000097
:104D1C0000000000083C1F00C221008140008140BF
:104D2C0000814000814000C221007C1F0000000077
:104D3C000000000000000000000000000000000067
:104D4C000000087C10008620000341000141000196
:104D5C004100012100863800F80700000000000027
:104D6C000000000000000000000000000000000037
:104D7C0002000000204000000000000000000000C5
:104D8C000000000000000000000000000000000017
:104D9C000000000000000000000000000000020005
:104DAC00000220C001000000000000000000000014
:104DBC0000000000000000000000000000000000E7
:104DCC0000000000000000000000000008000000CF
:104DDC000001008002008002004004002008002036
:104DEC00080010100000000000000000000000008F
:104DFC00000000000000000000000800000040045B
:104E0C000040040040040040040040040040040042
:104E1C004004000000000000000000000000000042
:104E2C00000000000000000008000000101000202E
:104E3C0008002008004004008002008002000001ED
:104E4C000000000000000000000000000000000056
:104E5C000000000000000718000004000002000021
:104E6C00025C0002030084010078000000000000D6
:104E7C000000000000000000000000000000000026
:104E8C00000000000F000000803F0060C000180010
:104E9C00010C1F02C4600262400422400422200460
:104EAC00423804E247040440020C2002381801E0A6
:104EBC0087000B004000003800000700E002001CD7
:104ECC0002000202001C0200E00200000700003891
:104EDC000000400000000000000000000000000086
:104EEC0009000000FE7F00824000824000824000EA
:104EFC00824000824000C42100781F0000000000A6
:104F0C0000000000000000000000000000000A008B
:104F1C000000E007001818000420000240000240C6
:104F2C0000024000024000042000181C0000000099
:104F3C000000000000000000000000000A0000005B
:104F4C00FE7F0002400002400002400002400002CE
:104F5C0040000420000C1800F00F000000000000BE
:104F6C000000000000000000000009000000FE7FAF
:104F7C00008240008240008240008240008240005B
:104F8C008240008240000000000000000000000091
:104F9C00000000000000000009000000FE7F0082FD
:104FAC00000082000082000082000082000082006B
:104FBC0000020000000000000000000000000000E3
:104FCC000000000000000B000000E00700181800B3
:104FDC000420000240000240000241000241000295
:104FEC006100042100183F000000000000000000D8
:104FFC00000000000A000000FE7F0080000080001E
:10500C000080000080000080000080000080000014
:10501C00FE7F000000000000000000000000000007
:10502C00000002000000FE7F0000000000000000F5
:10503C000000000000000000000000000000000064
:10504C000000000000000000000000000000000054
:10505C000700000000380000400000400000400045
:10506C00004000FE3F0000000000000000000000B7
:10507C0000000000000000000000000000000A001A
:10508C000000FE7F00000300800000C00000200133
:10509C000010060008180006200000400000000068
:1050AC0000000000000000000000000008000000EC
:1050BC00FE7F000040000040000040000040000067
:1050CC004000004000000000000000000000000054
:1050DC00000000000000000000000C000000FE7F3B
:1050EC0000060000380000C00300001C0000600037
:1050FC00001C008003007000000E0000FE7F00000A
:10510C0000000000000000000A000000FE7F000408
:10511C00000018000060000080010000060000186C
:10512C0000002000FE7F00000000000000000000D6
:10513C000000000000000B000000E0070018180041
:10514C000420000240000240000240000240000423
:10515C002000181800E0070000000000000000000C
:10516C000000000009000000FE7F000201000201A7
:10517C00000201000201000201008600007800001C
:10518C000000000000000000000000000000000013
:10519C0000000B000000E0070018180004200002BB
:1051AC0040000240000258000270000420001878F1
:1051BC0000E0CF0000000000000000000000000034
:1051CC000B000000FE7F0002010002010002010042
:1051DC00020100020100020700860C00783000007A
:1051EC00400000000000000000000000000009006A
:1051FC000000381800442000824000824000024128
:10520C0000024100042200181C00000000000000F5
:10521C000000000000000000000000000902000077
:10522C00020000020000020000FE7F0002000002EB
:10523C00000002000002000000000000000000005E
:10524C00000000000000000000000A000000FE1F2B
:10525C000000200000400000400000400000400022
:10526C00004000002000FE1F0000000000000000B5
:10527C0000000000000000000B0200001C0000E019
:10528C000000000700003800004000003800000754
:10529C0000E000001C000002000000000000000004
:1052AC000000000000000E0000003E0000C01F00C7
:1052BC00006000001C00C00300380000060000382D
:1052CC000000C00300001E00006000C01F003E0074
:1052DC00000000000A0240000420001818002004FE
:1052EC0000C00300C00300200400181800042000B4
:1052FC000240000000000000000000000000000060
:10530C000000090200000C0000300000C00000008A
:10531C007F00C000003000000C0000020000000004
:10532C000000000000000000000000000000000071
:10533C0009026000025000024C000242008241004F
:10534C004240003240000A400006400000000000CD
:10535C00000000000000000000000000000004003D
:10536C000000FEFF07020004020004000000000021
:10537C000000000000000000000000000000000021
:10538C000000000000000000000000000406000007
:10539C00F80000001F00006000000000000000008A
:1053AC0000000000000000000000000000000000F1
:1053BC0000000000000000000000030200040200D6
:1053CC0004FEFF07000000000000000000000000C9
:1053DC0000000000000000000000000000000000C1
:1053EC0000000000000000000780000060000018B2
:1053FC0000000600001800006000008000000000A3
:10540C000000000000000000000000000000000090
:10541C000000000000000900000100000100000174
:10542C00000001000001000001000001000001006B
:10543C00000100000000000000000000000000005F
:10544C0000000000030000000200000C000000003F
:10545C000000000000000000000000000000000040
:10546C000000000000000000000000000000000030
:10547C00000008000000803C004066002042002034
:10548C004200204200203100C07F000000000000DC
:10549C000000000000000000000000000000000000
:1054AC0008000000FE7F004020002040002040004B
:1054BC00204000402000801F000000000000000081
:1054CC000000000000000000000000000000078049
:1054DC001F004020002040002040002040006020A1
:1054EC000080180000000000000000000000000018
:1054FC000000000000000000000000000800000098
:10550C00801F004020002040002040002040004030
:10551C002000FE7F000000000000000000000000E2
:10552C000000000000000000000008000000801FC8
:10553C000040220020420020420020420040220075
:10554C0080130000000000000000000000000000BC
:10555C00000000000000000005200000FC7F00227D
:10556C00000022000002000000000000000000000B
:10557C00000000000000000000000000000000001F
:10558C0000000000000008000000801F0340200401
:10559C00204004204004204004402002E0FF010091
:1055AC0000000000000000000000000000000000EF
:1055BC000000000008000000FE7F004000002000FA
:1055CC0000200000200000600000C07F00000000F0
:1055DC0000000000000000000000000000000000BF
:1055EC00000002000000E27F00000000000000004C
:1055FC00000000000000000000000000000000009F
:10560C00000000000000000000000000000000008E
:10561C0002000004E2FF0700000000000000000090
:10562C00000000000000000000000000000000006E
:10563C000000000000000000000000000000070057
:10564C000000FE7F000002000003008004004018F0
:10565C0000206000000000000000000000000000BE
:10566C00000000000000000000000000020000002C
:10567C00FE7F0000000000000000000000000000A1
:10568C00000000000000000000000000000000000E
:10569C00000000000000000000000C000000E07F93
:1056AC0000400000200000200000200000C07F000F
:1056BC00400000200000200000200000C07F0000FF
:1056CC00000000000000000008000000E07F004027
:1056DC000000200000200000200000600000C07FBF
:1056EC0000000000000000000000000000000000AE
:1056FC0000000000000008000000801F0040200097
:10570C00204000204000204000402000801F00006E
:10571C00000000000000000000000000000000007D
:10572C000000000008000000E0FF074020002040BF
:10573C0000204000204000402000801F000000009E
:10574C00000000000000000000000000000000004D
:10575C00000008000000801F0040200020400020B6
:10576C004000204000402000E0FF07000000000047
:10577C00000000000000000000000000000000001D
:10578C0005000000E07F00400000200000600000E9
:10579C0000000000000000000000000000000000FD
:1057AC0000000000000000000000000000000700E6
:1057BC000000C03100204200204200204400204460
:1057CC0000C03800000000000000000000000000D5
:1057DC00000000000000000000000000032000009A
:1057EC00FC7F0020400000000000000000000000D2
:1057FC00000000000000000000000000000000009D
:10580C000000000000000000000008000000E03F65
:10581C00000060000040000040000040000020003C
:10582C00E07F00000000000000000000000000000D
:10583C000000000000000000076000008003000072
:10584C003C00004000003C008003006000000000B1
:10585C00000000000000000000000000000000003C
:10586C000000000000000B600000800300001C0022
:10587C00006000801F00600000801F0000600000BE
:10588C001C0080030060000000000000000000000D
:10589C000000000007204000C03000000900000696
:1058AC0000000900C0300020400000000000000093
:1058BC0000000000000000000000000000000000DC
:1058CC00000007600004800304003C0200C00100DB
:1058DC003C0080030060000000000000000000009D
:1058EC0000000000000000000000000000000000AC
:1058FC000720600020500020480020460020410076
:10590C00A04000604000000000000000000000000B
:10591C000000000000000000000000000000050076
:10592C000400000E00FCFB03020004020004000053
:10593C00000000000000000000000000000000005B
:10594C000000000000000000000000000200000049
:10595C00FEFF070000000000000000000000000037
:10596C00000000000000000000000000000000002B
:10597C00000000000000000000000502000402000E
:10598C0004FCFB03000E00000400000000000000FB
:10599C0000000000000000000000000000000000FB
:1059AC0000000000000000000800010080000080E2
:1059BC0000008000000001000001000001008001D7
:1059CC0000000000000000000000000000000000CB
:1059DC0000000000000005FE3F0002200002200035
:1059EC00022000FE3F00000000000000000000004C
:1059FC00000000000000000000000000000000009B
:105A0C000000000000000000000000000102030480
:105A1C00060708090000000001020304030406083D
:105A2C000C10182030000000064700083246000811
:105A3C0012470008104600080C47000810460008E2
:105A4C0010460008104600088C470008F447000870
:105A5C00FA470008DA47000810460008A04700087B
:105A6C0010460008104600081046000800480008C0
:105A7C000402080000101010041010100210101076
:045A8C00080000000E
:085A9000A0A8FF7F0100000047
:045A9800E900000819
:045A9C00C10000083D
:105AA00000001F00E00700F8E0FFFFFF010000001A
:0C5AB000000020000100000004000000C5
:04000005080023F9D3
:00000001FF
