:020000040800F2
:1000000000200020AD1500088115000883150008A8
:1000100000000000000000000000000000000000E0
:100020000000000000000000000000008B15000828
:1000300000000000000000008D1500088F1500086A
:10004000FD150008FD150008FD150008FD15000848
:10005000FD150008FD150008FD150008FD15000838
:10006000FD150008FD150008FD150008FD15000828
:10007000FD150008FD15000800000000FD15000832
:1000800000000000FD150008000000000000000056
:10009000FD15000800000000FD150008FD15000812
:1000A000FD150008FD150008FD150008991500084C
:1000B000FD150008FD15000800000000FD150008F2
:1000C00010B5064C2378002B07D1054B002B02D02E
:1000D000044800E000BF0123237010BD1C00002075
:1000E0000000000010330008044B10B5002B03D0B3
:1000F0000349044800E000BF10BDC04600000000F6
:10010000200000201033000802B47146490849005D
:10011000095C49008E4402BC7047C04603B4714676
:10012000490840004900095E49008E4403BC7047FD
:10013000002243088B4274D303098B425FD3030A26
:100140008B4244D3030B8B4228D3030C8B420DD339
:10015000FF22090212BA030C8B4202D312120902C7
:1001600065D0030B8B4219D300E0090AC30B8B4205
:1001700001D3CB03C01A5241830B8B4201D38B03B3
:10018000C01A5241430B8B4201D34B03C01A524158
:10019000030B8B4201D30B03C01A5241C30A8B429B
:1001A00001D3CB02C01A5241830A8B4201D38B0286
:1001B000C01A5241430A8B4201D34B02C01A52412A
:1001C000030A8B4201D30B02C01A5241CDD2C3099C
:1001D0008B4201D3CB01C01A524183098B4201D318
:1001E0008B01C01A524143098B4201D34B01C01A03
:1001F000524103098B4201D30B01C01A5241C3087B
:100200008B4201D3CB00C01A524183088B4201D3E9
:100210008B00C01A524143088B4201D34B00C01AD5
:100220005241411A00D20146524110467047FFE741
:1002300001B5002000F006F802BDC0460029F7D045
:1002400076E770477047C046844608006146FFE77E
:100250001FB500F0B9F9002801D40021C8421FBD24
:1002600010B500F045F94042013010BD10B500F066
:10027000ABF9002801DB002010BD012010BDC046F5
:1002800010B500F0A1F9002801DD002010BD01200B
:1002900010BDC04610B500F051F9002801DC002067
:1002A00010BD012010BDC04610B500F047F9002870
:1002B00001DA002010BD012010BDC046002B11D175
:1002C000002A0FD1002900D1002802D00021C94303
:1002D000080007B4024802A14018029003BDC046BE
:1002E00065FFFFFF03B4684601B5029800F034F8DB
:1002F000019B9E4602B00CBC7047C046F0B5CE468E
:10030000474680B5070099463B0C9C4613041B0CDE
:100310001D000E0061460004140C000C45434B43C5
:1003200060436143C0182C0C20188C46834203D9CB
:1003300080235B029846C444494679437243030CC8
:1003400063442D042D0CC918000440198918C0BC41
:10035000B946B046F0BDC046F0B557464E46454694
:10036000DE46E0B504000D009246994683B08B420C
:1003700030D82DD04946504600F0D6F92900060065
:10038000200000F0D1F9331A9846203B9B4633D425
:100390005A465346934042461F00534693401E0020
:1003A000AF423AD8AF4200D178E05B46A41BBD41D2
:1003B000002B00DA75E00022002300920193012354
:1003C0005A4693400193012342469340009328E00C
:1003D0008242CFD900220023009201930C9B002B74
:1003E00001D01C605D600098019903B0F0BCBB4671
:1003F000B246A946A046F0BD424620239B1A52466B
:10040000DA40414613004A468A40170042461F43DD
:10041000534693401E00AF42C4D9002200230092ED
:1004200001934346002BD9D0FB0772081A43464676
:100430007B080EE0AB4201D1A2420CD8A41A9D4128
:10044000012024196D410021013E24184D41002E48
:1004500006D0AB42EED9013E24196D41002EF8D1F1
:10046000009801995B4600196941002B24DB2B00A1
:100470005A464446D3402A00E2401C005B46150021
:10048000002B2ADB26009E40330026004746BE4054
:100490003200801A9941009001919FE7A342BCD895
:1004A00083E74246202300219B1A002200910192FB
:1004B0000122DA40019286E7424620239B1A2A0055
:1004C00046469A402300F340444613432A00E24044
:1004D0001C005B461500002BD4DA42462F00202377
:1004E000260097409B1ADE403B003343CDE7C046D1
:1004F00070B5420045024E024C00C30F6D0A012048
:10050000120E760A240EC90FFF2A06D0FF2C03D044
:10051000A24201D1B54206D070BD002DFCD1FF2C06
:10052000FAD1002EF8D18B4206D00120002AF3D157
:100530002800431E9841EFE70020EDE770B5420028
:1005400045024E024C00C30F6D0A120E760A240EAD
:10055000C80FFF2A1BD0FF2C0ED0002A1BD1002C65
:1005600001D1002E1CD0002D0CD083421CD00221C2
:10057000581E0840013870BD002E22D1002AF4D147
:10058000002DF2D10028F6D101204042F3E7002DE2
:1005900017D1FF2CF0D0002CE7D1002EE5D1E6E7F3
:1005A0000020002DE7D0E2E7A24205DCEADBB542FD
:1005B00002D8E7D30020DEE743425841400001382B
:1005C000D9E702204042D6E770B5420045024E020C
:1005D0004C00C30F6D0A120E760A240EC80FFF2AB4
:1005E0000BD0FF2C0DD0002A1FD1002C16D1002ECD
:1005F00014D10020002D10D009E0002D0CD1FF2CCB
:1006000013D1002E08D1002A08D0834212D0022133
:10061000581E0840013800E0022070BD002DF4D1C2
:100620000028FAD101204042F7E7002CEDD1002E3E
:10063000EBD1ECE7A24205DCF2DBB54202D8EFD306
:100640000020EAE74342584140000138E5E7C04650
:10065000F8B5002813D0C317C6185E40C40F300089
:1006600000F044F89E2305001B1A962B0FDC082887
:1006700001DD083DAE407602760AD8B202E00024E1
:1006800000200026C0053043E4072043F8BD992B25
:100690000CDD05223100121AD1400A0001003000A1
:1006A0001B318840411E884102431600052D12DC93
:1006B00031000D4F3940720709D00F203040042817
:1006C00005D004314A0102D59F2339405B1B8901C3
:1006D0004E0AD8B2D6E76A1F96403100024F394021
:1006E0007207F4D0E9E7C046FFFFFFFB1C2101239E
:1006F0001B04984201D3000C10391B0A984201D305
:10070000000A08391B09984201D30009043902A2E2
:10071000105C40187047C046040302020101010149
:10072000000000000000000010B5002903D1FFF711
:10073000DDFF203002E00800FFF7D8FF10BDC04603
:10074000F0B51C008DB0531E029301235500524298
:100750009A405D1B049307930023059006910B922A
:100760000393029B039A934201DA0DB0F0BD6B46EE
:10077000059A1B8900939B189BB208936B46069AB7
:100780009B8908989F18BFB239002200019300F09E
:1007900098FB059A019B9B189BB2069A0993009BB4
:1007A00009989E18B6B23100220000F08AFB019A27
:1007B000059B31009B1A9BB2180022000A9300F09F
:1007C00080FB059B009A39009E1AB6B230002200C9
:1007D00000F077FB069B019A30009F1ABFB22200FF
:1007E000390000F06EFB069B009A0A989E1AB6B27A
:1007F0002200310000F065FB22003100099800F072
:1008000060FB22003900089800F05BFB002D08DC3B
:10081000039B01330393049BED1802330493002DD3
:100820009FDD029B013B0293079B02330793079ACC
:100830000B9B9B18ED1894E7F0B589B01C00019252
:1008400053000122D31A039300231D000490059145
:1008500002936B00019A0793049B9E1A049B019AD2
:100860009B18B3421FDA049B5E1B049B5B199E42DC
:100870002CDD079A029B9446039A634402935B0023
:100880009B180135002B09DD9446019B013B019328
:10089000029B63440293130002330393019BAB4218
:1008A000D7DA09B0F0BD059BAAB29918B7B22200F9
:1008B000380089B200F005FB059BAAB2991A3800EE
:1008C000220089B200F0FDFA0136C7E76B46059AAF
:1008D0009B88B7B299183800220089B2069300F0BD
:1008E000F0FA069A059B3800991A89B2220000F0A6
:1008F000E8FA0136B9E7F0B585B000930AAB1F8876
:10090000009B0600581A0D000292FFF7A1FE029B01
:1009100003909C1B2000FFF79BFE0021FFF7A6FC25
:1009200000282DD1A3B2019329003B003000019A89
:1009300000F021FB3B003000019A009900F01BFB06
:1009400000210398FFF792FC009B5C1B002800D05D
:10095000EC1AA4B23B0022002900300000F024FB76
:100960003B0022002900029800F01EFB019B23435C
:1009700004D03A000099029800F0A3FA05B0F0BD47
:10098000029BF41ACEE7E3B51D0006AB16001F88E4
:10099000121A6B1A002A07DB92B2002B08DB9BB2FB
:1009A000009700F0C4FAE3BD801B82B23000F4E788
:1009B000491B8BB22900F3E7F0B58BB0059310AB60
:1009C0001B880D00099311AB198803001F3B04928B
:1009D000602B37D86B7820380293AB786A46039344
:1009E000EB78128906932B780026434307936B46D6
:1009F00004989B890091059900F099FA039B9E4207
:100A000020DA0723012233409A40D3B20893079B90
:100A1000F410E41800272C190FE06379089A1342A8
:100A200008D0059B099A9919049B89B2D81980B2FC
:100A300000F047FA069B0137E418029B9F42ECDB6B
:100A40000136DBE70BB0F0BDF0B505000E00140079
:100A500087B003930CAB1B884F7804930DAB1B88B6
:100A600005930B7802932878002801D107B0F0BDD8
:100A7000059B22000193049B31000093039BFFF729
:100A80009BFF2B78029A203B5343F3181A79931C4F
:100A9000BB4204DA0234A418A4B20135E3E7E41936
:100AA000FAE7000013B56B46D91D0223087005480C
:100AB0000468A2681A42FCD00A23012201F0E4FC77
:100AC00013BDC0463C00002070B50400074D002255
:100AD0002800022100F054FF28000022012100F02C
:100AE0004FFF2000FFF7DEFF70BDC046000400503E
:100AF00070B50400074D01222800022100F040FFDC
:100B000028000022012100F03BFF2000FFF7CAFF70
:100B100070BDC0460004005070B5012204000D00F5
:100B20000A48022100F02CFF01210848002200F0B1
:100B300027FF0223064801688A681A42FCD02A006F
:100B40000A23210001F0A0FC70BDC0460004005043
:100B50003C00002073B50E001D0001AC030A237099
:100B60006070130A2A20E270A370FFF7ADFF042122
:100B70002000FFF7D1FF330A23702B202B0AA3702C
:100B80006670E570FFF7A0FF04212000FFF7C4FFA7
:100B90002C20FFF799FF73BD10B50B4C00221021DC
:100BA000200000F0EDFE0A2000F074FD002201217B
:100BB000200000F0E5FE0A2000F06CFD012210216B
:100BC000200000F0DDFE10BD0004005010B5012231
:100BD0001021024800F0D4FE10BDC04600040050B1
:100BE00010B5FFF7F3FFFFF7D7FF0120FFF76CFF0A
:100BF0000A2000F04FFDCB20FFF766FF3920FFF7FA
:100C000077FF2C20FFF774FF0020FFF771FF3420DF
:100C1000FFF76EFF0220FFF76BFFCF20FFF754FFB7
:100C20000020FFF765FFC120FFF762FF3020FFF7CC
:100C30005FFFE820FFF748FF8520FFF759FF0020FE
:100C4000FFF756FF7820FFF753FFEA20FFF73CFF3E
:100C50000020FFF74DFF0020FFF74AFFED20FFF7D0
:100C600033FF6420FFF744FF0320FFF741FF12200A
:100C7000FFF73EFF8120FFF73BFFF720FFF724FF40
:100C80002020FFF735FFC020FFF71EFF2320FFF7CE
:100C90002FFFC120FFF718FF1020FFF729FFC52005
:100CA000FFF712FF3E20FFF723FF2820FFF720FF6A
:100CB000C720FFF709FF8620FFF71AFF3620FFF74E
:100CC00003FF4820FFF714FF3A20FFF7FDFE5520F1
:100CD000FFF70EFFB120FFF7F7FE0020FFF708FF38
:100CE0001820FFF705FFB620FFF7EEFE0820FFF7FC
:100CF000FFFE8220FFF7FCFE2720FFF7F9FEF2201F
:100D0000FFF7E2FE0020FFF7F3FE2620FFF7DCFEF0
:100D10000120FFF7EDFEE020FFF7D6FE0F20FFF7E2
:100D2000E7FE3120FFF7E4FE2B20FFF7E1FE0C2069
:100D3000FFF7DEFE0E20FFF7DBFE0820FFF7D8FEF0
:100D40004E20FFF7D5FEF120FFF7D2FE3720FFF748
:100D5000CFFE0720FFF7CCFE1020FFF7C9FE0320CF
:100D6000FFF7C6FE0E20FFF7C3FE0920FFF7C0FE07
:100D70000020FFF7BDFEE120FFF7A6FE0020FFF7F1
:100D8000B7FE0E20FFF7B4FE1420FFF7B1FE0320DC
:100D9000FFF7AEFE1120FFF7ABFE0720FFF7A8FE1E
:100DA0003120FFF7A5FEC120FFF7A2FE4820FFF784
:100DB0009FFE0820FFF79CFE0F20FFF799FE0C20F6
:100DC000FFF796FE3120FFF793FE3620FFF790FEE7
:100DD0000F20FFF78DFE1120FFF776FE642000F054
:100DE00059FC2920FFF770FE3620FFF76DFE012029
:100DF00000F050FC2820FFF77BFE10BD07B56A46C7
:100E0000030A50710221137101A8FFF785FE07BD87
:100E1000FA23F7B500AF0C0078604E005B009E42ED
:100E200000D31C00012202211C4800F0A9FD002271
:100E300001211A4800F0A4FD69467B681A0AE31DE7
:100E4000DB08DB00CB1A9D466D46591B8C4214D83B
:100E500021003000FFF7F2F938607960A64211D224
:100E60002900BA880A230E4801F00EFB01220B4824
:100E7000110000F085FDBD46F7BD79681A70597004
:100E80000233E2E700263B689E42E9D00A232900AC
:100E90000348A2B201F0F8FA0136F4E7000400506A
:100EA0003C0000200021A02210B5F02304005200D5
:100EB0000800FFF74FFE962120004902FFF7A8FF28
:100EC00010BDA02330B55B0085B098422DD2EF292C
:100ED0002BD802AC030A2370C3B203AD6370C9B24E
:100EE0000133E370697000230131E9706946013014
:100EF00080B200122B70AB70130A0B714A71A07094
:100F00002A20FFF7E1FD04212000FFF705FE2B203A
:100F1000FFF7DAFD04212800FFF7FEFD2C20FFF784
:100F2000D3FD022101A8FFF7F7FD05B030BD70B574
:100F30001500A0221C0004AB1E885200904219D25A
:100F4000EF2917D84319934201DD121A95B20B19F4
:100F5000F02B02DDF024641AA4B24B1E421EE318EB
:100F6000AA189BB292B2FFF7F5FD29003000614349
:100F7000FFF74EFF70BDF7B51F00A02305000E0060
:100F800001925B00984202D20400EF2907D9F7BD15
:100F900020003A003100FFF794FF0134A4B2019B16
:100FA000EB189C42F4DDF2E7F7B51F00A023060022
:100FB0000D0001925B00984202D20C00EF2907D984
:100FC000F7BD21003A003000FFF77BFF0134A4B2E7
:100FD000019BEB189C42F4DDF2E70000F0B5CB4C2E
:100FE000036822688FB0934200D086E1C84D2B7809
:100FF000002B00D181E101220A232000C54901F024
:1010000044FF2A78012A0BD1C34E0A233100200065
:1010100001F0A2FF3378C14A5B00985AFFF7EEFE59
:101020002B78022B16D1BC4E05223100083320004C
:1010300001F092FF3379F1781B020B43B1781B0268
:1010400019437378090219433378B44A5B00985AFC
:10105000FFF7DEFE2B78032B0CD1AF4E01220733B6
:101060003100200001F078FF3378AC4A5B00985AD9
:10107000FFF718FF2B78042B14D1A74E052231005F
:101080000633200001F068FF3379A44A5B00F17851
:101090009A5AB378707809021943337800021843DA
:1010A000FFF70FFF2B78052B1DD19B4E0922310036
:1010B0000533200001F050FFF379B2791B0213438E
:1010C0007279317912020A43F178B078090201434A
:1010D000707837780002367A3843904F7600F65BA6
:1010E0000096FFF724FF2B78062B18D18A4E072293
:1010F00031000433200001F02FFFB379874A5B00F1
:101100009B5A7279317912020A43F178B078090258
:1011100001437078377800023843FFF72CFF2A78B4
:10112000072A17D17C4E0A233100200001F014FF5A
:10113000B3797A4A5B009B5A7279317912020A4379
:10114000F178B078090201437078377800023843AB
:10115000FFF72AFF2B78082B18D16F4E072231009A
:101160000233200001F0F8FEB3796C4A5B009B5A11
:101170007279317912020A43F178B0780902014399
:101180007078377800023843FFF7DAFA2B78092BAA
:1011900018D1614E072231000133200001F0DCFE3E
:1011A000B3795E4A5B009B5A7279317912020A4325
:1011B000F178B0780902014370783778000238433B
:1011C000FFF73AFB2B780A2B1CD1534E0922310032
:1011D000200001F0C1FEF379B2791B02134372794A
:1011E000317912020A43F178B0780902014370782C
:1011F00037780002367A3843484F7600F65B00961F
:10120000FFF779FB2B780B2B1DD1434E09223100C0
:10121000013B200001F0A0FEF379B2791B021343D9
:101220007279317912020A43F178B07809020143E8
:10123000707837780002367A3843384F7600F65B9C
:101240000096FFF7A0FB2B780C2B1BD1324E072208
:101250003100023B200001F07FFE3379F2781B025F
:101260001343B278717812020A43B1792B4F4900C7
:10127000C95B3078019171794900C95B00912849B7
:10128000FFF79AFB2B780D2B32D100262422310058
:1012900005A8049602F034F80F276F440A230122B0
:1012A0003900200001F058FE3B783200002B26D197
:1012B00010216A4652189355174E062231000A3300
:1012C000200001F049FEF378B178727830781B0283
:1012D0000B4312027179024310484900095A0191E7
:1012E00031794900095A04A800910D49FFF7ACFB78
:1012F0002B780E2B01D1FFF773FC0FB0F0BD6946C0
:10130000102001360918F6B28B54C5E7940000206E
:10131000380000200C0000201C01002000000020EC
:101320002833000810B572B600F0FCF9FCE70000A5
:1013300010B59CB0242200210FA801F0E1FF142277
:10134000002101A801F0DCFF2022002106A801F005
:10135000D7FF1A491A4A0B6801241A4080231B013F
:1013600013430B6002230E931893002319938023D9
:10137000DB021A9380231022DB030EA81194129231
:101380001B9300F04BFB002801D0FFF7CBFF0F238E
:101390000390019304900C3B0590210001A8029357
:1013A00000F0BEFD0028F0D1089006A8069400F0D9
:1013B000A5FE0028E9D11CB010BDC0460070004059
:1013C000FFE7FFFF10B5012488B000F03DF9FFF7FB
:1013D000AFFF1422002103A801F092FF02212D4B40
:1013E0002D48DA6A2243DA62DA6A22400192019ACF
:1013F000DA6A0A43DA62DB6A00220B400293113197
:10140000029B00F0BDFA13230494002422480393A6
:1014100003A9103B0693059400F0F2F91F48204BF6
:101420008460036082235B004360FC338361FA3B8A
:10143000FF3BC46004614461C4610462446284622D
:10144000C36200F0BFFFA04201D0FFF76BFF154C55
:10145000154BA0602360E1235B0263600C23E06016
:101460002061A061E061206260622000636101F0A0
:1014700057FE011EE9D102001B2000F01DF91B20C0
:1014800000F044F9FFF7ACFB01222000074901F00E
:10149000DDFEF9E700100240000400503C0000208F
:1014A0000030014094000020003801403800002046
:1014B0000122054B596B0A435A638022996B5205EE
:1014C0000A439A637047C0460010024010B50400FA
:1014D00086B01422002101A801F012FF0F4B2268F0
:1014E0009A4218D180220E4B5201596BA0200A4318
:1014F00001215A63DA6AC0050A43DA62DB6A0B40EB
:101500000093009BE0230193DE3B02935B1801A94B
:10151000049300F075F906B010BDC04600300140DC
:101520000010024010B5040086B01422002101A86A
:1015300001F0E6FE104B22689A421BD180220F4B2D
:10154000D201596BA0200A4301215A63DA6AC0050F
:101550000A43DA62DB6A0B400093009BC023DB0086
:101560000193022302935B1804935B1801A905936E
:1015700000F046F906B010BD0038014000100240EE
:10158000FEE710B500F0CEF8FCE77047704710B5E5
:1015900000F06EF810BD000010B5024801F07AF8B6
:1015A00010BDC04694000020704700000D488546DD
:1015B000FFF7FAFF0C480D490D4A002302E0D4580A
:1015C000C4500433C4188C42F9D30A4A0A4C00238D
:1015D00001E013600432A242FBD301F06DFEFFF77D
:1015E000F1FEFEE700200020000000201C0000208B
:1015F000B04400081C0000202C010020FEE7000081
:1016000070B50500FA200D4B80001978FEF790FDAB
:101610000B4B01001868FEF78BFD00F091F80400F9
:101620000120002C09D1032D07D8023822002900FF
:1016300000F042F82000034B1D6070BD1400002034
:1016400010000020180000204023084A10B511683F
:1016500003200B431360FFF7D3FF041E03D1FFF7F2
:1016600027FF200010BD0124FBE7C04600200240F8
:10167000034A044B11681B785B1813607047C0461F
:101680002801002014000020014B18687047C04654
:101690002801002070B50400FFF7F6FF0500631C69
:1016A00002D0044B1B78E418FFF7EEFF401BA0426A
:1016B000FAD370BD1400002030B5FF2503242A00A2
:1016C0000440E400A24089012940D243A140C3B2B2
:1016D00000280ADBC0240B4B80088000C018A4003F
:1016E00003591A401143015130BD0F200340083BFC
:1016F00005489B089B001B18D86902401143D9611B
:10170000F2E7C04600E100E000ED00E0002805DB64
:101710001F2318401E3B8340014A13607047C04698
:1017200000E100E0BFF34F8F034B044ADA60BFF3E0
:101730004F8FC046FDE7C04600ED00E00400FA050B
:101740008022431E5204012093420DD2C021074A39
:1017500007485360036A09061B021B0A0B43036216
:1017600000200723906013607047C04610E000E03F
:1017700000ED00E030B5851DEB7F441D022B05D048
:101780000423C36300230120E37730BD0E210368E7
:101790001A688A431A600122196891431960436CE0
:1017A000016C1C2003401000984048600020EA773C
:1017B000E077EAE770B5841DE37F022B04D00423B1
:1017C000C363033B180070BD0E210368456C1A68A3
:1017D0008A431A6001221968914319601C232B4027
:1017E00015009D40016C431D4D60E2770024DC77BD
:1017F000826B1300A242E5D090472300E2E700008D
:10180000584AF0B58218541EA241002387B0053211
:1018100003910592039A12681400DC4001D107B0CD
:10182000F0BD01210D0014009D402C408C46029417
:101830002A4200D194E00324039A5E005268019288
:101840002240B440E143541E049164452AD887687D
:101850000F400399CC680199B4403C4384604468CC
:10186000AC4325000C0961460C409C402C4344606D
:10187000C56804990D4003998C68B4402C43C4603A
:10188000022A11D107250F211D40AD00A940DC0817
:10189000A4000419276A8F4303990969A9400F43DB
:1018A000276201E0032AE3D1B24004680499214091
:1018B0000A430260C02201999202114250D00127CE
:1018C000294C0326626B1D003A436263274A9C0839
:1018D000A400A418A268354094460F22AD00AA4087
:1018E00061469143A022D2059446002260450DD066
:1018F0001F4A94463A00604508D01E4F9218B842DD
:1019000004D01D4F3200B84200D0059AAA400A43C5
:101910000299A2600D00194ACC439668019935439B
:10192000C90201D4350025409560D668029D019911
:101930003543890201D435002540D5605668029DA3
:1019400001993543890301D4350025405560156858
:10195000029E01992E43C90301D425402E00166032
:10196000013357E700E4FFAF0010024000000140E0
:101970000004005000080050000C0050000401401A
:10198000002A01D0816170478162FCE70C221D4B67
:1019900070B5DC682240082A31D00C2A09D0042A0C
:1019A00025D11868184BC006C0171840174BC0182F
:1019B00070BDA2021648120F805C80222402D968F2
:1019C000A40F52020134114209D0124A002300210F
:1019D000FEF794FC22000023FEF770FCE8E71A688B
:1019E00010231A4201D00C4AF0E7084AEEE78020A3
:1019F0005B6800021B045B0F01339840D8E7054881
:101A0000D6E7C0460010024000E548FF0024F4007D
:101A10008444000800127A0000093D00F0B505007A
:101A200085B000285AD00C23BE4C0268E668E768EF
:101A30001E4080235B0219001F40D20742D42B684E
:101A40009B0700D58BE02B68DB0629D5002E00D044
:101A5000DCE023689B0502D5EB69002B3ED0626871
:101A6000B1496B6A0A401A43626061682A6A0902D6
:101A7000090A12060A43626080225B0B01331202DC
:101A80009A401300E1680A06A849120F8A5CD34005
:101A9000A74A1360A74B1868FFF7B2FD002834D19E
:101AA0002B681B0700D5E8E02B685B0700D50AE12F
:101AB0002B689B0600D58EE1AB6A002B00D0BDE100
:101AC000002022E0082E03D00C2E09D1002F07D0D1
:101AD00023689B03B3D56B68002BB0D1012014E0C1
:101AE0006A688A4213D1226813432360FFF7CCFD52
:101AF00000908022236892021342A0D1FFF7C4FD18
:101B0000009BC01A6428F4D9032005B0F0BDA021C1
:101B1000C9028A4205D180222168D2020A4322608A
:101B2000E1E7216884480140216021680B4003936C
:101B3000039B824923680B402360002AD6D1FFF71C
:101B4000A3FD0090802223689202134200D176E721
:101B5000FFF79AFD009BC01A6428F3D9D4E7EA681E
:101B6000042E03D00C2E24D1002F22D123685B0732
:101B700001D5002AB2D061682B6971481B0201406F
:101B80000B430921636023688B4313432360FFF7F2
:101B9000FDFEE368654A1B061B0FD35CD840644B0F
:101BA0001860644B1868FFF72BFD002800D14AE746
:101BB000ABE72368002A18D009218B431343236025
:101BC000FFF762FD070004222368134207D0626812
:101BD0002B695B491B020A401343636033E7FFF73D
:101BE00053FDC01B0228EED98EE7012293432360E8
:101BF000FFF74AFD070004222368134200D122E7C1
:101C0000FFF742FDC01B0228F5D97DE7EB69002BE9
:101C100020D0802322685B0013432360FFF734FD4C
:101C2000070080222368920013420DD063683E4A69
:101C300013406A6A1343636062682B6A12021B06D0
:101C4000120A134363602BE7FFF71EFDC01B022837
:101C5000E7D959E723683B4A13402360FFF714FD97
:101C60000700802223689200134200D118E7FFF793
:101C70000BFDC01B0228F4D946E76A690123002A3C
:101C800010D0226D13432365FFF7FEFC07000222EC
:101C9000236D134200D007E7FFF7F6FCC01B0228B4
:101CA000F5D931E7226D9A432265FFF7EDFC070075
:101CB0000222236D134200D1F6E6FFF7E5FCC01BBC
:101CC0000228F5D920E780230021A26B5B05009153
:101CD0001A4204D1A26B1343A36301230093802211
:101CE000194F52003B68134208D08022AB68520063
:101CF00093422BD1226D134323654CE080223B6835
:101D0000520013433B60FFF7BFFC019080223B6809
:101D100052001342E9D1FFF7B7FC019BC01A6428B7
:101D2000F4D9F1E600100240FF1FFFFF6C440008E9
:101D30001000002018000020FFFFFEFFFFFFFBFF48
:101D4000FFE0FFFFFFFEFFFF00700040002B16D1F9
:101D5000236D6B4A13402365236D6A4A1340236544
:101D6000FFF792FC07008022236D920013421AD0E5
:101D7000FFF78AFC644BC01B9842F4D9C4E6A0214B
:101D8000C9008B4218D18023216DDB000B432365F2
:101D9000236D1A432265FFF777FC07008022236D2D
:101DA0009200134210D0009B012B00D080E6A36B61
:101DB000564A1340A3637BE6236D514A13402365C3
:101DC000236D504A134097E7FFF75EFC4E4BC01B54
:101DD0009842E3D998E6A96901234D4A002918D011
:101DE000A1681943A160616B0B4363638023116A8F
:101DF0009B010B431362FFF747FC07000222A36815
:101E0000134200D058E6FFF73FFCC01B0228F5D96B
:101E10007AE6A1689943A160136A3E490B401362B8
:101E2000FFF732FC07000222A368134200D143E609
:101E3000FFF72AFCC01B0228F5D965E60C2E43D01B
:101E4000354A022B2ED12368802713402360FFF7E9
:101E50001BFC0600BF0423683B421DD1296BEB6AC3
:101E6000E2680B432D4980260A4013436A6BB6048F
:101E70001343E360802322685B0413432360FFF76E
:101E800003FC05002368334200D019E6FFF7FCFB92
:101E9000401B0228F6D937E6FFF7F6FB801B022825
:101EA000D9D931E62368802613402360FFF7ECFB85
:101EB0000500B6042368334200D101E6FFF7E4FBD6
:101EC000401B0228F6D91FE61800012B00D11CE6A2
:101ED0008022E368E96A52021A408A4200D0FDE596
:101EE000F022296B92031A408A4200D0F6E5C02204
:101EF000120413406A6B934200D1E1E5EEE5C0465F
:101F0000FFFEFFFFFFFBFFFF88130000FFFFFFEF57
:101F100000000140FFDFFFFFFFFFFFFEFFFF02FFAA
:101F2000F7B5041E019101D10120FEBD01255B4ED4
:101F3000019A33682B40934231D32268930743D4EC
:101F4000D30749D401253368019A2B40934209D91C
:101F50003368AB433360FFF797FB070033682B42CE
:101F600000D08CE022684E4D530700D58FE0130758
:101F700006D5E96823694B4ADB000A401343EB604E
:101F8000FFF704FDEB68484A1B061B0FD35CD840E3
:101F9000464B1860464B1868FFF732FBC5E73368BD
:101FA000019AAB4313433360FFF76EFB07003368BE
:101FB000019A2B409342C0D0FFF766FB3D4BC01BFC
:101FC0009842F4D90320B0E7F0203549CB68834329
:101FD000A0680343CB60B3E7314D62682B68022AE7
:101FE00018D19B03A0D50321EB688B431343EB600F
:101FF000FFF74AFB63680700022B18D10C22EB683D
:102000001340082B9ED0FFF73FFB2A4BC01B984282
:10201000F4D9D7E7032A02D19B01E4D484E7012A4B
:1020200002D15B07DFD47FE79B05DCD47CE7032B81
:102030000BD10C22EB681340934283D0FFF724FBB3
:102040001C4BC01B9842F4D9BCE7012B11D00C22C9
:10205000EB68134200D175E7FFF716FB154BC01B69
:102060009842F4D9AEE7FFF70FFB124BC01B984222
:10207000A8D80C22EB681340042BF4D162E7FFF7D9
:1020800003FB0C4BC01B984200D867E79AE7EB684C
:1020900009490B40E1680B43EB6068E70020024010
:1020A00000100240FFC7FFFF6C4400081000002032
:1020B0001800002088130000FFF8FFFF044B054ABA
:1020C000DB685B055B0FD35C034A1068D840704740
:1020D000001002407C44000810000020044B054A18
:1020E000DB689B045B0FD35C034A1068D8407047E1
:1020F000001002407C440008100000200368F7B57F
:1021000005009B062DD5802300215C4C5B05A26B4E
:1021100000911A4204D1A26B1343A36301230093DD
:102120008027574E7F0033683B4253D06B68C021F5
:1021300018002268890308400A4090425BD1216D53
:10214000C02208009202104011425FD12B689B060A
:1021500000D570E0009B012B03D1A36B494A1340CB
:10216000A3632B68DA0706D503204449CA6C82436F
:10217000A8680243CA649A0706D50C203F49CA6C76
:102180008243E8680243CA645A0706D53B493E4881
:10219000CA6C024028690243CA641A0706D5374947
:1021A0003A48CA6C024068690243CA645A0606D5B6
:1021B00032493748CA6C0240E8690243CA640020C9
:1021C0001B0617D52D4A3349D36C0B40A9690B4325
:1021D000D3640FE033683B433360FFF755FA019057
:1021E00033683B42A2D1FFF74FFA019BC01A642823
:1021F000F6D90320FEBDC02219009202114091427F
:102200009DD122680120920399D5F3E713408342C0
:102210009CD02B689B069DD58022216D206D1203DA
:1022200002432265226D1C4B1C480B400240226574
:102230002365CB0512D46968C0230A009B021A40AB
:102240009A4207D1236816480340C020800301400A
:102250000B432360236D1A4322657BE7FFF714FAD3
:1022600080270600BF00236D3B4200D06EE7FFF7DA
:102270000BFA0C4B801B9842F5D9BAE700100240CC
:1022800000700040FFFFFFEFFFF3FFFFFFCFFFFFF6
:10229000FFFFFFFBFFFFF3FFFFFFFCFFFFFFF7FF69
:1022A000FFFFCFFF88130000F0B51D00170085B0B9
:1022B0000E000400FFF7E8F9ED192D1AFFF7E4F915
:1022C000254B01901B685B011B0D6B432268039338
:1022D000936833409E4201D0002032E07B1CF7D04F
:1022E000FFF7D2F9019BC01AA8422CD3E021236842
:1022F0005A688A435A6082226168520091420CD126
:102300008021A26809028A4203D08021C9008A4242
:1023100003D140211A688A431A608021A26A890188
:102320008A4206D119680D480140196019680A43AC
:102330001A602300012251331A7000230320503405
:10234000237005B0F0BD039B5A1E93415B421D40B4
:10235000039B013BBAE7C04610000020FFDFFFFFF0
:10236000164B73B504000D00186815491600FDF7EB
:10237000DFFEFA239B00434301938223616880229E
:102380005B0099420DD133002A0080212000FFF725
:102390008BFF00280FD020230320626D1343636559
:1023A00076BD019B002B06D0019B013B0193236866
:1023B0009B681342F5D10020F2E7C04610000020D0
:1023C00000366E01F8B504000120002C54D0636A79
:1023D000002B52D1822261685200914200D0E36109
:1023E00000232500A36251352B78DAB2002B05D1EA
:1023F0002300503320001A70FFF768F802204022B3
:102400002870216866680B68A76893430B60822375
:102410005B003340842636023E4033438026E76823
:1024200036013E4033432669A2693040012603430A
:102430006069E76930400343802080001040034317
:102440003820384003438020276A120C3840034369
:102450008020A76A8001384003430B600423606A30
:102460001A400C33034000201A434A60CB69054AE6
:102470001340CB6160652E70F8BD0023236163615A
:10248000AEE7C046FFF7FFFFF0B51D00030085B0C3
:102490000091503316001A7804000227012A00D157
:1024A00083E001221A70FFF7EFF823000190513307
:1024B0001A78D7B2012A00D0ADE0009A002A71D074
:1024C000002E6FD003221A70009A0023226380220C
:1024D000A1686365A363E686A387E38763642364D7
:1024E000A68623681202914208D140211A688A43C5
:1024F0001A6080221968D2010A431A6040221968C2
:10250000114202D119680A431A608021E0686268AA
:10251000090188424FD1002A01D0012E09D1009A29
:102520001288DA60009B991CE38E2163013B9BB209
:10253000E3860226E38E002B19D129002000019AA0
:10254000FFF70EFF002863D1A368002B06D1039389
:102550002368DA6803929B680393039B626D002AE9
:1025600020D1230001215133170019701AE022688D
:102570009368334209D0236B19880233D1602363F7
:10258000E38E013B9BB2E386D4E7FFF77DF8019B26
:10259000C01AA8420CD36B1CCCD023000122032705
:1025A00051331A70002350342370380005B0F0BD49
:1025B000002DBFD1F1E7002A01D0012E09D1009AE8
:1025C00012781A73236B01332363E38E013B9BB2B2
:1025D000E3860226E38E002BAFD023689A6832424E
:1025E0000AD0226B12781A73236B01332363E38EB4
:1025F000013B9BB2E386EDE7FFF746F8019BC01A6B
:10260000A84202D36B1CE5D0C7E7002DE2D1C4E796
:102610002023636598E70227C4E7000030B5EFF395
:102620001084012282F310880168124D0B682B4040
:102630000B6084F31088EFF3108482F31088016834
:102640008B6893438B6084F31088036E93420AD1A6
:10265000EFF3108183F31088102402681368A343FA
:10266000136081F310882022031DDA6700230366BC
:10267000836630BDDFFEFFFF70477047806A00232E
:10268000020010B55A321380083A1380FFF7F5FFA5
:1026900010BD7047F7B504000068AB4BC169066810
:1026A000856819420BD12023194200D180E01E42D7
:1026B00000D17DE0A36E2000002B6FD16FE00123DD
:1026C0002F00A24A1F4032403A4300D170E025005B
:1026D0000835194205D0F20503D50362EA6F1343AA
:1026E000EB670223194206D0002F04D00362EA6F81
:1026F000DB181343EB670423194206D0002F04D0E4
:102700000362EA6F023B1343EB670823194207D0C9
:10271000202232403A4303D00362EA6F1343EB674F
:1027200080231B01194206D0720104D503622023C5
:10273000EA6F1343EB67EB6F002B30D02023194275
:1027400006D01E4204D0A36E002B01D02000984773
:102750002268EB6F4027966828223E4013402000F5
:102760001E4321D0FFF75AFF23689B683B4217D0D6
:10277000EFF31081012383F3108822689368BB4331
:10278000936081F31088606F002809D0704B8363D9
:10279000FFF710F8002802D0606F836B9847F7BDF1
:1027A0002000FFF76AFFFAE7FFF767FFEE67F6E73B
:1027B000236E012B00D09AE01022114200D196E046
:1027C000164200D193E00262816840260F00374034
:1027D000314253D0616F0868416889B20029DED068
:1027E000250058352D888D42D9D925005A352980A4
:1027F000016820200D0005400195014230D1EFF322
:10280000108783F310882568524A2968114029608F
:1028100087F31088EFF3108783F310882568A96881
:102820009943A96087F31088EFF3108C83F3108825
:10283000210080C9BD68B543BD608CF31088019A42
:10284000C8672266EFF3108083F310881022216896
:102850000B6893430B6080F31088606FFEF78AFF6C
:10286000022322006366230058325A331B881188E2
:10287000C91A89B22000FFF70CFF90E725005A35EE
:102880002888298880B2002900D188E721005831A2
:102890000988091A89B2002900D180E7EFF3108670
:1028A00083F3108825682C4A28681040286086F336
:1028B0001088EFF3108C83F31088200040C8B568AF
:1028C0009D43B5608CF310882025C5672766A766F1
:1028D000EFF3108583F31088206832320368FF32EB
:1028E0009343036085F3108802236366C2E7802365
:1028F0005B03194206D06A0204D50362200000F08F
:10290000D9FC4CE78023194203D01E4201D0E36E6C
:10291000D1E64022114200D141E7164200D13EE704
:10292000EFF31080012383F3108821680B68934331
:102930000B6080F310882023E36700232000E36608
:10294000FFF79AFE2BE7C0460F08000020010004A5
:102950007D260008FFFEFFFFDFFEFFFF011DCA6F9F
:10296000F8B50368222A5DD102005C325B6A1288E6
:102970001340426D13700200436D5A3201334365B8
:102980001388013B9BB2138013889CB2002B45D166
:10299000EFF31086013383F310880568244F2A680B
:1029A0003A402A6086F31088EFF3108683F310888C
:1029B0000568AA689A43AA6086F310882022CA672D
:1029C00002681C49846644668A420DD0526812022D
:1029D0000AD5EFF3108183F310880268164C136850
:1029E0002340136081F31088036E012B17D100225E
:1029F0000266EFF3108483F3108801680F330A68CE
:102A00009A430A6084F310880268D169194200D0A1
:102A10001362030058331988FFF73BFEF8BDFEF739
:102A2000DDFAFBE7082299690A439A61F6E7C04696
:102A3000DFFEFFFF00480040FFFFFFFB021DD16FDC
:102A4000F8B5036822295CD104005C34596A2488F3
:102A5000436D214019800100023343655A310B88D0
:102A6000013B9BB20B800B889CB2002B45D1EFF34E
:102A70001086013383F310880568244F2968394094
:102A8000296086F31088EFF3108683F310880568B9
:102A9000A9689943A96086F310882021D16702684C
:102AA0001B49846644668A420DD0526812020AD5D8
:102AB000EFF3108183F310880268164C13682340EB
:102AC000136081F31088036E012B17D10022026678
:102AD000EFF3108483F3108801680F330A689A4378
:102AE0000A6084F310880268D169194200D0136229
:102AF000030058331988FFF7CCFDF8BDFEF76EFAD6
:102B0000FBE7082299690A439A61F6E7DFFEFFFFB7
:102B100000480040FFFFFFFBF8B504002569A168ED
:102B2000026829436569C36929431068724D1943D6
:102B300028400143116051687048714D0140E068C0
:102B400001435160A069AA4201D0216A08439168FB
:102B50006C4E3140014391606B498A420FD1032191
:102B60006A4AD26C0A40013A6949022A0FD9802286
:102B70001202934200D169E0FFF7B0FA9CE0654988
:102B80008A4213D10C21614AD26C0A406249885CA6
:102B900080221202934200D07FE0082818D8FDF767
:102BA000B3FA50555817791717176300AA420FD177
:102BB000C0218020554A0901D36C00010B4083429B
:102BC00016D007D8002B0AD08022D200934235D0ED
:102BD000012009E08B42FBD18020000212E0FFF7C8
:102BE0006DFA00280ED100200023A366E366F8BD2D
:102BF00010231068184043425841484B4042184047
:102C0000474BC018032263685A438242E0D81A0334
:102C10008242DDD30027020E01025E0889197A4143
:102C2000080011001A003B00FDF748FB3D4BC2189D
:102C30003D4B9A42CCD82368D860D4E7FEF7A6FE75
:102C4000CFE7FFF73BFA031ECDD00DE0FFF746FAC2
:102C5000F9E72E4B324A1868102318404342584176
:102C60002E4B404203409B185800636861685B0824
:102C7000C018FDF75DFA02002C4B103A9A42A7D813
:102C80000F23020000079A4393B2400F22681843B3
:102C9000D060A8E7FEF77AFED5E7082898D8FDF7B8
:102CA0003DFA09006BFF0F0097FF240097FF97FF85
:102CB00097FF2700FFF702FA002800D193E70AE008
:102CC000124B18681023184043425841134B40429E
:102CD0001840134BC018636861685B081818FDF74B
:102CE00027FA0200114B103AA3E7FEF74FFEE3E785
:102CF00080200002EFE7C046F369FFEFFFCFFFFF40
:102D000000480040FFF4FFFF00380140001002407F
:102D10008D4400080044004090440008001BB700A8
:102D200000093D0000FDFFFFFFFC0F00EFFF00006A
:102D3000436A30B5DA0706D50168284C4A68224054
:102D4000846A22434A609A0706D50168244C4A687F
:102D50002240C46A22434A605A0706D50168214CC2
:102D60004A682240046B22434A601A0706D501686C
:102D70001D4C4A682240446B22434A60DA0606D55D
:102D800001681A4C8A682240846B22438A609A0642
:102D900006D50168164C8A682240C46B22438A60BB
:102DA0005A0610D50168134D4A68046C2A40224324
:102DB0004A6080225203944205D14A680E4C224058
:102DC000446C22434A601B0606D502680B495368CF
:102DD0000B40816C0B43536030BDC046FFFFFDFFCD
:102DE000FFFFFEFFFFFFFBFFFF7FFFFFFFEFFFFF88
:102DF000FFDFFFFFFFFFEFFFFFFF9FFFFFFFF7FF7B
:102E0000F7B504000D001700082600932268D36967
:102E10002B405B1B59424B41BB4201D0002021E0BB
:102E2000089B0133F3D0FEF72FFC009BC01A089BD0
:102E3000984228D8002B26D0042123681A680A4219
:102E4000E4D0DA6911003140019132420BD0200008
:102E50001E62FFF7E3FB23000833DE670023012037
:102E600078342370FEBD8022D96912011142CDD081
:102E70001A622000FFF7D2FB230020220833DA6712
:102E8000019B783423700320ECE7F0B585B0039301
:102E9000C36F04000D0016000220202B39D1013829
:102EA000002936D0002A34D08023A2685B019A42E0
:102EB00004D12369002B01D101422AD12300002231
:102EC0000833DA672123E367FEF7DEFB2300503384
:102ED0001E8002331E8002938023A2680700002612
:102EE0005B019A4204D12369B34201D12E001D0037
:102EF000230052331B889AB2002B0CD1039B402134
:102F0000009320003B00FFF77BFF2023E3670028AE
:102F10000DD105B0F0BD039B0022009380213B0042
:102F20002000FFF76DFF002803D02023E367032074
:102F3000EFE72268002D0BD133880236DB05DB0D6D
:102F40009362029B029A1B88013B9BB21380CFE7DE
:102F50002B7801359362F4E7F0B5160087B0021DB7
:102F60000593D36F04000D000220202B60D101389F
:102F700000295DD0002E5BD08023A1685B019942BF
:102F800004D12369002B01D1054251D12300002730
:102F90000833DF672223D3672766FEF775FB23001C
:102FA00080215833A2681E80023303931E80049050
:102FB000490102338A421BD12169B94216D12649FF
:102FC00019801F88802300265B019A4204D123695F
:102FD000B34201D12E001D0023005A331B8898B242
:102FE000002B17D104342033E36721E0FF21E7E70A
:102FF000002A04D121690029F8D07F21E0E780214F
:1030000049058A4204D121690029F6D03F21D7E73A
:103010001F80D6E7059B0022009320212000049BFF
:10302000FFF7EEFE002805D0202303200434E367D9
:1030300007B0F0BD23685B6A3B40002D08D13380A8
:103040000236039B039A1B88013B9BB21380C3E7A4
:103050002B700135F5E7C046FF0100000300F7B50E
:10306000002504000833DD67FEF70EFB2600236809
:1030700007001B6878361B071BD58021264B2A00CA
:103080000093890303002000FFF7BAFEA84210D086
:10309000EFF31081012383F31088802022681368E6
:1030A0008343136081F310882023E3673570032086
:1030B000FEBD250008CD1B685B0725D58021164B7A
:1030C0000022009320003B00C903FFF799FE00286F
:1030D0001AD0EFF31080012282F3108821680F4F7D
:1030E0000B683B400B6080F31088EFF3108082F395
:1030F000108821688B6893438B6080F310882023AD
:10310000EB6700233370D2E700202023E367EB67EF
:10311000206660663070CBE7FFFFFF01DFFEFFFF38
:1031200010B5041E01D1012010BDC36F002B04D1C6
:10313000020078321370FEF7F5F92423012122688A
:10314000E367136820008B431360FFF7E5FC012859
:10315000E9D0636A002B02D02000FFF7E9FD236865
:1031600007495A6820000A402A215A609A688A430F
:103170009A60012219680A431A60FFF76FFFD3E7CC
:10318000FFB7FFFF030010B54165802400215833CD
:103190001A805A808268816664010433A24234D165
:1031A00002698A422FD1264A1A800300002208337E
:1031B000DA67031D2232DA67EFF31081012383F30C
:1031C0001088026894682343936081F310888021FB
:1031D000846802691B4B49018C4202D1002A00D14C
:1031E000194B83660123002A21D0EFF3108183F36A
:1031F0001088026820331068FF330343136081F3A3
:103200001088002010BDFF22CEE7002A04D10269F9
:10321000002AF8D07F22C7E780246405A24204D1A7
:103220000269002AF6D03F22BEE71980BDE7EFF31E
:10323000108183F31088026820231068DDE7C04600
:10324000FF0100005D2900083D2A0008031D70B53C
:10325000DC6F0223202C28D1013B002925D0002A35
:1032600023D0802384685B019C4205D10369002B35
:1032700002D10133194218D100230D4C03660368B3
:10328000A3420FD05B681B020CD5EFF3108501231E
:1032900083F3108880230468DB04266833432360AB
:1032A00085F31088FFF76EFF0300180070BDC0465D
:1032B000004800407047000070B500260C4D0D4CD2
:1032C000641BA410A64209D1002600F021F80A4D83
:1032D0000A4C641BA410A64205D170BDB300EB5884
:1032E00098470136EEE7B300EB5898470136F2E70E
:1032F000A8440008A8440008A8440008AC440008FA
:1033000003008218934200D1704719700133F9E726
:10331000F8B5C046F8BC08BC9E467047F8B5C04634
:08332000F8BC08BC9E46704792
:103328002E0F13030800000000000000000000003A
:103338000000000000000000000000000000000085
:103348000000000000000000000000000000000075
:10335800000002000000FE4700000000000000001E
:103368000000000000000000000000000000000055
:103378000000000000000000000000000000000045
:10338800040000003E00000000003E0000000000B5
:103398000000000000000000000000000000000025
:1033A80000000000000000000000000000000820ED
:1033B8000400207400F00F002E0400207400F00FA9
:1033C800002E04002004000000000000000000009F
:1033D80000000000000000000000000008000000DD
:1033E800781800C62000824000FFFF010241000655
:1033F80023000C1E00000000000000000000000078
:10340800000000000000000000000B0000007C002D
:10341800008200008240007C3800000700E00000C5
:10342800183E00064100004100003E000000000078
:1034380000000000000000000B000000001F00BC9E
:103448002100C64000C241004242006664003C3C84
:1034580000002E0000630000400000000000000093
:10346800000000000000020000003E000000000014
:103478000000000000000000000000000000000044
:103488000000000000000000000000000000000034
:103498000000000005000000000000E07F001CC0E4
:1034A800030200040000000000000000000000000B
:1034B8000000000000000000000000000000000004
:1034C8000000030200041CC003E07F0000000000AD
:1034D80000000000000000000000000000000000E4
:1034E80000000000000000000000000000000000D4
:1034F800050400003400000E000034000004000041
:1035080000000000000000000000000000000000B3
:1035180000000000000000000000000000000A0099
:103528000000000200000200000200000200C01FAC
:10353800000002000002000002000002000000007B
:10354800000000000000000000000000020000026F
:1035580000C00100000000000000000000000000A2
:103568000000000000000000000000000000000053
:103578000000000000000000000004000400000437
:10358800000004000004000000000000000000002B
:103598000000000000000000000000000000000023
:1035A80000000000000000000200000000400000D1
:1035B8000000000000000000000000000000000003
:1035C80000000000000000000000000000000000F3
:1035D80000000000000004004000003E00E0010080
:1035E8001E000000000000000000000000000000B5
:1035F80000000000000000000000000000000000C3
:103608000000000008F80F000630000360000140C9
:1036180000014000036000063000F80F00000000C1
:103628000000000000000000000000000000000092
:10363800000005000000100000080000040000FF62
:103648007F000000000000000000000000000000F3
:103658000000000000000000000000000000000062
:10366800080C6000025000014800014400014200BB
:10367800814100C240003C40000000000000000002
:103688000000000000000000000000000000080426
:103698001800022000014000814000814000814064
:1036A80000C221003C1F00000000000000000000D4
:1036B80000000000000000000000000008000600F4
:1036C8008005004004003004000C0400FF7F000067
:1036D80004000004000000000000000000000000DA
:1036E8000000000000000000000008F018006F2033
:1036F80000214000214000214000616000C13000ED
:10370800810F000000000000000000000000000021
:10371800000000000000000008F80F00863000429A
:103728006000414000414000414000822000041FE9
:103738000000000000000000000000000000000081
:1037480000000000000008010000010000017800EE
:10375800010700E100003900000D0000030000002F
:103768000000000000000000000000000000000051
:1037780000000000083C1F00C22100814000814079
:1037880000814000814000C221007C1F0000000031
:103798000000000000000000000000000000000021
:1037A8000000087C10008620000341000141000150
:1037B8004100012100863800F807000000000000E1
:1037C80000000000000000000000000000000000F1
:1037D800020000002040000000000000000000007F
:1037E80000000000000000000000000000000000D1
:1037F80000000000000000000000000000000200BF
:10380800000220C0010000000000000000000000CD
:1038180000000000000000000000000000000000A0
:103828000000000000000000000000000800000088
:1038380000010080020080020040040020080020EF
:103848000800101000000000000000000000000048
:103858000000000000000000000008000000400414
:1038680000400400400400400400400400400400FC
:1038780040040000000000000000000000000000FC
:1038880000000000000000000800000010100020E8
:1038980008002008004004008002008002000001A7
:1038A8000000000000000000000000000000000010
:1038B80000000000000007180000040000020000DB
:1038C800025C000203008401007800000000000090
:1038D80000000000000000000000000000000000E0
:1038E800000000000F000000803F0060C0001800CA
:1038F800010C1F02C460026240042240042220041A
:10390800423804E247040440020C2002381801E05F
:1039180087000B004000003800000700E002001C90
:1039280002000202001C0200E0020000070000384A
:10393800000040000000000000000000000000003F
:1039480009000000FE7F00824000824000824000A3
:10395800824000824000C42100781F00000000005F
:1039680000000000000000000000000000000A0045
:103978000000E00700181800042000024000024080
:1039880000024000024000042000181C0000000053
:103998000000000000000000000000000A00000015
:1039A800FE7F000240000240000240000240000288
:1039B80040000420000C1800F00F00000000000078
:1039C8000000000000000000000009000000FE7F69
:1039D8000082400082400082400082400082400015
:1039E800824000824000000000000000000000004B
:1039F800000000000000000009000000FE7F0082B7
:103A08000000820000820000820000820000820024
:103A1800000200000000000000000000000000009C
:103A28000000000000000B000000E007001818006C
:103A3800042000024000024000024100024100024E
:103A48006100042100183F00000000000000000091
:103A5800000000000A000000FE7F008000008000D7
:103A680000800000800000800000800000800000CE
:103A7800FE7F0000000000000000000000000000C1
:103A8800000002000000FE7F0000000000000000AF
:103A9800000000000000000000000000000000001E
:103AA800000000000000000000000000000000000E
:103AB80007000000003800004000004000004000FF
:103AC800004000FE3F000000000000000000000071
:103AD80000000000000000000000000000000A00D4
:103AE8000000FE7F00000300800000C000002001ED
:103AF8000010060008180006200000400000000022
:103B080000000000000000000000000008000000A5
:103B1800FE7F000040000040000040000040000020
:103B2800400000400000000000000000000000000D
:103B3800000000000000000000000C000000FE7FF4
:103B480000060000380000C00300001C00006000F0
:103B5800001C008003007000000E0000FE7F0000C3
:103B680000000000000000000A000000FE7F0004C2
:103B78000000180000600000800100000600001826
:103B880000002000FE7F0000000000000000000090
:103B98000000000000000B000000E00700181800FB
:103BA80004200002400002400002400002400004DD
:103BB8002000181800E007000000000000000000C6
:103BC8000000000009000000FE7F00020100020161
:103BD80000020100020100020100860000780000D6
:103BE80000000000000000000000000000000000CD
:103BF80000000B000000E007001818000420000275
:103C080040000240000258000270000420001878AA
:103C180000E0CF00000000000000000000000000ED
:103C28000B000000FE7F00020100020100020100FB
:103C3800020100020100020700860C007830000033
:103C48004000000000000000000000000000090023
:103C580000003818004420008240008240000241E1
:103C680000024100042200181C00000000000000AF
:103C78000000000000000000000000000902000031
:103C8800020000020000020000FE7F0002000002A5
:103C98000000020000020000000000000000000018
:103CA800000000000000000000000A000000FE1FE5
:103CB80000002000004000004000004000004000DC
:103CC800004000002000FE1F00000000000000006F
:103CD80000000000000000000B0200001C0000E0D3
:103CE800000000070000380000400000380000070E
:103CF80000E000001C0000020000000000000000BE
:103D08000000000000000E0000003E0000C01F0080
:103D1800006000001C00C0030038000006000038E6
:103D28000000C00300001E00006000C01F003E002D
:103D3800000000000A0240000420001818002004B7
:103D480000C00300C003002004001818000420006D
:103D58000240000000000000000000000000000019
:103D68000000090200000C0000300000C000000044
:103D78007F00C000003000000C00000200000000BE
:103D8800000000000000000000000000000000002B
:103D980009026000025000024C0002420082410009
:103DA8004240003240000A40000640000000000087
:103DB80000000000000000000000000000000400F7
:103DC8000000FEFF070200040200040000000000DB
:103DD80000000000000000000000000000000000DB
:103DE80000000000000000000000000004060000C1
:103DF800F80000001F000060000000000000000044
:103E080000000000000000000000000000000000AA
:103E1800000000000000000000000302000402008F
:103E280004FEFF0700000000000000000000000082
:103E3800000000000000000000000000000000007A
:103E4800000000000000000007800000600000186B
:103E5800000006000018000060000080000000005C
:103E6800000000000000000000000000000000004A
:103E7800000000000000090000010000010000012E
:103E88000000010000010000010000010000010025
:103E98000001000000000000000000000000000019
:103EA80000000000030000000200000C00000000F9
:103EB80000000000000000000000000000000000FA
:103EC80000000000000000000000000000000000EA
:103ED800000008000000803C0040660020420020EE
:103EE8004200204200203100C07F00000000000096
:103EF80000000000000000000000000000000000BA
:103F080008000000FE7F0040200020400020400004
:103F1800204000402000801F00000000000000003A
:103F28000000000000000000000000000000078002
:103F38001F0040200020400020400020400060205A
:103F480000801800000000000000000000000000D1
:103F58000000000000000000000000000800000051
:103F6800801F0040200020400020400020400040EA
:103F78002000FE7F0000000000000000000000009C
:103F88000000000000000000000008000000801F82
:103F9800004022002042002042002042004022002F
:103FA8008013000000000000000000000000000076
:103FB800000000000000000005200000FC7F002237
:103FC80000002200000200000000000000000000C5
:103FD80000000000000000000000000000000000D9
:103FE80000000000000008000000801F03402004BB
:103FF800204004204004204004402002E0FF01004B
:1040080000000000000000000000000000000000A8
:104018000000000008000000FE7F004000002000B3
:1040280000200000200000600000C07F00000000A9
:104038000000000000000000000000000000000078
:10404800000002000000E27F000000000000000005
:104058000000000000000000000000000000000058
:104068000000000000000000000000000000000048
:1040780002000004E2FF070000000000000000004A
:104088000000000000000000000000000000000028
:104098000000000000000000000000000000070011
:1040A8000000FE7F000002000003008004004018AA
:1040B8000020600000000000000000000000000078
:1040C80000000000000000000000000002000000E6
:1040D800FE7F00000000000000000000000000005B
:1040E80000000000000000000000000000000000C8
:1040F800000000000000000000000C000000E07F4D
:1041080000400000200000200000200000C07F00C8
:10411800400000200000200000200000C07F0000B8
:10412800000000000000000008000000E07F0040E0
:104138000000200000200000200000600000C07F78
:104148000000000000000000000000000000000067
:1041580000000000000008000000801F0040200050
:10416800204000204000204000402000801F000028
:104178000000000000000000000000000000000037
:104188000000000008000000E0FF07402000204079
:1041980000204000204000402000801F0000000058
:1041A8000000000000000000000000000000000007
:1041B800000008000000801F004020002040002070
:1041C8004000204000402000E0FF07000000000001
:1041D80000000000000000000000000000000000D7
:1041E80005000000E07F00400000200000600000A3
:1041F80000000000000000000000000000000000B7
:10420800000000000000000000000000000007009F
:104218000000C03100204200204200204400204419
:1042280000C038000000000000000000000000008E
:104238000000000000000000000000000320000053
:10424800FC7F00204000000000000000000000008B
:104258000000000000000000000000000000000056
:104268000000000000000000000008000000E03F1F
:1042780000006000004000004000004000002000F6
:10428800E07F0000000000000000000000000000C7
:10429800000000000000000007600000800300002C
:1042A8003C00004000003C0080030060000000006B
:1042B80000000000000000000000000000000000F6
:1042C8000000000000000B600000800300001C00DC
:1042D800006000801F00600000801F000060000078
:1042E8001C008003006000000000000000000000C7
:1042F8000000000007204000C03000000900000650
:1043080000000900C030002040000000000000004C
:104318000000000000000000000000000000000095
:10432800000007600004800304003C0200C0010094
:104338003C00800300600000000000000000000056
:104348000000000000000000000000000000000065
:10435800072060002050002048002046002041002F
:10436800A0400060400000000000000000000000C5
:104378000000000000000000000000000000050030
:104388000400000E00FCFB0302000402000400000D
:104398000000000000000000000000000000000015
:1043A8000000000000000000000000000200000003
:1043B800FEFF0700000000000000000000000000F1
:1043C80000000000000000000000000000000000E5
:1043D80000000000000000000000050200040200C8
:1043E80004FCFB03000E00000400000000000000B5
:1043F80000000000000000000000000000000000B5
:10440800000000000000000008000100800000809B
:104418000000800000000100000100000100800190
:104428000000000000000000000000000000000084
:1044380000000000000005FE3F00022000022000EE
:10444800022000FE3F000000000000000000000005
:104458000000000000000000000000000000000054
:10446800000000000000000000000000010203043A
:1044780006070809000000000102030403040608F7
:104488000C1018203004020800101010041010102E
:084498000210101008000000E2
:0844A000B8BEFF7F010000001F
:0444A800E90000081F
:0444AC00C100000843
:1044B00000001F00E00700F8E0FFFFFF0100000020
:0C44C000000020000100000004000000CB
:04000005080015AD2D
:00000001FF
