:020000040800F2
:10000000002000202D330008D5320008D732000828
:1000100000000000000000000000000000000000E0
:10002000000000000000000000000000D9320008BD
:100030000000000000000000DB320008DD32000894
:100040007D3300087D3300087D3300087D330008D0
:100050007D3300087D3300087D3300087D330008C0
:100060007D3300087D3300087D3300087D330008B0
:100070007D3300087D330008000000007D33000858
:10008000000000007D3300080000000000000000B8
:100090007D330008000000007D3300087D33000838
:1000A0007D3300087D3300087D3300087D33000870
:1000B0007D3300087D330008000000007D33000818
:1000C00010B5064C2378002B07D1054B002B02D02E
:1000D000044800E000BF0123237010BD8C00002005
:1000E00000000000E45C0008044B10B5002B03D0B6
:1000F0000349044800E000BF10BDC04600000000F6
:1001000090000020E45C00080023C25C0133002A58
:10011000FBD1581E7047000002B4714649084900DF
:10012000095C49008E4402BC7047C04603B4714666
:10013000490840004900095E49008E4403BC7047ED
:10014000002243088B4274D303098B425FD3030A16
:100150008B4244D3030B8B4228D3030C8B420DD329
:10016000FF22090212BA030C8B4202D312120902B7
:1001700065D0030B8B4219D300E0090AC30B8B42F5
:1001800001D3CB03C01A5241830B8B4201D38B03A3
:10019000C01A5241430B8B4201D34B03C01A524148
:1001A000030B8B4201D30B03C01A5241C30A8B428B
:1001B00001D3CB02C01A5241830A8B4201D38B0276
:1001C000C01A5241430A8B4201D34B02C01A52411A
:1001D000030A8B4201D30B02C01A5241CDD2C3098C
:1001E0008B4201D3CB01C01A524183098B4201D308
:1001F0008B01C01A524143098B4201D34B01C01AF3
:10020000524103098B4201D30B01C01A5241C3086A
:100210008B4201D3CB00C01A524183088B4201D3D9
:100220008B00C01A524143088B4201D34B00C01AC5
:100230005241411A00D20146524110467047FFE731
:1002400001B5002000F0F0F802BDC0460029F7D04B
:1002500076E7704703460B437FD4002243088B4266
:1002600074D303098B425FD3030A8B4244D3030B3D
:100270008B4228D3030C8B420DD3FF22090212BA02
:10028000030C8B4202D31212090265D0030B8B427E
:1002900019D300E0090AC30B8B4201D3CB03C01A68
:1002A0005241830B8B4201D38B03C01A5241430B43
:1002B0008B4201D34B03C01A5241030B8B4201D333
:1002C0000B03C01A5241C30A8B4201D3CB02C01A9E
:1002D0005241830A8B4201D38B02C01A5241430A16
:1002E0008B4201D34B02C01A5241030A8B4201D305
:1002F0000B02C01A5241CDD2C3098B4201D3CB01AC
:10030000C01A524183098B4201D38B01C01A52415A
:1003100043098B4201D34B01C01A524103098B425E
:1003200001D30B01C01A5241C3088B4201D3CB0049
:10033000C01A524183088B4201D38B00C01A52412C
:1003400043088B4201D34B00C01A5241411A00D2DC
:1003500001465241104670475DE0CA0F00D0494245
:10036000031000D34042534000229C4603098B42B5
:100370002DD3030A8B4212D3FC22890112BA030A3D
:100380008B420CD3890192118B4208D389019211BF
:100390008B4204D389013AD0921100E08909C30944
:1003A0008B4201D3CB01C01A524183098B4201D346
:1003B0008B01C01A524143098B4201D34B01C01A31
:1003C000524103098B4201D30B01C01A5241C308A9
:1003D0008B4201D3CB00C01A524183088B4201D318
:1003E0008B00C01A5241D9D243088B4201D34B0033
:1003F000C01A5241411A00D20146634652415B1075
:10040000104601D34042002B00D549427047634655
:100410005B1000D3404201B5002000F005F802BD9A
:100420000029F8D016E770477047C046002B11D15D
:10043000002A0FD1002900D1002802D00021C94391
:10044000080007B4024802A14018029003BDC0464C
:10045000D9FFFFFF03B4684601B5029800F06AF8BF
:10046000019B9E4602B00CBC7047C046F0B5CE461C
:10047000474680B5070099463B0C9C4613041B0C6D
:100480001D000E0061460004140C000C45434B4354
:1004900060436143C0182C0C20188C46834203D95A
:1004A00080235B029846C444494679437243030C57
:1004B00063442D042D0CC918000440198918C0BCD0
:1004C000B946B046F0BDC0469E2110B5C905041C12
:1004D00001F082FC002803D1201C00F0E3FC10BDD9
:1004E0009E21201CC90500F02FFB00F0DBFC8023BF
:1004F0001B069C466044F2E770B500220C4B0400DA
:100500000D0001F02FFC002804D12000290001F08B
:1005100077FB70BD064B00222000290000F0DEFFB3
:1005200001F06EFB80231B069C466044F1E7C04649
:100530000000E041F0B557464E464546DE46E0B580
:1005400004000D009246994683B08B4230D82DD0DE
:100550004946504601F068FC29000600200001F0E1
:1005600063FC331A9846203B9B4633D45A46534685
:10057000934042461F00534693401E00AF423AD874
:10058000AF4200D178E05B46A41BBD41002B00DAEE
:1005900075E0002200230092019301235A46934004
:1005A0000193012342469340009328E08242CFD931
:1005B00000220023009201930C9B002B01D01C60B1
:1005C0005D600098019903B0F0BCBB46B246A946F5
:1005D000A046F0BD424620239B1A5246DA404146CF
:1005E00013004A468A40170042461F435346934031
:1005F0001E00AF42C4D9002200230092019343465B
:10060000002BD9D0FB0772081A4346467B080EE040
:10061000AB4201D1A2420CD8A41A9D410120241959
:100620006D410021013E24184D41002E06D0AB4201
:10063000EED9013E24196D41002EF8D100980199A0
:100640005B4600196941002B24DB2B005A464446C7
:10065000D3402A00E2401C005B461500002B2ADB39
:1006600026009E40330026004746BE403200801AD6
:100670009941009001919FE7A342BCD883E742468D
:10068000202300219B1A0022009101920122DA40CE
:10069000019286E7424620239B1A2A0046469A404A
:1006A0002300F340444613432A00E2401C005B460B
:1006B0001500002BD4DA42462F0020232600974055
:1006C0009B1ADE403B003343CDE7C046F0B54F46B2
:1006D0004646D6464502C0B547000C1C6D0A3F0E83
:1006E000C60F002F00D170E0FF2F00D175E0EB00A6
:1006F0008025ED041D43002399469A467F3F600202
:10070000430A984663001B0EE40F002B4ED0FF2BCC
:1007100046D04246D0008022D204024390460022B6
:100720007F3B3100FF1A4B466140C9B213430F2B88
:1007300000D9B5E06E489B00C3589F4600239846F9
:100740002600454692465346022B00D189E0032BF2
:1007500000D19EE0012B18D03B007F33002B69DDD8
:100760006A0704D00F222A40042A00D004352A0147
:1007700003D5604B1D403B008033FE2B00DD70E055
:10078000AD016D0AD8B202E00E0000200025C005C0
:100790002843F6073043E0BCBA46B146A846F0BD50
:1007A0004346002B3FD10222FF3F03E04346002B8C
:1007B0002DD1012231004B466140C9B213430F2BAA
:1007C00034D84D489B00C3589F46002D13D10423B5
:1007D0009946033B00279A4691E7002D05D108234F
:1007E0009946063BFF279A4689E70C239946093B21
:1007F000FF279A4683E7280001F0F8FA7627431F7F
:100800009D4000237F4299469A463F1A77E740462B
:1008100001F0ECFA4246431F9A4076235B42904631
:100820001B1A00227DE7FF2303227AE70E00FF2038
:100830000025ACE70120C01A1B28A6DC9E372A0041
:10084000BD40C2406B1E9D4115436B0704D00F2372
:100850002B40042B00D004356B0144D5012000252A
:1008600095E7FF20002592E780250026FF20ED0375
:100870008DE7002398468020C003054209D04346F7
:10088000034206D1454605436D022600FF206D0A4E
:100890007DE78020C00305436D02FF206D0A76E7E7
:1008A00042466B015001834219D21B220025013FB1
:1008B00001261C006D005B00002C01DB984201D872
:1008C0001B1A3543013A002AF3D15A1E93411D43A6
:1008D0003B007F330E00002B00DD41E7AAE71A2220
:1008E00001251B1AE4E7AD0100206D0A4FE7C04661
:1008F000FC5C0008FFFFFFF73C5D0008F0B54F46C9
:100900004646D64644024500C0B5640A0F1C2D0E6B
:10091000C60F002D00D18DE0FF2D00D192E0002305
:10092000802099469A46E400C00404437F3D780243
:10093000430A98467B001B0EFF0F002B00D170E08E
:10094000FF2B00D186E04246D00080227F3BED188D
:100950000023D204024390469C4631004B46794026
:10096000681C0F2B1CD8764A9B00D3589F46390031
:100970004446E2465346022B0FD0032B00D1D7E06A
:10098000012B37D100200024C0052043C9070843AC
:10099000E0BCBA46B146A846F0BDFF200024F3E70C
:1009A000260C2404220C44462404240C434627002D
:1009B0001B0C574374435A435E4312193B0C9B185C
:1009C0009C4203D980225202944666443F041A0492
:1009D0003F0CD2199401671EBC411B0C920E9B194F
:1009E00014439B011C431B0100D49BE001236208BC
:1009F0001C40144302007F32002A64DD630704D0E8
:100A00000F232340042B00D00434230103D502001C
:100A10004C4B80321C40FE2ABFDCA401640AD0B2D9
:100A2000B2E74346002B3DD14A4601331A43914673
:100A30009C4692E7002C29D104239946033B0025CC
:100A40009A4674E7002C1BD108239946063BFF25E4
:100A50009A466CE74346FF35002B0BD102234A46EA
:100A60001A4391469C4678E753463100022B00D04A
:100A700083E792E703234A461A4391469C466CE774
:100A80000C239946093BFF259A4650E7200001F0C8
:100A9000ADF97625431F9C4000236D4299469A4646
:100AA0002D1A44E7404601F0A1F94246431F9A40FF
:100AB00000232D1A90469C46763D4EE78024002167
:100AC000FF20E40360E701239B1A1B2B00DD59E79D
:100AD00022009E30DA4084401300621E94411C4381
:100AE000630704D00F232340042B00D00434630198
:100AF0001AD50120002447E78020C003044209D012
:100B00004346034206D14446044364023900FF20B1
:100B1000640A39E78020C003044364023100FF20E7
:100B2000640A31E7280065E7A4010020640A2BE786
:100B30008020C00304436402FF20640A24E7C04607
:100B40007C5D0008FFFFFFF7F8B5CE46474643023D
:100B50005B0A4E02DA009446720A914645004A004A
:100B600080B52D0E1F00C40F120EC90FB609FF2A43
:100B70005BD0012041408C4239D0A81A00285ADDB0
:100B8000002A6AD0FF2D00D1D9E08022D20416437A
:100B90001B2800DCE9E001206346181A430100D459
:100BA000B4E080018709380001F020F9053887405A
:100BB000854200DCCCE02D1AB5483840430704D00C
:100BC0000F230340042B00D00430430100D4A0E0E5
:100BD0006A1CFE2D00D18DE08001470AD2B2D005FB
:100BE0003843E4072043C0BCB946B046F8BDA81A54
:100BF0008046002845DD002A70D0FF2D00D19EE000
:100C00008023DB041E4343461B2B00DCD2E0012083
:100C1000604443017AD50135FF2D6BD001239D4AF5
:100C20000340400810401843C8E7002E20D08C42F3
:100C300023D02800FF38002839D0571B002D00D0C2
:100C40009DE06346002B00D1DBE07B1E012F00D12D
:100C50000DE1FF2F71D01F0098E0002E00D1A7E01A
:100C6000421E012800D1E6E0FF2868D010008FE77F
:100C700001204140A14200D07FE7FF204042804652
:100C8000A8444046002838D0511B002D00D1AEE0CA
:100C9000FF2A00D1DFE080236046DB04184384464E
:100CA0001B2900DCD9E0012015008019B1E7FE20E6
:100CB0006A1C104271D1002D00D0A6E06346002BC3
:100CC00000D1D9E00022002E00D188E7981B430113
:100CD00000D4E1E063460C00F01A6FE7002E00D16B
:100CE000B7E00200013A012800D19CE0FF2826D09D
:100CF000904688E7FF22002771E7FE206A1C104219
:100D000064D0FF2AF6D0150066447008430700D06F
:100D100056E7C308FF2D12D05B025F0AEAB25EE716
:100D20006246002A00D196E0002E08D08022D2032D
:100D3000134204D04846104201D10C004B46002B10
:100D4000D8D08027FF031F437F02FF227F0A46E798
:100D500020233A00451B38000135EA405D1BA840BE
:100D6000431E98410025104328E720231B1A320018
:100D70009E40C2403000431E984110430CE7FF2ABA
:100D8000DBD080236046DB04184384461B2F56DDEE
:100D900001200C001500301A00E763469F1B7B0101
:100DA0003DD4002F00D0FEE600240022002716E7E5
:100DB0000500AFE7320043464146DA4020235B1A84
:100DC0009E403000431E9841104321E7002DA7D1DB
:100DD0006346002B59D00022002E00D1FFE63000E0
:100DE0006044430192D52A4B013518408EE7634693
:100DF000002B47D04B1E012915D0FF292BD01900FD
:100E00004EE70C004B463D0084E76246002A8BD13A
:100E1000002E92D180270024FF22FF03DFE66346E5
:100E20000C00F71ABFE6300060440125430100D4EE
:100E30006CE70225F2E663460125981BAEE6202307
:100E400064466046FC40DF1BB840431E9841204387
:100E50009FE705005EE74B4671E720236546604645
:100E6000CD40591A8840431E984128431CE76346E9
:100E70000C000125F01A91E6002E95D00C004F468B
:100E80000022ACE64B460D0044E74F460022A6E6A2
:100E9000FFFFFFFBFFFFFF7D002800D036E70024A7
:100EA00000279CE641024200C30F490A0020120EAF
:100EB0007E2A03DD9D2A02DD094A981870478020AA
:100EC00000040143952A07DC9620821AD14048424B
:100ED000002BF3D10800F1E7963A9140F7E7C046BE
:100EE000FFFFFF7FF8B5002813D0C317C6185E4078
:100EF000C40F300000F07AFF9E2305001B1A962BCA
:100F00000FDC082801DD083DAE407602760AD8B233
:100F100002E0002400200026C0053043E4072043FF
:100F2000F8BD992B0CDD05223100121AD1400A00C0
:100F3000010030001B318840411E884102431600E9
:100F4000052D12DC31000D4F3940720709D00F20FA
:100F50003040042805D004314A0102D59F2339408E
:100F60005B1B89014E0AD8B2D6E76A1F9640310052
:100F7000024F39407207F4D0E9E7C046FFFFFFFB9C
:100F800070B5051E0ED000F031FF9E2304001B1A21
:100F9000962B0CDC082801DD083CA5406D026D0A8B
:100FA000D8B201E000200025C005284370BD992B70
:100FB00009DD020029001B3291404A1E91410522A1
:100FC000121AD5400D43052C12DC29000C4E31407D
:100FD0006A0709D00F202840042805D004314A01AF
:100FE00002D59F2331401B1B89014D0AD8B2DBE794
:100FF000621F95402900024E31406A07F4D0E9E7AC
:10100000FFFFFFFBF0B557464E464546DE46E0B5CE
:1010100098460C034B000600924687B0240B5B0DEC
:10102000CF0F002B00D15CE1D94A934200D175E18A
:10103000420FE4001443802212041443D54AC50031
:10104000944663440093002399469B464346424698
:101050001E03D20F5B0050469046360B5B0D00D14D
:1010600020E1CB4A934200D162E1CA49420F8C464B
:1010700000996344F6008C46164380229C44120477
:1010800063461643C2000020009300994346013195
:101090008C4649467B4001930F2926D8BE4B8900D8
:1010A00059588F46434601933400150083465B46EA
:1010B000022B16D0032B00D103E2012B00D0CDE090
:1010C000002200240025019B12052243DB071A435E
:1010D0002800110007B0F0BCBB46B246A946A046A6
:1010E000F0BD00240025AA4AEDE7280C2D042D0CA4
:1010F0002B00110C1204120C5343984613002F00BE
:10110000434399464F434F44BB4647460B003F0C71
:10111000BA464343DA440293D14504D980277F027B
:10112000B9464B44029353461B0C9B4653461F043F
:1011300043461B041B0C98463B0043440493330C6A
:101140003604360C9846330043439946434643439E
:101150002F009A46434677435D43380C4D4445196A
:10116000A94503D980235B029946CA443F04280C51
:101170003F0C2D04ED19270C2404240C030020003F
:1011800050437A4391463A0053440593030C9A46E0
:101190004A43614349445144AB44894503D98023C0
:1011A0005B0299464A4400040B0C000C0904091820
:1011B00020009946434670435C437E435F43030CE3
:1011C0009846A41944444A440397A64204D980236C
:1011D0005B029846474403972304029E9A46059B68
:1011E0005E449846AE42AD4176188E428941000475
:1011F000000C504440446D424719B846934649425A
:101200008946C344D94498428041A845AD4193459D
:101210009241894589416D4240422843240C524203
:1012200049420A43039B00198018C7184B46DC0D3E
:10123000049B75021D436A1E95414B46F60D7F02C5
:1012400035435A023C431543FB0100D41CE1012104
:101250006A080D401543E207154364084F4961448D
:10126000002900DCB0E06B0709D00F222A40042AD5
:1012700005D02A1DAA42AD416D4264191500E30153
:1012800004D58021464AC90014406144454A914230
:1012900000DD26E76207ED08640249051543240BCB
:1012A0004A0D10E75246324300D17FE0002E00D1B4
:1012B000DCE0300000F09AFD02000B3A1D23010033
:1012C0009B1A52460839DA408E40164352468A40ED
:1012D000009B3549181A03008C4663440020009394
:1012E000D3E6250005434AD0002C00D1B0E0200011
:1012F00000F07CFD010002000B391D2310005B1A79
:101300003100350008388440D94085400C432648D8
:10131000831A0093002399469B4697E605002543D0
:1013200026D1082200930223002491469B468DE695
:101330005246009B324310D1154900268C46634427
:101340004946009302231943894602209DE65B46E5
:101350000197022B00D0ADE6C3E60D4A0320944668
:1013600063444A46009303231A43914652468CE64F
:101370000C2200930323050091469B4666E6042356
:10138000994600230093013300249B465EE6C04645
:10139000FF07000001FCFFFFBC5D0008FF03000029
:1013A000FFFFFFFEFE0700000DFCFFFF4946012383
:1013B000194389460026012067E600238024002582
:1013C000434A019324037EE60120401A382800DDB9
:1013D00076E61F285BDD1F2223005242511ACB40C4
:1013E0001900202803D03B4A6244944025436A1EDA
:1013F00095412A000A4307210D000024154011429F
:101400005BD00F2100241140042953D0111D9142BB
:1014100092415242A4180A0023024BD50122002413
:10142000002550E680231B031C4209D01E4207D131
:1014300033431C0343461500240B254A019342E61F
:101440008022120314432403214A240B01973AE615
:1014500000F0CCFC01000200153120321C2900DC18
:101460004BE7340008380025844050E700F0BEFC0C
:1014700003001A00153220301C2A00DC1EE75646F5
:10148000083B00229E4023E7009B9C46E6E612496B
:10149000220061442E008D408A40C640691E8D4165
:1014A00032432A43C4405307B6D00F2111400429C8
:1014B000ACD1B1E765076402240BD20815430022C2
:1014C00001E68022120314432403014A240BFAE5A7
:1014D000FF0700003E0400001E040000F8B5574658
:1014E0004E464546DE46E0B51E0017004A000B0397
:1014F000520D5B0A9046420F1A43CD0FCD4C31037B
:10150000C300944670007A0F490AFF009A46B94614
:10151000400DF60F1143A04200D1B1E00122564028
:10152000B346B54200D188E04246121A002A00DCD8
:10153000AEE0002800D1C1E0BE48804500D151E1B5
:10154000802000040143382A00DD7BE11F2A00DDF2
:10155000EEE120203E00801A0C00D640D1408740AA
:1015600062468440521A781E87419446344327438A
:10157000DC1BA3429B4162465B42D31A99464B4611
:101580001B0200D418E14B465802430A99464B46C9
:10159000002B00D137E1484600F028FC0100083953
:1015A0002023220048465B1ADA4088408C4043469C
:1015B0001043884500DD36E1C91A4B1C1F2B00DDA6
:1015C000EAE020222600D21A01009440DE40D840F2
:1015D00000239140621E94418146984631430C435A
:1015E000630709D00F232340042B05D0231DA342FA
:1015F000A4416442A1441C004B461B0200D4DEE01F
:1016000041468C4B0131994200D1E7E04B468A4874
:10161000E4080340180049055B07400223434A0DD4
:10162000040B1205ED0722432A4318001100F0BCF9
:10163000BB46B246A946A046F8BD4246121A002A49
:1016400052DD002800D19CE0A04500D1CAE08020F6
:1016500000040143382A00DD49E11F2A00DC97E13C
:1016600010000E002038C640202A04D04020821AE4
:1016700091400F43B9464C46621E944134433AE1CF
:101680000A003A4328D0B346B5422BD06B4A4244B5
:10169000002A5DD042464446821A002C00D0F5E074
:1016A00065461D4300D19CE1551E012A00D1FBE196
:1016B000604CA24200D1BDE12A00F0E008003843AE
:1016C00000D1C3E0501E012A00D1A8E1594CA2422A
:1016D00000D187E0020036E701225640B346B5420A
:1016E00000D021E7554A4244002A00D1B5E04246E5
:1016F0004446821A002C00D138E14E4EB04200D14F
:10170000DEE18026644636043443A446382A00DDF0
:1017100096E11F2A00DD24E22026B41AA246644680
:101720005646B440A1461C004E46D44026433400E1
:101730005646B3405E1EB3411C436346D340C918AE
:10174000E419BC42BF417F42B94680468944D8E093
:1017500040463B4C0130204200D0B4E040460028D7
:1017600000D044E16046184300D190E108003843BE
:1017700000D0AAE16146DB0849070B436146CC086B
:1017800027E00800384361D0501E012A00D139E11A
:10179000A24227D002005DE702001F39CA401100B3
:1017A000202B03D04022D31A98400443631E9C414F
:1017B0000023994698460C43630700D012E74B4636
:1017C0004A46E4085B072343D408424619498A4243
:1017D0000ED024035205240B520D22E70A000024E8
:1017E00000231EE7DB086246520713436246D40813
:1017F0001A00224300D1FCE1802212031443240387
:101800000C4A240B0DE7200000F0F0FA010018311B
:101810001F2900DCC4E60838844043462000002429
:10182000884500DCC8E6044A5B1A104098468146A9
:10183000D6E6C046FF070000FFFF7FFF01F8FFFF6D
:10184000FE0700000F437A1E974191E66146DB08D0
:1018500049070B436146CC08B8E74046D34C0130FA
:10186000204200D0A2E04046002800D001E16046BE
:10187000184300D15EE10800384300D05FE16146C3
:10188000DB0849070B436146CC08A2E7C84DA842D4
:1018900000D1CFE0802564462D042C43A446382A8D
:1018A00056DC1F2A00DDD1E020251E00AD1A64465B
:1018B000AB40AC40D6405D1EAB413443234364464D
:1018C000D440091B49E06046DC1B461AA342804114
:1018D0004042814630004E46801B8146000276D44D
:1018E0004B46234300D052E60024002571E73943DC
:1018F0000C00621E9441E4189C429B415B4263448D
:1019000099464B461B0200D456E701239C46A84B40
:10191000E044984538D04B46A648012203401800C1
:10192000630814401C43C3071C434308994657E609
:1019300010000E002038C640202A04D04020821A11
:1019400091400F43B9464F467A1E974137430FE601
:1019500062461A4313005A1E9341FC1AA742BF4124
:101960007F42CB1B99465D46804608E666461E438D
:1019700000D1BEE0561E012A00D109E18C4CA242E2
:1019800000D119E13200C1E642460024002348E6B6
:1019900020200C00801A3E0087408440D640781EEC
:1019A0008741D14034433C438C44A4E7804A904271
:1019B00000D1E9E0DF199F429B4161445B42C918B5
:1019C000CC077F084B08994680463C43F4E6FC1A56
:1019D000A742BF4163467F42C91ACB1B99465D4669
:1019E000D5E5FF084B075D463B43CC08EEE6624673
:1019F0001A4300D082E00B003B431BD1802400251A
:101A00002403F9E6DC199C429B41614489465B4210
:101A100099444B461B0244D401239846CCE6DC1B78
:101A20006246A3429B41511A5B42CB1A994601235D
:101A30009846A4E5FF084B075D463B43CC08D7E634
:101A400062461A431400631E9C4179E61500644601
:101A5000203DEC40A046202A05D040256446AA1A25
:101A6000944023439A465446631E9C414346234375
:101A700073E762461A4323D00A003A4300D0A0E03D
:101A80006246DB08520713436246D408B0E60B00F7
:101A90003B4300D128E7FF084B075D463B43CC089A
:101AA00097E60223984636E7FC1AA742BF416346F1
:101AB0007F42C91ACB1B994601235D4698465EE5D5
:101AC0004B07FF083B43CC0892E6DC1B6046A34271
:101AD000B641401A7642801B8146000260D5FC1A4E
:101AE000A742BF4163467F42C91ACB1B99465D4658
:101AF00076E5FF084B073B43CC0867E60A00DB08A6
:101B00003A4300D16FE66246520713436246D40857
:101B100080221203144207D0C808104204D15D4647
:101B20000400FB0849070B435A0FDB00DB08520790
:101B300013435DE64B07FF083B43CC0849E6DC193D
:101B40009C429B41614489465B4299444B461B023F
:101B500000D431E64A46174B1A4001239146984675
:101B60002AE616006446203EF440A046202A05D00E
:101B700040266446B21A944023439A465446631E54
:101B80009C4143461C43DBE502000024002348E55A
:101B9000DC19BC42BF41614489467F42B94438E701
:101BA0004B46234300D19FE606E6C046FE070000F1
:101BB000FF070000FFFF7FFFFF084B073B43CC08F8
:101BC00016E66246DB08520713436246D4088022B9
:101BD0001203144207D0C808104204D15D46040025
:101BE000FB0849070B435A0FDB005207DB0813437E
:101BF000FEE50023014A1C0013E5C046FF07000074
:101C00000A0030B5134C530009030500090B0020EE
:101C10005B0DD20FA34204DD0F48834202DD0F4B60
:101C2000D01830BD8020400301430D48C01A1F2842
:101C300008DD0C48C31AD9400B005842002AF0D1E5
:101C40001800EEE7084CC540A446634499400B00D9
:101C50002B43F2E7FE0300001D040000FFFFFF7F9F
:101C60003304000013040000EDFBFFFF70B54300D8
:101C70004602C40FFE201B0E591C750A08420CD0E8
:101C8000E022920094466D07360B63441B053343F4
:101C9000E40723432800190070BD002B14D1002D48
:101CA0001BD0280000F0A2F80A281CDC0B232E0011
:101CB0001B1ADE40030015339D400E4A3603121AEC
:101CC0005205360B530DE1E7002D09D08022360B6B
:101CD0001203094B6D071643D8E700230026D5E70A
:101CE0000026054BD2E703000B3B9D402E0000254C
:101CF000E3E7C04689030000FF07000084461000A8
:101D000062468C461900634600E0C0461FB500F0ED
:101D1000EFF9002801D40021C8421FBD10B500F022
:101D20003FF94042013010BD10B500F0E1F9002844
:101D300001DB002010BD012010BDC04610B500F031
:101D4000D7F9002801DD002010BD012010BDC046DC
:101D500010B500F067F9002801DC002010BD01205B
:101D600010BDC04610B500F05DF9002801DA002072
:101D700010BD012010BDC046844608006146FFE743
:101D80001FB500F0C9F8002801D40021C8421FBDCA
:101D900010B500F055F84042013010BD10B500F00C
:101DA000BBF8002801DB002010BD012010BDC0469B
:101DB00010B500F0B1F8002801DD002010BD0120B1
:101DC00010BDC04610B500F061F8002801DC00200D
:101DD00010BD012010BDC04610B500F057F8002816
:101DE00001DA002010BD012010BDC0461C210123D6
:101DF0001B04984201D3000C10391B0A984201D3EE
:101E0000000A08391B09984201D30009043902A2CB
:101E1000105C40187047C046040302020101010132
:101E2000000000000000000010B5002903D1FFF7FA
:101E3000DDFF203002E00800FFF7D8FF10BDC046EC
:101E400070B5420045024E024C00C30F6D0A0120DE
:101E5000120E760A240EC90FFF2A06D0FF2C03D0DB
:101E6000A24201D1B54206D070BD002DFCD1FF2C9D
:101E7000FAD1002EF8D18B4206D00120002AF3D1EE
:101E80002800431E9841EFE70020EDE770B54200BF
:101E900045024E024C00C30F6D0A120E760A240E44
:101EA000C80FFF2A1BD0FF2C0ED0002A1BD1002CFC
:101EB00001D1002E1CD0002D0CD083421CD0022159
:101EC000581E0840013870BD002E22D1002AF4D1DE
:101ED000002DF2D10028F6D101204042F3E7002D79
:101EE00017D1FF2CF0D0002CE7D1002EE5D1E6E78A
:101EF0000020002DE7D0E2E7A24205DCEADBB54294
:101F000002D8E7D30020DEE74342584140000138C1
:101F1000D9E702204042D6E770B5420045024E02A2
:101F20004C00C30F6D0A120E760A240EC80FFF2A4A
:101F30000BD0FF2C0DD0002A1FD1002C16D1002E63
:101F400014D10020002D10D009E0002D0CD1FF2C61
:101F500013D1002E08D1002A08D0834212D00221CA
:101F6000581E0840013800E0022070BD002DF4D159
:101F70000028FAD101204042F7E7002CEDD1002ED5
:101F8000EBD1ECE7A24205DCF2DBB54202D8EFD39D
:101F90000020EAE74342584140000138E5E7C046E7
:101FA000F0B54E464546DE4657469046E0B517002A
:101FB0001A03120B0500844619480E034C00914683
:101FC0005A00DB0F9B46360B640DC90F520D84423D
:101FD00019D0824210D0012094420ED14E450CD12E
:101FE0000120C44509D1594517D0002C05D1300036
:101FF0002843431E984100E00120F0BCBB46B24696
:10200000A946A046F0BD330001202B43F5D1A242E2
:10201000F3D14B463B43F0D1E2E70020EDE7C04669
:10202000FF070000F0B54746CE4604001800160032
:102030001B031B0B2D4D4A00994680B543000F032F
:10204000A446B0463F0B520DC90F5B0DC00FAA420C
:1020500021D0AB4213D0002A22D13C43002B02D125
:102060004D462E4322D0002C10D0814222D0022097
:10207000013908400138C0BCB946B046F0BD4D46F4
:102080002E4329D1002AF0D13C43EED10028F2D1D1
:1020900001204042EFE73D0025431DD19342EED0A1
:1020A000002BE2D14C462643DFD1E0E70020002C94
:1020B000E1D0DCE79A420ADCE8DB4F45D7D80ED006
:1020C00000204F45D7D20029E2D00800D3E7434291
:1020D000584140000138CEE702204042CBE7C445DA
:1020E000C5D80020C445C6D2EDE7C046FF070000B2
:1020F000F0B54746CE460400180016001B031B0B24
:102100002C4D4A00994680B543000F03A446B046C3
:102110003F0B520DC90F5B0DC00FAA420DD0AB4251
:1021200010D0002A27D13C43002B11D14D462E431D
:102130000ED10020002C15D00EE03D00254310D11B
:10214000934218D14D462E430BD1002A02D13C4375
:10215000002C0BD0814214D00220013908400138F4
:1021600000E00220C0BCB946B046F0BD0028F9D15D
:1021700001204042F6E7002BECD14C462643E9D142
:10218000EAE79A4204DD4342584140000138E9E75A
:102190009A42EBDB4F45DFD806D000204F45E1D215
:1021A0000029E5D00800DDE7C445D5D80020C445A6
:1021B000D8D2F5E7FF07000013B5C82304000522B5
:1021C0006946064802F0DCFF6B465B78303400203D
:1021D000A34201D16B46987816BDC046F00100209D
:1021E00070B501250400FDF78FFF074E6D422B00EF
:1021F000210082B2300002F05CFF2B00300003228D
:10220000024902F056FF70BDF001002000000020DE
:102210001FB50123092215485B4201A902F0B0FF56
:1022200000280BD000236A46138053806B466A4611
:102230005B8810881B04184305B000BD6B461B79F2
:10224000672BEFD16B465B7A012BEBD16B466A466D
:10225000D9791B7A50791B020B43694692795BBA94
:102260001202024352BA0A806A46DEE7F0010020F9
:102270007FB5172380226B441A707B3A0292043A8E
:102280000093C02113000192024801F0DFFC07B067
:1022900000BDC0465C01002016227C2370B50124DD
:1022A000052586B00D4E6A4403431370C0212300F8
:1022B0000295009230000022019401F0C7FC0295C3
:1022C00012356D4423002200C02130000194009596
:1022D00001F09AFD287806B070BDC0465C01002070
:1022E0007FB5172202236A44137008330293093B17
:1022F0000092A42110220193024801F0A7FC07B02C
:1023000000BDC0465C01002030B50A4D87B02800F2
:1023100001F022FB0A2305AC0293083B019324221F
:10232000A42128000094013B01F06EFD208807B035
:1023300030BDC0465C01002000230360024B836077
:10234000024BC3607047C046FD2300089D2600086D
:1023500000230360014B83607047C04611220008D0
:10236000054B8360054B0360054B4360054BC36021
:10237000054B03617047C046FC5D0008045E000821
:102380000C5E0008135E00081A5E0008002303704C
:10239000024B8360024B9B68C3607047C5230008F3
:1023A00078020020002303604360014BC360704744
:1023B000F530000800230380014B83607047C0465E
:1023C000092300080378002B02D1084B9B6807E023
:1023D000012B01D1064BF9E7022B03D1054B1B69F9
:1023E000C3607047032BFCD1034BEFE7780200205A
:1023F000BC020020100100203C0100204378013B7A
:10240000DBB24370002B00D10370704737B56C46C8
:10241000034D2000EB6898470CCC0CC537BDC04677
:1024200004030020054B8360054BC360054B03612B
:10243000054B4361054B83617047C04695250008F5
:10244000B9260008A5270008ED2600081D2D000864
:10245000054B8360054BC360054B0361054B43612E
:10246000054B83617047C046B9250008392700082D
:102470000D240008312800087D240008044B1B7936
:10248000082B04D10023034A1370034A13707047CA
:10249000BC020020F40200205B010020074B836097
:1024A000074B0361074B4361074B8361074BC361D4
:1024B000074B0362074B43627047C0462D26000856
:1024C000DD25000849290008D9240008E92400086E
:1024D000B92800085927000810B5024CA36898478E
:1024E000206010BD2C030020114B10B5040018888B
:1024F0000200FF3AA02A12D85B88623B4B2B0ED811
:1025000082235B00984211D30538FF38FEF7EAFCBE
:10251000FF218905FEF7DAF8FDF7D6FF2070227853
:10252000131C642A00D96423237010BD0020EFE738
:102530002C030020054B8360054BC360054B0361F2
:10254000054B4361054B83617047C046092600086F
:102550008527000861250008E52800087525000882
:1025600010B5034CA368984780B2208010BDC046C8
:10257000E8020020044B1B79052B04D10023034AF9
:102580001370034A137070473C010020F4020020CE
:102590005B01002010B50020FFF70EFE054C2071F6
:1025A000E36898472369984763699847A369984700
:1025B00010BDC0467802002010B50120FFF7FCFDD9
:1025C000054C2071E36898472369984763699847E9
:1025D000A369984710BDC046BC02002010B5022078
:1025E000FFF7EAFD074C6369207320009847A36951
:1025F00098472000E36998472000236A9847636A58
:10260000984710BD1001002010B50320FFF7D4FD3E
:10261000054C2071E3689847236998476369984798
:10262000A369984710BDC0463C01002070B5154C09
:10263000050002781449200002F0EAFE2000FDF7B0
:1026400063FD12490200200002F0E2FE2000FFF7C5
:10265000C7FD2A780E49200002F0DAFE2000FFF7BD
:10266000BFFD2A780B49200002F0D2FE2000FFF7C0
:10267000B7FD2A780849200002F0CAFE2000FFF7C3
:10268000AFFD70BDA90000202C5E0008215E00088F
:102690002F5E00083C5E0008445E0008010010B593
:1026A0000448002903D0002102F05AFA10BD02F0BC
:1026B0005BFAFBE7B001002010B5084C2378002B33
:1026C0000BD10748FFF78CFD0648FFF789FD064B45
:1026D0001868FFF785FD0123237010BD5B01002002
:1026E000555E00085A5E00081403002010B50D4B1B
:1026F0001B79032B0CD101220B4B1A7000230B4AC0
:1027000013700B4A13700B4B5868FFF769FD10BD2F
:10271000042B02D10222044BEFE7052BF7D1032251
:10272000014BEAE778020020F40200205B01002060
:10273000A80000201403002010B5054C2378002BBE
:1027400004D10448FFF74CFD0123237010BDC0469F
:102750005B010020715E000810B5064B1B7B062B49
:1027600007D10023044A05481370054A1370FFF788
:1027700037FD10BD10010020F4020020765E000835
:102780005B01002010B5054C2378002B04D10448D0
:10279000FFF726FD0123237010BDC0465B0100201A
:1027A0007F5E000870B5164D2B78002B27D1154B96
:1027B000154C1B78154A9B009A581549200002F0C9
:1027C00027FE2000FFF70CFD124B134A1B7813491C
:1027D0009B009A58200002F01BFE2000FFF700FD2E
:1027E0000F4B104A1B78002B00D10F4A0F492000D5
:1027F00002F00EFE2000FFF7F3FC01232B7070BDEA
:10280000A800002058010020A9000020140000208A
:102810008A5E000838010020040000209F5E000846
:102820009602002097020020845E0008AE5E000839
:1028300070B500F0E9FD174C2368C01AFA239B001D
:10284000984226D900F0E0FD134D14492060286815
:10285000FEF754F8FDF738FE114C82B21149200002
:1028600002F0D6FD2000FFF7BBFC28680E49FEF7FA
:102870006BF9FFF7FBF90D4A0D4BFEF7C3FBFDF7B4
:102880003BFE0C49C2B2200002F0C2FD2000FFF75F
:10289000A7FC70BDAC020020040300200000204112
:1028A000A9000020BE5E00080000A04166666666C2
:1028B00066661A40CC5E000810B500F0A5FD074C16
:1028C0002368C01AFA235B00984205D900F09CFDEA
:1028D000206003488368984710BDC046A8020020C6
:1028E0001001002070B500F08FFD124C2368C01A53
:1028F000FA239B0098421BD900F086FD0E4D206004
:102900002A880E4C92B20E49200002F081FD200070
:10291000FFF766FCFA21288849000138FDF79AFC88
:1029200008490200200002F073FD2000FFF758FC68
:1029300070BDC046A4020020E8020020A9000020CB
:10294000DE5E0008EB5E000870B5134D04002B78C6
:10295000002B20D11148FFF743FC1148FFF740FC42
:102960001048FFF73DFC1048FFF73AFC0F48FFF70F
:1029700037FC0F48FFF734FC0123012221005B42A2
:102980000C4802F0FDFB0C48836898470B48FFF7A2
:1029900027FC01232B7070BD5B010020FC5E00084A
:1029A000015F0008185F0008255F0008325F00081B
:1029B000435F0008F001002010010020515F000873
:1029C000030010B502281AD1A022D205116908000F
:1029D0001840194202D1124A13700FE01269002008
:1029E0001A420BD00E4B1B78022B07D10D4B1868E7
:1029F000FFF7F6FB00220120094B1A7010BD0020E2
:102A0000032BFBD1A0210422C9050C691442E2D09A
:102A10000B691342F2D0024B1B78032BEED1E5E792
:102A2000940200201403002070B5012819D1A023BE
:102A3000DB051A6914000440024203D10C4B1870E4
:102A4000200070BD1B6900240342F9D0084E002508
:102A50003478012C09D1074B1868FFF7C1FB35709A
:102A6000EEE7FFF7ADFF0400EAE72C00E8E7C04619
:102A70009402002014030020044A137859424B4169
:102A800013700022024B1A707047C0465801002094
:102A9000A8000020F7B5344F01203B785A1E93411F
:102AA000324A5B421340A0220833D2059361FFF7FC
:102AB000BBFF2F4D00280ED02E4B3A781B78190003
:102AC000114322D12C4B2D4A1A8001232B7000F088
:102AD0009BFC2B4B18602C78012C33D1264B284EB5
:102AE0001B780193002B26D100F08EFC3368C01AAE
:102AF000244B984225D900F087FC3368C01AFA238A
:102B00001B0198420BD2200012E0012A01D10223BE
:102B1000DCE7012BDFD1184B1B4A1A80DBE700F002
:102B200073FC1A4B30601C70019B3C7018002B70BA
:102B3000FFF7B2FB05E00020FFF7AEFB00F064FCFE
:102B40003060F7BD022CFCD100F05EFC0C4B1B6822
:102B5000C01AFA239B009842D5D300200B4B387043
:102B600018702870E4E7C0465A010020F8FF0700FB
:102B7000A102002058010020D8020020030200001A
:102B8000B8020020B80B0000030400005901002027
:102B900010B5164C22781300591E8B4114495B4224
:102BA0000B40A0211033C9058B61124B19698907AD
:102BB00002D41B691B070BD5002A09D101232370FE
:102BC00000F022FC0C4B18600C4B1868FFF708FB58
:102BD0002378012B09D100F017FC074B1B68C01AA2
:102BE000074B984201D90023237010BD95020020A5
:102BF000F0FF0F0000040050B40200201403002076
:102C00008813000070B51E4C2578002D0DD10220D0
:102C1000FFF7D6FE002817D001232370194B1D7033
:102C200000F0F2FB184B18600EE0012D0DD100F002
:102C3000EBFB154B1B68C01A144B984204D90223B6
:102C4000002223700F4B1A7070BD022D09D1104B5A
:102C50001B79062BF8D10022033B2370094B1A7015
:102C6000DEE7032DF0D100F0CFFB074B1B68C01A45
:102C7000084B9842E8D90023024A23701370E3E717
:102C800038010020A8000020B002002088130000B6
:102C9000780200201027000010B50320FFF790FEF7
:102CA000174C00280AD000212278164B0132D2B2EC
:102CB000197015481549227002F0AAFB144A2378AE
:102CC0001279072A19D1002B0AD0124A1178124A18
:102CD000002909D10B485370017001202170107038
:102CE000A0232022DB0506E081235B001380A023C4
:102CF0008022DB0592039A6110BD002BF7D1EFE72C
:102D000096020020A8000020970200205A5F0008C9
:102D10007802002058010020D802002010B5094B8D
:102D20001B79082B05D1084B1B78002B01D1FFF72D
:102D3000A3FEFFF7AFFEFFF72BFFFFF763FFFFF7E1
:102D4000ABFF10BD7802002059010020002310B510
:102D50001B4C2078984202D0638801339BB2627882
:102D60006380002A05D001280ED1E268632B01D8C8
:102D7000904710BD0020952BFAD99047A3682000FA
:102D8000984700236380F4E702280BD1E2680138FA
:102D9000312BEDD90020632BEAD90120C72BE7D9CD
:102DA0000020EAE70328E4D1FA21E268490002386A
:102DB0008B42DDD3FA21002089008B42DDD2D7E798
:102DC000D802002010B59CB0242200210FA802F0E8
:102DD00017FB1422002101A802F012FB202200217F
:102DE00006A802F00DFB1D491D4A0B6801241A407C
:102DF00080231B0113430B6002230E9318930023BF
:102E000019938023DB021A9380231022DB030EA880
:102E1000119412921B9301F06BF9002801D072B645
:102E2000FEE70F230390019304900C3B05902100D3
:102E300001A8029301F0DEFB002801D072B6FEE784
:102E4000092308900B9006A8069301F0C1FC002806
:102E500001D072B6FEE71CB010BDC0460070004045
:102E6000FFE7FFFFF0B501258DB000F0ADFAFFF7E9
:102E7000A9FF1422002107A802F0C2FA0221A0260D
:102E80007F4BF605DA6A30002A43DA62DA6A0024F8
:102E90002A400392039ADA6A0A43DA62DB6A002262
:102EA0000B4004933631049B00F0CEFB0723300027
:102EB00007A907930894099500F006FB3823300012
:102EC00007A90793089509940A9400F0FDFA0A23CC
:102ED0006C4807A907930894099400F0F5FA6A482A
:102EE0006A4B8460036096239B0143600C23C4609B
:102EF000046143618461C4610462446202F024FAA3
:102F0000A04201D072B6FEE7614C624BA060236024
:102F1000614B20616061A061E0612062200063601C
:102F2000E56000F019FD011E01D072B6FEE7200039
:102F300001F04CF8011E01D072B6FEE7200001F04E
:102F40006BF8051E01D072B6FEE70100082205A845
:102F500002F056FA1022290007A802F051FA802345
:102F60004E4CDB0523601F2320006360DA33A5602D
:102F7000E3602561656101F0CFFD002801D072B6E4
:102F8000FEE70590069005A9200001F07FFE021ED5
:102F900001D072B6FEE76023099007930A901C33B4
:102FA000200007A9089301F0E3FD0190002801D05B
:102FB00072B6FEE7200000F039F9FFF791F9FFF74C
:102FC00057F93748374B384F4360384B384C7B60A4
:102FD000384B394D6361394B394A6B60394B9360DB
:102FE000394B3A4A53603A4B3A4A13603A4B3B4AA0
:102FF00013603B4B3B4A53603B4A3C4B1360FFF72B
:103000009BF938007B68984720006369984728003F
:103010006B6898472A4B2A489B6898472B4B2B484C
:103020005B6898472B4B2B481B6898472B4B2B48CA
:103030001B6898472B4B2B485B6898472A4B2A48BC
:103040001B6898470823B361DB18B3611033B36181
:103050000198FFF721F92648FFF7C2F8A068FFF7AB
:10306000BFF82068FFF7BCF8E068FFF7B9F82069FF
:10307000FFF7B6F8AB6828009847EB689847F9E780
:103080000010024000040050F00100200038014010
:103090005C01002000540040380F3000B0010020D7
:1030A000D8020020392300082C03002051230008F7
:1030B0001403002061230008F40200208D2300087F
:1030C00004030020A5230008B5230008E80200201F
:1030D000252400087802002051240008BC020020AA
:1030E0009D240008100100203C0100203525000827
:1030F000765E000870B50F25FD23214E86B00400D2
:103100006D4430002B7000F027FC01232A0000934F
:103110008821300000F076FC142000F07BF90A23AF
:1031200004AD2A00882100933000043B00F0FCFC31
:1031300013226A44507813780002184340BA80B2D0
:10314000FDF71EFF0F49FDF7C1FA0F49FDF7D6FB4A
:103150000E49FDF7F9FC061C288840BA80B2FDF73D
:103160000FFF0849FDF7B2FA0949FDF7C7FB094906
:10317000FDF7EAFC20602000666006B070BDC04626
:103180005C01002000FF7F470000FA420000C040C1
:1031900000002F43000034420122054B596B0A43C3
:1031A0005A638022996B52050A439A637047C0465E
:1031B0000010024010B5040086B01422002101A8BE
:1031C00002F01EF90F4B22689A4219D102210E4CCF
:1031D0000E48E26A0A43E262E36A0B400093009BF6
:1031E000C0230193AE3B02930F3B049301A9023B22
:1031F000059300F069F98023A26B9B031343A3633B
:1032000006B010BD00540040001002400004005001
:1032100080230268DB059A4204D10123024A916BA4
:103220000B4393637047C0460010024010B5040082
:1032300086B01422002101A802F0E2F8802322685F
:10324000DB059A4214D101200A4AD16A0143D162B6
:10325000D36A01A903400093009B80231B02A02096
:1032600001930223C00502930333059300F02CF968
:1032700006B010BD0010024010B5040086B0142244
:10328000002101A802F0BCF8104B22689A421BD121
:1032900080220F4BD201596BA0200A4301215A63AF
:1032A000DA6AC0050A43DA62DB6A0B400093009BCE
:1032B000C023DB000193022302935B1804935B1885
:1032C00001A9059300F000F906B010BD00380140D7
:1032D00000100240FEE7FEE77047704710B500F0AF
:1032E00087F800F0EDF810BD0B4A0C490300891A6D
:1032F0000B4A10B51068002801D10A481060106808
:10330000C3188B4206D902F051F80C230360012048
:10331000404210BD1360FCE70004000000200020C4
:103320003803002050030020704700000D488546F8
:10333000FFF7FAFF0C480D490D4A002302E0D4586C
:10334000C4500433C4188C42F9D30A4A0A4C0023EF
:1033500001E013600432A242FBD302F02DF8FFF724
:1033600081FDFEE700200020000000208C000020EE
:10337000306000088C00002050030020FEE70000B1
:1033800070B50500FA200D4B80001978FCF7D8FEC7
:103390000B4B01001868FCF7D3FE00F077F804002F
:1033A0000120002C09D1032D07D802382200290062
:1033B00000F042F82000034B1D6070BD200000208B
:1033C0001C000020240000204023084A10B511688A
:1033D00003200B431360FFF7D3FF041E03D1FFF755
:1033E000DBFE200010BD0124FBE7C04600200240A8
:1033F000034A044B11681B785B1813607047C04682
:103400003C03002020000020014B18687047C04694
:103410003C03002070B50400FFF7F6FF0500631CB5
:1034200002D0044B1B78E418FFF7EEFF401BA042CC
:10343000FAD370BD2000002030B5FF2503242A00F8
:103440000440E400A24089012940D243A140C3B214
:1034500000280ADBC0240B4B80088000C018A400A1
:1034600003591A401143015130BD0F200340083B5E
:1034700005489B089B001B18D86902401143D9617D
:10348000F2E7C04600E100E000ED00E08022431ECC
:103490005204012093420DD2C021074A07485360CD
:1034A000036A09061B021B0A0B4303620020072361
:1034B000906013607047C04610E000E000ED00E04F
:1034C00010B5FFF743FC10BD584AF0B58218541EE2
:1034D000A241002387B0053203910592039A126836
:1034E0001400DC4001D107B0F0BD01210D00140033
:1034F0009D402C408C4602942A4200D194E0032443
:10350000039A5E00526801922240B440E143541E87
:10351000049164452AD887680F400399CC680199C3
:10352000B4403C4384604468AC4325000C096146C8
:103530000C409C402C434460C56804990D4003999D
:103540008C68B4402C43C460022A11D107250F2196
:103550001D40AD00A940DC08A4000419276A8F4370
:1035600003990969A9400F43276201E0032AE3D1C7
:10357000B2400468049921400A430260C0220199C4
:103580009202114250D00127294C0326626B1D0084
:103590003A436263274A9C08A400A418A2683540F5
:1035A00094460F22AD00AA4061469143A022D20565
:1035B0009446002260450DD01F4A94463A0060456B
:1035C00008D01E4F9218B84204D01D4F3200B842A6
:1035D00000D0059AAA400A430299A2600D00194A38
:1035E000CC43966801993543C90201D43500254082
:1035F0009560D668029D01993543890201D4350052
:103600002540D5605668029D01993543890301D450
:103610003500254055601568029E01992E43C90367
:1036200001D425402E001660013357E700E4FFAFB8
:10363000001002400000014000040050000800504B
:10364000000C005000040140002A01D08161704745
:103650008162FCE703689A69920701D500229A62A9
:1036600001229969114202D199690A439A6170470E
:1036700030B5039C00682343120489051A43890D61
:10368000054B45680A43640D1C435200A54352088C
:103690002A43426030BDC046FF63FF03F7B5150003
:1036A00002680E00916910230F0004001F400020E3
:1036B00019420ED02027D3610090019023689A69A7
:1036C0003A4264D1019A002A32D004270120009B9B
:1036D0001F438021236849009A690A4202D00120D1
:1036E000D96107438021C9000A4203D00820D9616B
:1036F00007430738802189000A424DD00222D96150
:1037000017432000FFF7A6FF2268254953680B40A6
:10371000536023002022606C4133074367641A70B2
:10372000220000234232403413700120237035E020
:10373000721CC4D0FFF768FE401BB04201D8002EB7
:10374000BCD122002368423258681178CAB2802165
:1037500094469A6909020A420CD08022D201104292
:1037600008D16146202905D059680A435A60FFF7FD
:103770004BFE050023689B693B429FD1FFF744FE47
:10378000401B1928F6D901230097019396E7019A67
:10379000002A9AD1DF6198E70028B2D1FEBDC04669
:1037A00000E800FEF8B504000D00160002272368AB
:1037B0009B693B4201D00020F8BD32002900200067
:1037C000FFF76CFF002818D16B1CF0D0FFF71CFE30
:1037D000801BA84201D8002DE9D123689B691A00FB
:1037E0003A403B42E3D12021636C0B4363642300E6
:1037F0004034413319705A7022700120DCE7F8B56B
:1038000004000D0017001E00226893692B405B1B0B
:1038100059424B41BB4201D000201FE0731CF4D041
:10382000FFF7F2FD069BC01AB04201D8002EEBD183
:1038300023689B692B405B1B5A425341BB42E3D137
:103840002022636C012013436364230041331A7008
:10385000220000234232403413702370F8BDF8B5C3
:1038600004000E001700202523689B692B4201D01D
:103870000020F8BD3A0031002000FFF70FFF0028BC
:1038800015D1FFF7C1FDC01BB04201D8002EEBD10E
:1038900023689B691A002A402B42E5D1636C2B43B5
:1038A00063642300403441331D705A70227001203C
:1038B000DFE70000F8B504000D00170004262368B8
:1038C0009B69334211D13A0029002000FFF7E6FE40
:1038D000002824D1202123689A690A4223D09A69BA
:1038E000324204D0228D002A01D00020F8BD99690F
:1038F000102208001040114213D0DA610C3A6264C1
:103900002021D9615A68134802405A6023002200DE
:103910004133197000234232403413702370012068
:10392000E4E76064ECE7FFF76FFDC01BA84201D835
:10393000002DC4D123689B69190031403342BED1A8
:103940002022636C134363642300403441331A70B4
:103950002170E4E700E800FE70B504000120002CAF
:103960003FD0250041352B78DAB2002B05D123005A
:10397000403320001A70FFF71DFC242301212B7017
:1039800023681D481A68A6688A431A6061681B4A42
:103990000A401A619A6802409A60E268012A21D1BD
:1039A00080210902314399605A68154911435960D1
:1039B000DA6861690240DA60226900200A43A1697D
:1039C00009020A43DA60216AE2690A431A600122A5
:1039D00019680A431A60202360642B702063423404
:1039E000207070BD8421090231439960022ADBD125
:1039F000802212015A60D7E7FF7FFFFFFFFFFFF031
:103A000000800002F0B587B00593030041330492B3
:103A100003931B7804000F000220202B14D12300F5
:103A200040331A78012A0FD001261E70FFF7ECFCF4
:103A30008021050000901923320020000902FFF7C1
:103A4000DEFE002802D0012007B0F0BD21232600B1
:103A5000039A42361370113B3370049B60646362B7
:103A6000059B60636385628D2D4BFF2A20D9FF2261
:103A70002285009380235B0439002000FFF7F8FDC6
:103A8000638D2A0020000C99002B19D1FFF7E7FE67
:103A90000028D8D120212368224DD9615A682A40B4
:103AA0005A60230040344133197030702070CBE7E6
:103AB000628D92B22285D2B2009380239B04DBE711
:103AC000FFF770FE0028BED1636A226819780133BF
:103AD00091626362638D228D013B9BB26385013AE3
:103AE000638D92B22285002BCAD0002AC8D18021D2
:103AF00020000C9B0095FFF782FE0028A3D1638D68
:103B0000FF2B06D9FF2323858023FF2200905B042F
:103B1000B2E7628D92B22285D2B20090CDE7C04664
:103B20000020008000E800FEF0B587B00593030098
:103B30004133049203931B7804000F000220202BD2
:103B400014D1230040331A78012A0FD001261E70A9
:103B5000FFF75AFC80210500009019233200200055
:103B60000902FFF74CFE002802D0012007B0F0BD8B
:103B700022232600039A42361370123B3370049BB3
:103B800060646362059B60636385628D2D4BFF2AD1
:103B900020D9FF222285009380235B043900200076
:103BA000FFF766FD638D2A0020000C99002B19D1C8
:103BB000FFF755FE0028D8D120212368224DD96176
:103BC0005A682A405A6023004034413319703070DB
:103BD0002070CBE7628D92B22285D2B2009380230F
:103BE0009B04DBE7FFF766FE0028BED12368626A0C
:103BF0005B6A1370636A228D01336362638D013ADD
:103C0000013B9BB26385638D92B22285002BC9D0A4
:103C1000002AC7D1802120000C9B0095FFF7EFFD03
:103C20000028A2D1638DFF2B06D9FF232385802393
:103C3000FF2200905B04B1E7628D92B22285D2B27E
:103C40000090CCE70024008000E800FEF0B589B0C9
:103C500004930EAB039204CB04001B8805920693D9
:103C60000300413307931B780F000220109E202B86
:103C700008D1002A02D0069B002B05D180239B008F
:103C80006364012009B0F0BD230040331A7802209C
:103C9000012AF7D001221A70FFF7B6FB8021050038
:103CA00000901923012220000902FFF7A8FD002837
:103CB000E7D12123079A3900137023004233079379
:103CC0004023079A1370059B60646362069B6063E0
:103CD00063856B461A7C4A4B2000009380235B046B
:103CE000FFF7C6FC2A0031002000FFF75BFD00282B
:103CF00026D1049A2368012A16D16A46127B8021B4
:103D00009A622000330000220095FFF778FD00281A
:103D100016D1638DFF2B17D88023628D9B0492B23E
:103D20002285D2B2009014E0039A3100120A9A62FE
:103D300020002A00FFF736FD002801D12368DCE7C8
:103D40000023403423709CE7FF22802322855B04FC
:103D5000009039002000FFF78BFC2A003100200082
:103D6000FFF720FD002800D08BE7636A22681978EE
:103D7000013391626362638D228D013B9BB2638547
:103D8000013A638D92B22285002B17D0002A15D1FB
:103D90003300802120000095FFF731FD002800D07E
:103DA0006FE7638DFF2B23D9FF2323858023FF2219
:103DB00000905B0439002000FFF75AFC638D002B54
:103DC000CBD12A0031002000FFF749FD002800D0A8
:103DD00057E7202123680B4DD9615A682A405A6061
:103DE000230041331970079B40341870207049E755
:103DF0008023628D9B0492B22285D2B20090D9E7D3
:103E00000020008000E800FEF0B589B004930EABFE
:103E1000039204CB04001B880592069303004133F0
:103E200007931B780F000220109E202B08D1002A38
:103E300002D0069B002B05D180239B0063640120E8
:103E400009B0F0BD230040331A780220012AF7D0D0
:103E500001221A70FFF7D8FA80211923009005007B
:103E6000012220000902FFF7CAFC031EE7D122222B
:103E700007990A70220042320792402207990A707D
:103E8000059A60646262069A4D4962856A4660637B
:103E9000127C200000913900FFF7EAFB2A00310074
:103EA0002000FFF77FFC002827D1049A2368012A0D
:103EB00017D16A46127B40219A622000330000220B
:103EC0000095FFF79CFC002817D1628D3D4BFF2A1F
:103ED00017D8628D92B2228500938023D2B29B04C0
:103EE00014E0039A3100120A9A6220002A00FFF7B8
:103EF00059FC002801D12368DBE7002340342370FC
:103F00009DE7FF222285009380235B043900200077
:103F1000FFF7AEFB33000022042120000095FFF7DD
:103F20006EFC002800D08AE72368626A5B6A13701F
:103F3000636A228D01336362638D013A013B9BB258
:103F40006385638D92B22285002B17D0002A15D18C
:103F50003300802120000095FFF751FC002800D09D
:103F60006DE7638DFF2B23D9FF2323858023FF2259
:103F700000905B0439002000FFF77AFB638D002B73
:103F8000C8D12A0031002000FFF769FC002800D0CA
:103F900055E7202123680C4DD9615A682A405A60A0
:103FA000230041331970079B40341870207047E795
:103FB0008023628D9B0492B22285D2B20090D9E711
:103FC000002000800024008000E800FEF0B504001E
:103FD0004134227803000F000220D6B2202A18D1E3
:103FE0001D0040352A78012A13D0242222701B6834
:103FF000233A196807489143196019680140002065
:10400000196019683943196019680A431A602670E3
:104010002870F0BDFFEFFFFF0200F0B541321478C9
:104020000300E5B20220202C17D11C004034267872
:10403000012E12D0223010701B6823381E68074FE3
:1040400086431E601E6809023E40314319601968AC
:1040500008431860002015702070F0BDFFF0FFFFCE
:104060000C221D4B70B5DC682240082A31D00C2A86
:1040700009D0042A25D11868184BC006C01718406B
:10408000174BC01870BDA2021648120F805C802228
:104090002402D968A40F52020134114209D0124AF5
:1040A00000230021FCF7E2F922000023FCF7BEF90F
:1040B000E8E71A6810231A4201D00C4AF0E7084AD0
:1040C000EEE780205B6800021B045B0F0133984021
:1040D000D8E70548D6E7C0460010024000E548FF93
:1040E0000024F400D25F000800127A0000093D00AD
:1040F000F0B5050085B000285AD00C23BE4C0268EC
:10410000E668E7681E4080235B0219001F40D20763
:1041100042D42B689B0700D58BE02B68DB0629D5A2
:10412000002E00D0DCE023689B0502D5EB69002B54
:104130003ED06268B1496B6A0A401A4362606168A6
:104140002A6A0902090A12060A43626080225B0B8E
:10415000013312029A401300E1680A06A849120FBF
:104160008A5CD340A74A1360A74B1868FFF708F989
:10417000002834D12B681B0700D5E8E02B685B07CB
:1041800000D50AE12B689B0600D58EE1AB6A002BB7
:1041900000D0BDE1002022E0082E03D00C2E09D172
:1041A000002F07D023689B03B3D56B68002BB0D1D9
:1041B000012014E06A688A4213D122681343236005
:1041C000FFF722F900908022236892021342A0D1C7
:1041D000FFF71AF9009BC01A6428F4D9032005B030
:1041E000F0BDA021C9028A4205D180222168D202F5
:1041F0000A432260E1E72168844801402160216888
:104200000B400393039B824923680B402360002AE1
:10421000D6D1FFF7F9F8009080222368920213426A
:1042200000D176E7FFF7F0F8009BC01A6428F3D9B5
:10423000D4E7EA68042E03D00C2E24D1002F22D11B
:1042400023685B0701D5002AB2D061682B697148E9
:104250001B0201400B430921636023688B43134316
:104260002360FFF7FDFEE368654A1B061B0FD35C66
:10427000D840644B1860644B1868FFF781F8002839
:1042800000D14AE7ABE72368002A18D009218B4305
:1042900013432360FFF7B8F8070004222368134292
:1042A00007D062682B695B491B020A4013436360B5
:1042B00033E7FFF7A9F8C01B0228EED98EE70122E9
:1042C00093432360FFF7A0F80700042223681342FA
:1042D00000D122E7FFF798F8C01B0228F5D97DE747
:1042E000EB69002B20D0802322685B0013432360FE
:1042F000FFF78AF8070080222368920013420DD04E
:1043000063683E4A13406A6A1343636062682B6ABB
:1043100012021B06120A134363602BE7FFF774F8BF
:10432000C01B0228E7D959E723683B4A13402360A2
:10433000FFF76AF80700802223689200134200D139
:1043400018E7FFF761F8C01B0228F4D946E76A694D
:104350000123002A10D0226D13432365FFF754F880
:1043600007000222236D134200D007E7FFF74CF845
:10437000C01B0228F5D931E7226D9A432265FFF769
:1043800043F807000222236D134200D1F6E6FFF73F
:104390003BF8C01B0228F5D920E780230021A26B3F
:1043A0005B0500911A4204D1A26B1343A36301235E
:1043B00000938022194F52003B68134208D080229C
:1043C000AB68520093422BD1226D134323654CE01E
:1043D00080223B68520013433B60FFF715F80190C1
:1043E00080223B6852001342E9D1FFF70DF8019B90
:1043F000C01A6428F4D9F1E600100240FF1FFFFF45
:10440000BA5F00081C00002024000020FFFFFEFF10
:10441000FFFFFBFFFFE0FFFFFFFEFFFF007000401C
:10442000002B16D1236D6B4A13402365236D6A4A16
:1044300013402365FEF7E8FF07008022236D9200FA
:1044400013421AD0FEF7E0FF644BC01B9842F4D928
:10445000C4E6A021C9008B4218D18023216DDB0066
:104460000B432365236D1A432265FEF7CDFF07003A
:104470008022236D9200134210D0009B012B00D0AC
:1044800080E6A36B564A1340A3637BE6236D514A33
:1044900013402365236D504A134097E7FEF7B4FF9E
:1044A0004E4BC01B9842E3D998E6A96901234D4AB7
:1044B000002918D0A1681943A160616B0B436363A5
:1044C0008023116A9B010B431362FEF79DFF0700D7
:1044D0000222A368134200D058E6FEF795FFC01BE6
:1044E0000228F5D97AE6A1689943A160136A3E498A
:1044F0000B401362FEF788FF07000222A3681342F5
:1045000000D143E6FEF780FFC01B0228F5D965E61F
:104510000C2E43D0354A022B2ED12368802713401E
:104520002360FEF771FF0600BF0423683B421DD1E4
:10453000296BEB6AE2680B432D4980260A4013433E
:104540006A6BB6041343E360802322685B04134361
:104550002360FEF759FF05002368334200D019E6B7
:10456000FEF752FF401B0228F6D937E6FEF74CFF54
:10457000801B0228D9D931E62368802613402360A6
:10458000FEF742FF0500B6042368334200D101E67E
:10459000FEF73AFF401B0228F6D91FE61800012B50
:1045A00000D11CE68022E368E96A52021A408A427E
:1045B00000D0FDE5F022296B92031A408A4200D018
:1045C000F6E5C022120413406A6B934200D1E1E584
:1045D000EEE5C046FFFEFFFFFFFBFFFF8813000074
:1045E000FFFFFFEF00000140FFDFFFFFFFFFFFFEC7
:1045F000FFFF02FFF7B5041E019101D10120FEBDAE
:1046000001255B4E019A33682B40934231D32268D7
:10461000930743D4D30749D401253368019A2B402B
:10462000934209D93368AB433360FEF7EDFE0700D0
:1046300033682B4200D08CE022684E4D530700D5E2
:104640008FE0130706D5E96823694B4ADB000A406F
:104650001343EB60FFF704FDEB68484A1B061B0F92
:10466000D35CD840464B1860464B1868FEF788FE6E
:10467000C5E73368019AAB4313433360FEF7C4FECA
:1046800007003368019A2B409342C0D0FEF7BCFE6E
:104690003D4BC01B9842F4D90320B0E7F0203549C8
:1046A000CB688343A0680343CB60B3E7314D6268B6
:1046B0002B68022A18D19B03A0D50321EB688B43FA
:1046C0001343EB60FEF7A0FE63680700022B18D1CE
:1046D0000C22EB681340082B9ED0FEF795FE2A4B68
:1046E000C01B9842F4D9D7E7032A02D19B01E4D436
:1046F00084E7012A02D15B07DFD47FE79B05DCD486
:104700007CE7032B0BD10C22EB681340934283D040
:10471000FEF77AFE1C4BC01B9842F4D9BCE7012B74
:1047200011D00C22EB68134200D175E7FEF76CFE46
:10473000154BC01B9842F4D9AEE7FEF765FE124B4D
:10474000C01B9842A8D80C22EB681340042BF4D16C
:1047500062E7FEF759FE0C4BC01B984200D867E792
:104760009AE7EB6809490B40E1680B43EB6068E7A7
:104770000020024000100240FFC7FFFFBA5F0008A0
:104780001C0000202400002088130000FFF8FFFF19
:10479000044B054ADB685B055B0FD35C034A10687A
:1047A000D840704700100240CA5F00081C0000207B
:1047B000044B054ADB689B045B0FD35C034A10681B
:1047C000D840704700100240CA5F00081C0000205B
:1047D0000368F7B505009B062DD5802300215C4CAE
:1047E0005B05A26B00911A4204D1A26B1343A36331
:1047F000012300938027574E7F0033683B4253D0FC
:104800006B68C02118002268890308400A40904262
:104810005BD1216DC02208009202104011425FD18D
:104820002B689B0600D570E0009B012B03D1A36B86
:10483000494A1340A3632B68DA0706D5032044498D
:10484000CA6C8243A8680243CA649A0706D50C2042
:104850003F49CA6C8243E8680243CA645A0706D5D6
:104860003B493E48CA6C024028690243CA641A07A1
:1048700006D537493A48CA6C024068690243CA649F
:104880005A0606D532493748CA6C0240E8690243E5
:10489000CA6400201B0617D52D4A3349D36C0B4040
:1048A000A9690B43D3640FE033683B433360FEF7E1
:1048B000ABFD019033683B42A2D1FEF7A5FD019B01
:1048C000C01A6428F6D90320FEBDC0221900920246
:1048D000114091429DD122680120920399D5F3E7BE
:1048E000134083429CD02B689B069DD58022216D6E
:1048F000206D120302432265226D1C4B1C480B40A5
:10490000024022652365CB0512D46968C0230A00E2
:104910009B021A409A4207D1236816480340C020E0
:10492000800301400B432360236D1A4322657BE71C
:10493000FEF76AFD80270600BF00236D3B4200D0D2
:104940006EE7FEF761FD0C4B801B9842F5D9BAE784
:104950000010024000700040FFFFFFEFFFF3FFFF79
:10496000FFCFFFFFFFFFFFFBFFFFF3FFFFFFFCFF9A
:10497000FFFFF7FFFFFFCFFF88130000802210B575
:104980000368D205904205D0104CA04202D0104CD2
:10499000A0420FD17024A3434C682343904205D01A
:1049A0000A4A904202D00A4A904203D1094A13406F
:1049B000CA681343802293430A69134303608B68D8
:1049C000C3620B6883620123436110BD000801408C
:1049D00000140140FFFCFFFF012230B57325036A7C
:1049E00093430362036A44688269AA430D682A43B9
:1049F0000225AB438D68446082614A682B43426361
:104A0000036230BD1022036A30B593430362036A28
:104A1000094C4568826914400A6812022243202426
:104A2000A3431C008B6845601B0182614A682343D5
:104A30008263036230BDC046FF8CFFFF1F2310B5A9
:104A4000012419408C408A40036AA3430362036A2D
:104A50001A43026210BD000010B5030004000029D3
:104A600005D13A3301201A7882420AD010BD0429B8
:104A700001D13B33F6E7082901D13C33F2E73D335E
:104A8000F0E702221A7020680122FFF7D7FF802288
:104A90002368D205934205D00B4A934202D00B4AB9
:104AA00093420AD107219A6800200A40062ADDD0E5
:104AB000012219680A431A60D8E701221968002008
:104AC0000A431A60D2E7C0460008014000140140C2
:104AD00070B50400002200680D00FFF7AFFF2368E7
:104AE0000C4A196A114203D101211A688A431A60DB
:104AF0000123002D03D13A340020237070BD042D12
:104B000001D13B34F8E7082D01D13C34F4E73D34C2
:104B1000F2E7C0461111000070B504000120002C1E
:104B20001DD0250039352B78DAB2002B05D12300B2
:104B3000383320001A70FEF76BFB02232B702068BD
:104B4000211DFFF71BFF2200012300203E321370BE
:104B50003D34043A13705370937023702B7070BD02
:104B600010B5FFF779FF10BD10B5FFF7B1FF10BD0D
:104B7000F8B5050038352B7807000C001600022028
:104B8000012B0AD001382870082A50D006D8002AF4
:104B90002AD0042A3AD000232B70F8BD0C2AFAD16F
:104BA0003B6834491A6A34480A401A621A6A5E68D5
:104BB000D969014020680702304839431040A26893
:104BC0005E601203D9616168024319641A6280222F
:104BD000D96912010A43DA61DA6929490A40DA61BE
:104BE000E268D969120241E03868FFF7F5FE082251
:104BF0003B6899690A4304219A619A698A439A61D8
:104C00009A69E1680A439A610020C4E73868FFF7AF
:104C1000F9FE80223B68120199690A439A619A69F8
:104C200017490A409A61E26899691202EAE773201B
:104C30003B6814491A6A0A401A621A6A5F68D9699D
:104C400081432068014310481040A2685F60D96129
:104C500061681202D963042102431A62DA691643B9
:104C6000DE61DA698A43DA61DA69E1680A43DA61A6
:104C7000CAE7C046FFEFFFFFFF8CFFFFFFDFFFFF2C
:104C8000FFFBFFFFFFFEFFFFFFFDFFFF70B504000E
:104C900002223834257803001000012D1DD01D009C
:104CA000702639352A701B6858689A68B0430E68B8
:104CB000304358608020C005834205D007488342B6
:104CC00002D00748834204D18020496882430A43C6
:104CD0009A60012300202B70207070BD00080140F5
:104CE0000014014030B5EFF31084012282F31088E4
:104CF0000168124D0B682B400B6084F31088EFF3B2
:104D0000108482F3108801688B6893438B6084F36E
:104D10001088036E93420AD1EFF3108183F3108859
:104D2000102402681368A343136081F310882022C3
:104D3000031DDA6700230366836630BDDFFEFFFFD5
:104D4000F8B504002569A168026829436569C3694B
:104D500029431068724D194328400143116051687E
:104D60007048714D0140E06801435160A069AA425A
:104D700001D0216A084391686C4E31400143916033
:104D80006B498A420FD103216A4AD26C0A40013A28
:104D90006949022A0FD980221202934200D169E0A8
:104DA000FFF706FD9CE065498A4213D10C21614A58
:104DB000D26C0A406249885C80221202934200D081
:104DC0007FE0082818D8FBF7A7F95055581779172E
:104DD00017176300AA420FD1C0218020554A09014C
:104DE000D36C00010B40834216D007D8002B0AD0A9
:104DF0008022D200934235D0012009E08B42FBD1C2
:104E00008020000212E0FFF7C3FC00280ED1002032
:104E10000023A366E366F8BD1023106818404342E0
:104E20005841484B40421840474BC0180322636822
:104E30005A438242E0D81A038242DDD30027020E91
:104E400001025E0889197A41080011001A003B002E
:104E5000FBF7ECFA3D4BC2183D4B9A42CCD8236885
:104E6000D860D4E7FFF7FCF8CFE7FFF791FC031E0B
:104E7000CDD00DE0FFF79CFCF9E72E4B324A1868C5
:104E800010231840434258412E4B404203409B1888
:104E90005800636861685B08C018FBF751F90200AD
:104EA0002C4B103A9A42A7D80F23020000079A43CE
:104EB00093B2400F22681843D060A8E7FFF7D0F8FC
:104EC000D5E7082898D8FBF731F909006BFF0F00E8
:104ED00097FF240097FF97FF97FF2700FFF758FCE5
:104EE000002800D193E70AE0124B186810231840FD
:104EF00043425841134B40421840134BC01863685B
:104F000061685B081818FBF71BF90200114B103A97
:104F1000A3E7FFF7A5F8E3E780200002EFE7C0462C
:104F2000F369FFEFFFCFFFFF00480040FFF4FFFFF2
:104F30000038014000100240DB5F000800440040E0
:104F4000DE5F0008001BB70000093D0000FDFFFF09
:104F5000FFFC0F00EFFF0000436A30B5DA0706D50B
:104F60000168284C4A682240846A22434A609A07B2
:104F700006D50168244C4A682240C46A22434A602C
:104F80005A0706D50168214C4A682240046B224327
:104F90004A601A0706D501681D4C4A682240446BD6
:104FA00022434A60DA0606D501681A4C8A68224014
:104FB000846B22438A609A0606D50168164C8A687B
:104FC0002240C46B22438A605A0610D50168134DF3
:104FD0004A68046C2A4022434A6080225203944269
:104FE00005D14A680E4C2240446C22434A601B069D
:104FF00006D502680B4953680B40816C0B43536024
:1050000030BDC046FFFFFDFFFFFFFEFFFFFFFBFFC0
:10501000FF7FFFFFFFEFFFFFFFDFFFFFFFFFEFFF60
:10502000FFFF9FFFFFFFF7FFF7B504000D0017001C
:10503000082600932268D3692B405B1B59424B41E1
:10504000BB4201D0002021E0089B0133F3D0FEF7E2
:10505000DBF9009BC01A089B984228D8002B26D069
:10506000042123681A680A42E4D0DA691100314049
:10507000019132420BD020001E62FFF733FE230065
:105080000833DE670023012078342370FEBD8022C0
:10509000D96912011142CDD01A622000FFF722FE19
:1050A000230020220833DA67019B78342370032021
:1050B000ECE7F0B585B00393C36F04000D00160054
:1050C0000220202B39D10138002936D0002A34D0D3
:1050D0008023A2685B019A4204D12369002B01D18D
:1050E00001422AD1230000220833DA672123E36733
:1050F000FEF78AF9230050331E8002331E8002938C
:105100008023A268070000265B019A4204D123692C
:10511000B34201D12E001D00230052331B889AB2E6
:10512000002B0CD1039B4021009320003B00FFF794
:105130007BFF2023E36700280DD105B0F0BD039B62
:105140000022009380213B002000FFF76DFF002824
:1051500003D02023E3670320EFE72268002D0BD163
:1051600033880236DB05DB0D9362029B029A1B88B3
:10517000013B9BB21380CFE72B7801359362F4E7B4
:10518000F0B5160087B0021D0593D36F04000D0023
:105190000220202B60D1013800295DD0002E5BD089
:1051A0008023A1685B01994204D12369002B01D1BE
:1051B000054251D1230000270833DF672223D3673C
:1051C0002766FEF721F9230080215833A2681E804C
:1051D000023303931E800490490102338A421BD19B
:1051E0002169B94216D1264919801F8880230026DB
:1051F0005B019A4204D12369B34201D12E001D0004
:1052000023005A331B8898B2002B17D10434203363
:10521000E36721E0FF21E7E7002A04D121690029A3
:10522000F8D07F21E0E7802149058A4204D1216935
:105230000029F6D03F21D7E71F80D6E7059B002243
:10524000009320212000049BFFF7EEFE002805D0EC
:10525000202303200434E36707B0F0BD23685B6AB2
:105260003B40002D08D133800236039B039A1B88F4
:10527000013B9BB21380C3E72B700135F5E7C046B5
:10528000FF0100000300F7B5002504000833DD67C7
:10529000FEF7BAF82600236807001B6878361B075C
:1052A0001BD58021264B2A00009389030300200090
:1052B000FFF7BAFEA84210D0EFF31081012383F369
:1052C00010888020226813688343136081F310885C
:1052D0002023E36735700320FEBD250008CD1B6841
:1052E0005B0725D58021164B0022009320003B0050
:1052F000C903FFF799FE00281AD0EFF310800122AE
:1053000082F3108821680F4F0B683B400B6080F3DD
:105310001088EFF3108082F3108821688B68934324
:105320008B6080F310882023EB6700233370D2E773
:1053300000202023E367EB67206660663070CBE7D0
:10534000FFFFFF01DFFEFFFF10B5041E01D10120AA
:1053500010BDC36F002B04D1020078321370FDF72B
:105360008BFF242301212268E367136820008B430D
:105370001360FFF7E5FC0128E9D0636A002B02D037
:105380002000FFF7E9FD236807495A6820000A401A
:105390002A215A609A688A439A60012219680A434E
:1053A0001A60FFF76FFFD3E7FFB7FFFF014B1868E5
:1053B0007047C0462800002070B500260C4D0D4CEB
:1053C000641BA410A64209D1002600F08BFC0A4DF4
:1053D0000A4C641BA410A64205D170BDB300EB5863
:1053E00098470136EEE7B300EB5898470136F2E7ED
:1053F0002860000828600008286000082C60000869
:1054000003008218934200D1704719700133F9E705
:105410000EB400B50B499CB01DAB029006900791ED
:1054200004910948094904CB0591006802A9019338
:1054300000F070F80023029A13701CB008BC03B08F
:105440001847C046FFFFFF7F280000200802FFFF2B
:10545000F0B58E6885B007000C00039201939E4260
:105460003CD890238A89DB001A4234D0096923682A
:1054700060695B1A029303234343DD0FED18019B20
:10548000029801331B186D10AB4200D91D00530563
:1054900032D52900380000F053FB061E09D10C2339
:1054A0003B6040230120A28940421343A38105B001
:1054B000F0BD029A216900F0BAFAA389144A1A4091
:1054C00080231343A381029B2661F6182660656141
:1054D000019EED1AA560019B9E4200D9019E3200FB
:1054E0000399206800F0ACFAA36800209B1BA3601E
:1054F00023689E192660DAE72A00380000F096FB40
:10550000061EE0D13800216900F0AEFAC7E7C046B8
:105510007FFBFFFFF0B5A1B003901D008B890F004A
:1055200016001B0611D50B69002B0ED1402100F08F
:1055300007FB38603861002805D10C23039A013835
:10554000136021B0F0BD40237B61002308AC636190
:10555000203363761033A376079535002B78002B24
:1055600001D0252B47D1AB1B0593B5420CD032009F
:1055700039000398FFF76CFF431C00D1AEE062696D
:10558000059B9446634463612B78002B00D1A5E012
:10559000012200235242626004A9543252186E1C48
:1055A0002360E360A3601370A3650522317854483B
:1055B00000F032FA751C00281FD12268D30604D5EA
:1055C000532304A95B1820211970130704D5532312
:1055D00004A95B182B21197033782A2B16D03500BB
:1055E00000210A20E3682A786E1C303A092A4ED935
:1055F000002911D117E00135B0E7414B2268C01AEC
:105600000123834013432E002360CEE7079B191D1F
:105610001B680791002B01DB0B9304E05B42E36006
:105620000223134323602B782E2B0AD16B782A2B6D
:1056300035D1079B02351A1D1B680792002B2BDB07
:105640000993304E03223000297800F0E5F9002854
:1056500006D04023801B834022680135134323601A
:105660002978062228486E1C217600F0D5F90028FA
:105670003CD0264B002B25D10722079B07339343B1
:10568000083307936369049A9B18636165E7434392
:10569000350001219B18A6E701235B42D0E70023D8
:1056A0000A201A000135636029786E1C30390929F7
:1056B00003D9002BC5D00992C3E74243350001232B
:1056C0005218F1E707AB00933A002100104B039802
:1056D00000E000BF0490049B0133D3D1BB890D9837
:1056E0005B0600D42DE7012040422AE707AB009378
:1056F0003A002100064B039800F07CF8EAE7C04628
:10570000EB5F0008F15F0008F55F00080000000093
:1057100051540008F7B5150001938A680B690C0015
:105720000090934200DA130022002B60433212787B
:10573000002A01D001332B6023689B0602D52B6819
:1057400002332B602268062317001F401A4227D01D
:10575000230043331B785A1E93412268920630D4AB
:10576000220001990098089E4332B047431C25D07F
:10577000062320682A68E16800250340042B03D132
:105780008D1AEB43DB171D40A3682269934201DDAC
:105790009B1AED180027BD4220D1002010E00137F0
:1057A000E3682A689B1ABB42D2DD220001230199DB
:1057B0000098089E1932B047431CF0D101204042A6
:1057C000FEBD3020E1184331087021005A1C4531DC
:1057D0000978A218433202331170C1E72200012375
:1057E00001990098089E1A32B047431CE6D0013751
:1057F000D1E70000F0B58BB006920A004332079360
:10580000059004920A7E0C00109B782A07D8622A21
:1058100009D8002A00D1C1E0582A00D18CE0260026
:105820004236327022E0100063381528F7D8FAF7B4
:105830007DFC16001F00F6FFF6FFF6FFF6FF1F00C7
:10584000F6FFF6FFF6FFF6FFA80036009A00F6FF17
:10585000F6FFB900F6FF3600F6FFF6FF9E002600C1
:105860001A684236111D1960136833700123A7E0CE
:10587000086819680A1D05060BD50D681A60002D09
:1058800003DA2D23049A6D421370614B0A270393A8
:105890001BE00D681A604106F1D52DB2EFE70D68E7
:1058A0001968081D18602E0601D50D6803E06D0605
:1058B000FBD50D68ADB2564B082703936F2A00D075
:1058C00002372300002243331A706368A360002B61
:1058D00003DB0422216891432160002D02D1049E44
:1058E000002B0CD0049E28003900FAF7AFFC039B74
:1058F000013E5B5C33702B0005009F42F3D9082FFB
:1059000009D12368DB0706D563682269934202DC6C
:105910003023013E3370049B9B1B2361079B2100B6
:1059200000930598069B09AAFFF7F4FE431C4CD18F
:10593000012040420BB0F0BD45310A70344A039259
:105940001A68216820CA1A60080616D5CB0702D546
:105950002023194321601027002DB2D12023226873
:105960009A432260ADE7202209680A4322602200A0
:10597000782145321170274AE1E74806E6D5ADB2F5
:10598000E4E71A680D68101D4969186013682E064F
:1059900001D5196002E06D06FBD519800023049E35
:1059A0002361BBE71A68111D1960166800213000D9
:1059B000626800F031F8002801D0801B60606368E5
:1059C00023610023049A1370A8E723693200069923
:1059D0000598079DA847431CAAD023689B0715D4A8
:1059E000099BE0689842A5DA1800A3E7220001238A
:1059F00006990598079E1932B047431C98D0013587
:105A0000E368099A9B1AAB42F0DCE9E70025F7E767
:105A1000FC5F00080D600008C9B28218904201D1F5
:105A20000020704703788B42FBD00130F6E700235B
:105A300010B59A4200D110BDCC5CC4540133F8E7D4
:105A400010B5884202D98B18984203D3002307E08F
:105A50008B5C8354013AFBD210BDCC5CC45401333F
:105A60009A42FAD1F8E7000070B50500002910D07D
:105A70000C1F2368002B00DAE418280000F018F946
:105A80001D4A1368002B05D163601460280000F0E4
:105A900017F970BDA34208D9216860188342F3D179
:105AA00018685B6841182160EEE71A005B68002BFC
:105AB00001D0A342F9D911685018A0420BD1206837
:105AC0000918501811608342E0D118685B684118CA
:105AD00011605360DAE7A04202D90C232B60D5E7AE
